
FinalProject.elf:     file format elf32-littlearm

Sections:
Idx Name          Size      VMA       LMA       File off  Algn
  0 .isr_vector   00000188  08000000  08000000  00010000  2**0
                  CONTENTS, ALLOC, LOAD, READONLY, DATA
  1 .text         00008288  08000190  08000190  00010190  2**4
                  CONTENTS, ALLOC, LOAD, READONLY, CODE
  2 .rodata       00000434  08008418  08008418  00018418  2**3
                  CONTENTS, ALLOC, LOAD, READONLY, DATA
  3 .ARM.extab    00000000  0800884c  0800884c  000201e0  2**0
                  CONTENTS
  4 .ARM          00000000  0800884c  0800884c  000201e0  2**0
                  CONTENTS
  5 .preinit_array 00000000  0800884c  0800884c  000201e0  2**0
                  CONTENTS, ALLOC, LOAD, DATA
  6 .init_array   00000004  0800884c  0800884c  0001884c  2**2
                  CONTENTS, ALLOC, LOAD, DATA
  7 .fini_array   00000004  08008850  08008850  00018850  2**2
                  CONTENTS, ALLOC, LOAD, DATA
  8 .data         000001e0  20000000  08008854  00020000  2**2
                  CONTENTS, ALLOC, LOAD, DATA
  9 .ccmram       00000000  10000000  10000000  000201e0  2**0
                  CONTENTS
 10 .bss          0000012c  200001e0  200001e0  000201e0  2**2
                  ALLOC
 11 ._user_heap_stack 00000604  2000030c  2000030c  000201e0  2**0
                  ALLOC
 12 .ARM.attributes 00000030  00000000  00000000  000201e0  2**0
                  CONTENTS, READONLY
 13 .debug_info   0000d150  00000000  00000000  00020210  2**0
                  CONTENTS, READONLY, DEBUGGING, OCTETS
 14 .debug_abbrev 00001e73  00000000  00000000  0002d360  2**0
                  CONTENTS, READONLY, DEBUGGING, OCTETS
 15 .debug_aranges 00000a58  00000000  00000000  0002f1d8  2**3
                  CONTENTS, READONLY, DEBUGGING, OCTETS
 16 .debug_ranges 00000990  00000000  00000000  0002fc30  2**3
                  CONTENTS, READONLY, DEBUGGING, OCTETS
 17 .debug_macro  0001c3d7  00000000  00000000  000305c0  2**0
                  CONTENTS, READONLY, DEBUGGING, OCTETS
 18 .debug_line   0000d3a8  00000000  00000000  0004c997  2**0
                  CONTENTS, READONLY, DEBUGGING, OCTETS
 19 .debug_str    000a3ac4  00000000  00000000  00059d3f  2**0
                  CONTENTS, READONLY, DEBUGGING, OCTETS
 20 .comment      00000050  00000000  00000000  000fd803  2**0
                  CONTENTS, READONLY
 21 .debug_frame  00003b04  00000000  00000000  000fd854  2**2
                  CONTENTS, READONLY, DEBUGGING, OCTETS

Disassembly of section .text:

08000190 <__do_global_dtors_aux>:
 8000190:	b510      	push	{r4, lr}
 8000192:	4c05      	ldr	r4, [pc, #20]	; (80001a8 <__do_global_dtors_aux+0x18>)
 8000194:	7823      	ldrb	r3, [r4, #0]
 8000196:	b933      	cbnz	r3, 80001a6 <__do_global_dtors_aux+0x16>
 8000198:	4b04      	ldr	r3, [pc, #16]	; (80001ac <__do_global_dtors_aux+0x1c>)
 800019a:	b113      	cbz	r3, 80001a2 <__do_global_dtors_aux+0x12>
 800019c:	4804      	ldr	r0, [pc, #16]	; (80001b0 <__do_global_dtors_aux+0x20>)
 800019e:	f3af 8000 	nop.w
 80001a2:	2301      	movs	r3, #1
 80001a4:	7023      	strb	r3, [r4, #0]
 80001a6:	bd10      	pop	{r4, pc}
 80001a8:	200001e0 	.word	0x200001e0
 80001ac:	00000000 	.word	0x00000000
 80001b0:	08008400 	.word	0x08008400

080001b4 <frame_dummy>:
 80001b4:	b508      	push	{r3, lr}
 80001b6:	4b03      	ldr	r3, [pc, #12]	; (80001c4 <frame_dummy+0x10>)
 80001b8:	b11b      	cbz	r3, 80001c2 <frame_dummy+0xe>
 80001ba:	4903      	ldr	r1, [pc, #12]	; (80001c8 <frame_dummy+0x14>)
 80001bc:	4803      	ldr	r0, [pc, #12]	; (80001cc <frame_dummy+0x18>)
 80001be:	f3af 8000 	nop.w
 80001c2:	bd08      	pop	{r3, pc}
 80001c4:	00000000 	.word	0x00000000
 80001c8:	200001e4 	.word	0x200001e4
 80001cc:	08008400 	.word	0x08008400

080001d0 <strlen>:
 80001d0:	4603      	mov	r3, r0
 80001d2:	f813 2b01 	ldrb.w	r2, [r3], #1
 80001d6:	2a00      	cmp	r2, #0
 80001d8:	d1fb      	bne.n	80001d2 <strlen+0x2>
 80001da:	1a18      	subs	r0, r3, r0
 80001dc:	3801      	subs	r0, #1
 80001de:	4770      	bx	lr

080001e0 <memchr>:
 80001e0:	f001 01ff 	and.w	r1, r1, #255	; 0xff
 80001e4:	2a10      	cmp	r2, #16
 80001e6:	db2b      	blt.n	8000240 <memchr+0x60>
 80001e8:	f010 0f07 	tst.w	r0, #7
 80001ec:	d008      	beq.n	8000200 <memchr+0x20>
 80001ee:	f810 3b01 	ldrb.w	r3, [r0], #1
 80001f2:	3a01      	subs	r2, #1
 80001f4:	428b      	cmp	r3, r1
 80001f6:	d02d      	beq.n	8000254 <memchr+0x74>
 80001f8:	f010 0f07 	tst.w	r0, #7
 80001fc:	b342      	cbz	r2, 8000250 <memchr+0x70>
 80001fe:	d1f6      	bne.n	80001ee <memchr+0xe>
 8000200:	b4f0      	push	{r4, r5, r6, r7}
 8000202:	ea41 2101 	orr.w	r1, r1, r1, lsl #8
 8000206:	ea41 4101 	orr.w	r1, r1, r1, lsl #16
 800020a:	f022 0407 	bic.w	r4, r2, #7
 800020e:	f07f 0700 	mvns.w	r7, #0
 8000212:	2300      	movs	r3, #0
 8000214:	e8f0 5602 	ldrd	r5, r6, [r0], #8
 8000218:	3c08      	subs	r4, #8
 800021a:	ea85 0501 	eor.w	r5, r5, r1
 800021e:	ea86 0601 	eor.w	r6, r6, r1
 8000222:	fa85 f547 	uadd8	r5, r5, r7
 8000226:	faa3 f587 	sel	r5, r3, r7
 800022a:	fa86 f647 	uadd8	r6, r6, r7
 800022e:	faa5 f687 	sel	r6, r5, r7
 8000232:	b98e      	cbnz	r6, 8000258 <memchr+0x78>
 8000234:	d1ee      	bne.n	8000214 <memchr+0x34>
 8000236:	bcf0      	pop	{r4, r5, r6, r7}
 8000238:	f001 01ff 	and.w	r1, r1, #255	; 0xff
 800023c:	f002 0207 	and.w	r2, r2, #7
 8000240:	b132      	cbz	r2, 8000250 <memchr+0x70>
 8000242:	f810 3b01 	ldrb.w	r3, [r0], #1
 8000246:	3a01      	subs	r2, #1
 8000248:	ea83 0301 	eor.w	r3, r3, r1
 800024c:	b113      	cbz	r3, 8000254 <memchr+0x74>
 800024e:	d1f8      	bne.n	8000242 <memchr+0x62>
 8000250:	2000      	movs	r0, #0
 8000252:	4770      	bx	lr
 8000254:	3801      	subs	r0, #1
 8000256:	4770      	bx	lr
 8000258:	2d00      	cmp	r5, #0
 800025a:	bf06      	itte	eq
 800025c:	4635      	moveq	r5, r6
 800025e:	3803      	subeq	r0, #3
 8000260:	3807      	subne	r0, #7
 8000262:	f015 0f01 	tst.w	r5, #1
 8000266:	d107      	bne.n	8000278 <memchr+0x98>
 8000268:	3001      	adds	r0, #1
 800026a:	f415 7f80 	tst.w	r5, #256	; 0x100
 800026e:	bf02      	ittt	eq
 8000270:	3001      	addeq	r0, #1
 8000272:	f415 3fc0 	tsteq.w	r5, #98304	; 0x18000
 8000276:	3001      	addeq	r0, #1
 8000278:	bcf0      	pop	{r4, r5, r6, r7}
 800027a:	3801      	subs	r0, #1
 800027c:	4770      	bx	lr
 800027e:	bf00      	nop

08000280 <__aeabi_drsub>:
 8000280:	f081 4100 	eor.w	r1, r1, #2147483648	; 0x80000000
 8000284:	e002      	b.n	800028c <__adddf3>
 8000286:	bf00      	nop

08000288 <__aeabi_dsub>:
 8000288:	f083 4300 	eor.w	r3, r3, #2147483648	; 0x80000000

0800028c <__adddf3>:
 800028c:	b530      	push	{r4, r5, lr}
 800028e:	ea4f 0441 	mov.w	r4, r1, lsl #1
 8000292:	ea4f 0543 	mov.w	r5, r3, lsl #1
 8000296:	ea94 0f05 	teq	r4, r5
 800029a:	bf08      	it	eq
 800029c:	ea90 0f02 	teqeq	r0, r2
 80002a0:	bf1f      	itttt	ne
 80002a2:	ea54 0c00 	orrsne.w	ip, r4, r0
 80002a6:	ea55 0c02 	orrsne.w	ip, r5, r2
 80002aa:	ea7f 5c64 	mvnsne.w	ip, r4, asr #21
 80002ae:	ea7f 5c65 	mvnsne.w	ip, r5, asr #21
 80002b2:	f000 80e2 	beq.w	800047a <__adddf3+0x1ee>
 80002b6:	ea4f 5454 	mov.w	r4, r4, lsr #21
 80002ba:	ebd4 5555 	rsbs	r5, r4, r5, lsr #21
 80002be:	bfb8      	it	lt
 80002c0:	426d      	neglt	r5, r5
 80002c2:	dd0c      	ble.n	80002de <__adddf3+0x52>
 80002c4:	442c      	add	r4, r5
 80002c6:	ea80 0202 	eor.w	r2, r0, r2
 80002ca:	ea81 0303 	eor.w	r3, r1, r3
 80002ce:	ea82 0000 	eor.w	r0, r2, r0
 80002d2:	ea83 0101 	eor.w	r1, r3, r1
 80002d6:	ea80 0202 	eor.w	r2, r0, r2
 80002da:	ea81 0303 	eor.w	r3, r1, r3
 80002de:	2d36      	cmp	r5, #54	; 0x36
 80002e0:	bf88      	it	hi
 80002e2:	bd30      	pophi	{r4, r5, pc}
 80002e4:	f011 4f00 	tst.w	r1, #2147483648	; 0x80000000
 80002e8:	ea4f 3101 	mov.w	r1, r1, lsl #12
 80002ec:	f44f 1c80 	mov.w	ip, #1048576	; 0x100000
 80002f0:	ea4c 3111 	orr.w	r1, ip, r1, lsr #12
 80002f4:	d002      	beq.n	80002fc <__adddf3+0x70>
 80002f6:	4240      	negs	r0, r0
 80002f8:	eb61 0141 	sbc.w	r1, r1, r1, lsl #1
 80002fc:	f013 4f00 	tst.w	r3, #2147483648	; 0x80000000
 8000300:	ea4f 3303 	mov.w	r3, r3, lsl #12
 8000304:	ea4c 3313 	orr.w	r3, ip, r3, lsr #12
 8000308:	d002      	beq.n	8000310 <__adddf3+0x84>
 800030a:	4252      	negs	r2, r2
 800030c:	eb63 0343 	sbc.w	r3, r3, r3, lsl #1
 8000310:	ea94 0f05 	teq	r4, r5
 8000314:	f000 80a7 	beq.w	8000466 <__adddf3+0x1da>
 8000318:	f1a4 0401 	sub.w	r4, r4, #1
 800031c:	f1d5 0e20 	rsbs	lr, r5, #32
 8000320:	db0d      	blt.n	800033e <__adddf3+0xb2>
 8000322:	fa02 fc0e 	lsl.w	ip, r2, lr
 8000326:	fa22 f205 	lsr.w	r2, r2, r5
 800032a:	1880      	adds	r0, r0, r2
 800032c:	f141 0100 	adc.w	r1, r1, #0
 8000330:	fa03 f20e 	lsl.w	r2, r3, lr
 8000334:	1880      	adds	r0, r0, r2
 8000336:	fa43 f305 	asr.w	r3, r3, r5
 800033a:	4159      	adcs	r1, r3
 800033c:	e00e      	b.n	800035c <__adddf3+0xd0>
 800033e:	f1a5 0520 	sub.w	r5, r5, #32
 8000342:	f10e 0e20 	add.w	lr, lr, #32
 8000346:	2a01      	cmp	r2, #1
 8000348:	fa03 fc0e 	lsl.w	ip, r3, lr
 800034c:	bf28      	it	cs
 800034e:	f04c 0c02 	orrcs.w	ip, ip, #2
 8000352:	fa43 f305 	asr.w	r3, r3, r5
 8000356:	18c0      	adds	r0, r0, r3
 8000358:	eb51 71e3 	adcs.w	r1, r1, r3, asr #31
 800035c:	f001 4500 	and.w	r5, r1, #2147483648	; 0x80000000
 8000360:	d507      	bpl.n	8000372 <__adddf3+0xe6>
 8000362:	f04f 0e00 	mov.w	lr, #0
 8000366:	f1dc 0c00 	rsbs	ip, ip, #0
 800036a:	eb7e 0000 	sbcs.w	r0, lr, r0
 800036e:	eb6e 0101 	sbc.w	r1, lr, r1
 8000372:	f5b1 1f80 	cmp.w	r1, #1048576	; 0x100000
 8000376:	d31b      	bcc.n	80003b0 <__adddf3+0x124>
 8000378:	f5b1 1f00 	cmp.w	r1, #2097152	; 0x200000
 800037c:	d30c      	bcc.n	8000398 <__adddf3+0x10c>
 800037e:	0849      	lsrs	r1, r1, #1
 8000380:	ea5f 0030 	movs.w	r0, r0, rrx
 8000384:	ea4f 0c3c 	mov.w	ip, ip, rrx
 8000388:	f104 0401 	add.w	r4, r4, #1
 800038c:	ea4f 5244 	mov.w	r2, r4, lsl #21
 8000390:	f512 0f80 	cmn.w	r2, #4194304	; 0x400000
 8000394:	f080 809a 	bcs.w	80004cc <__adddf3+0x240>
 8000398:	f1bc 4f00 	cmp.w	ip, #2147483648	; 0x80000000
 800039c:	bf08      	it	eq
 800039e:	ea5f 0c50 	movseq.w	ip, r0, lsr #1
 80003a2:	f150 0000 	adcs.w	r0, r0, #0
 80003a6:	eb41 5104 	adc.w	r1, r1, r4, lsl #20
 80003aa:	ea41 0105 	orr.w	r1, r1, r5
 80003ae:	bd30      	pop	{r4, r5, pc}
 80003b0:	ea5f 0c4c 	movs.w	ip, ip, lsl #1
 80003b4:	4140      	adcs	r0, r0
 80003b6:	eb41 0101 	adc.w	r1, r1, r1
 80003ba:	3c01      	subs	r4, #1
 80003bc:	bf28      	it	cs
 80003be:	f5b1 1f80 	cmpcs.w	r1, #1048576	; 0x100000
 80003c2:	d2e9      	bcs.n	8000398 <__adddf3+0x10c>
 80003c4:	f091 0f00 	teq	r1, #0
 80003c8:	bf04      	itt	eq
 80003ca:	4601      	moveq	r1, r0
 80003cc:	2000      	moveq	r0, #0
 80003ce:	fab1 f381 	clz	r3, r1
 80003d2:	bf08      	it	eq
 80003d4:	3320      	addeq	r3, #32
 80003d6:	f1a3 030b 	sub.w	r3, r3, #11
 80003da:	f1b3 0220 	subs.w	r2, r3, #32
 80003de:	da0c      	bge.n	80003fa <__adddf3+0x16e>
 80003e0:	320c      	adds	r2, #12
 80003e2:	dd08      	ble.n	80003f6 <__adddf3+0x16a>
 80003e4:	f102 0c14 	add.w	ip, r2, #20
 80003e8:	f1c2 020c 	rsb	r2, r2, #12
 80003ec:	fa01 f00c 	lsl.w	r0, r1, ip
 80003f0:	fa21 f102 	lsr.w	r1, r1, r2
 80003f4:	e00c      	b.n	8000410 <__adddf3+0x184>
 80003f6:	f102 0214 	add.w	r2, r2, #20
 80003fa:	bfd8      	it	le
 80003fc:	f1c2 0c20 	rsble	ip, r2, #32
 8000400:	fa01 f102 	lsl.w	r1, r1, r2
 8000404:	fa20 fc0c 	lsr.w	ip, r0, ip
 8000408:	bfdc      	itt	le
 800040a:	ea41 010c 	orrle.w	r1, r1, ip
 800040e:	4090      	lslle	r0, r2
 8000410:	1ae4      	subs	r4, r4, r3
 8000412:	bfa2      	ittt	ge
 8000414:	eb01 5104 	addge.w	r1, r1, r4, lsl #20
 8000418:	4329      	orrge	r1, r5
 800041a:	bd30      	popge	{r4, r5, pc}
 800041c:	ea6f 0404 	mvn.w	r4, r4
 8000420:	3c1f      	subs	r4, #31
 8000422:	da1c      	bge.n	800045e <__adddf3+0x1d2>
 8000424:	340c      	adds	r4, #12
 8000426:	dc0e      	bgt.n	8000446 <__adddf3+0x1ba>
 8000428:	f104 0414 	add.w	r4, r4, #20
 800042c:	f1c4 0220 	rsb	r2, r4, #32
 8000430:	fa20 f004 	lsr.w	r0, r0, r4
 8000434:	fa01 f302 	lsl.w	r3, r1, r2
 8000438:	ea40 0003 	orr.w	r0, r0, r3
 800043c:	fa21 f304 	lsr.w	r3, r1, r4
 8000440:	ea45 0103 	orr.w	r1, r5, r3
 8000444:	bd30      	pop	{r4, r5, pc}
 8000446:	f1c4 040c 	rsb	r4, r4, #12
 800044a:	f1c4 0220 	rsb	r2, r4, #32
 800044e:	fa20 f002 	lsr.w	r0, r0, r2
 8000452:	fa01 f304 	lsl.w	r3, r1, r4
 8000456:	ea40 0003 	orr.w	r0, r0, r3
 800045a:	4629      	mov	r1, r5
 800045c:	bd30      	pop	{r4, r5, pc}
 800045e:	fa21 f004 	lsr.w	r0, r1, r4
 8000462:	4629      	mov	r1, r5
 8000464:	bd30      	pop	{r4, r5, pc}
 8000466:	f094 0f00 	teq	r4, #0
 800046a:	f483 1380 	eor.w	r3, r3, #1048576	; 0x100000
 800046e:	bf06      	itte	eq
 8000470:	f481 1180 	eoreq.w	r1, r1, #1048576	; 0x100000
 8000474:	3401      	addeq	r4, #1
 8000476:	3d01      	subne	r5, #1
 8000478:	e74e      	b.n	8000318 <__adddf3+0x8c>
 800047a:	ea7f 5c64 	mvns.w	ip, r4, asr #21
 800047e:	bf18      	it	ne
 8000480:	ea7f 5c65 	mvnsne.w	ip, r5, asr #21
 8000484:	d029      	beq.n	80004da <__adddf3+0x24e>
 8000486:	ea94 0f05 	teq	r4, r5
 800048a:	bf08      	it	eq
 800048c:	ea90 0f02 	teqeq	r0, r2
 8000490:	d005      	beq.n	800049e <__adddf3+0x212>
 8000492:	ea54 0c00 	orrs.w	ip, r4, r0
 8000496:	bf04      	itt	eq
 8000498:	4619      	moveq	r1, r3
 800049a:	4610      	moveq	r0, r2
 800049c:	bd30      	pop	{r4, r5, pc}
 800049e:	ea91 0f03 	teq	r1, r3
 80004a2:	bf1e      	ittt	ne
 80004a4:	2100      	movne	r1, #0
 80004a6:	2000      	movne	r0, #0
 80004a8:	bd30      	popne	{r4, r5, pc}
 80004aa:	ea5f 5c54 	movs.w	ip, r4, lsr #21
 80004ae:	d105      	bne.n	80004bc <__adddf3+0x230>
 80004b0:	0040      	lsls	r0, r0, #1
 80004b2:	4149      	adcs	r1, r1
 80004b4:	bf28      	it	cs
 80004b6:	f041 4100 	orrcs.w	r1, r1, #2147483648	; 0x80000000
 80004ba:	bd30      	pop	{r4, r5, pc}
 80004bc:	f514 0480 	adds.w	r4, r4, #4194304	; 0x400000
 80004c0:	bf3c      	itt	cc
 80004c2:	f501 1180 	addcc.w	r1, r1, #1048576	; 0x100000
 80004c6:	bd30      	popcc	{r4, r5, pc}
 80004c8:	f001 4500 	and.w	r5, r1, #2147483648	; 0x80000000
 80004cc:	f045 41fe 	orr.w	r1, r5, #2130706432	; 0x7f000000
 80004d0:	f441 0170 	orr.w	r1, r1, #15728640	; 0xf00000
 80004d4:	f04f 0000 	mov.w	r0, #0
 80004d8:	bd30      	pop	{r4, r5, pc}
 80004da:	ea7f 5c64 	mvns.w	ip, r4, asr #21
 80004de:	bf1a      	itte	ne
 80004e0:	4619      	movne	r1, r3
 80004e2:	4610      	movne	r0, r2
 80004e4:	ea7f 5c65 	mvnseq.w	ip, r5, asr #21
 80004e8:	bf1c      	itt	ne
 80004ea:	460b      	movne	r3, r1
 80004ec:	4602      	movne	r2, r0
 80004ee:	ea50 3401 	orrs.w	r4, r0, r1, lsl #12
 80004f2:	bf06      	itte	eq
 80004f4:	ea52 3503 	orrseq.w	r5, r2, r3, lsl #12
 80004f8:	ea91 0f03 	teqeq	r1, r3
 80004fc:	f441 2100 	orrne.w	r1, r1, #524288	; 0x80000
 8000500:	bd30      	pop	{r4, r5, pc}
 8000502:	bf00      	nop

08000504 <__aeabi_ui2d>:
 8000504:	f090 0f00 	teq	r0, #0
 8000508:	bf04      	itt	eq
 800050a:	2100      	moveq	r1, #0
 800050c:	4770      	bxeq	lr
 800050e:	b530      	push	{r4, r5, lr}
 8000510:	f44f 6480 	mov.w	r4, #1024	; 0x400
 8000514:	f104 0432 	add.w	r4, r4, #50	; 0x32
 8000518:	f04f 0500 	mov.w	r5, #0
 800051c:	f04f 0100 	mov.w	r1, #0
 8000520:	e750      	b.n	80003c4 <__adddf3+0x138>
 8000522:	bf00      	nop

08000524 <__aeabi_i2d>:
 8000524:	f090 0f00 	teq	r0, #0
 8000528:	bf04      	itt	eq
 800052a:	2100      	moveq	r1, #0
 800052c:	4770      	bxeq	lr
 800052e:	b530      	push	{r4, r5, lr}
 8000530:	f44f 6480 	mov.w	r4, #1024	; 0x400
 8000534:	f104 0432 	add.w	r4, r4, #50	; 0x32
 8000538:	f010 4500 	ands.w	r5, r0, #2147483648	; 0x80000000
 800053c:	bf48      	it	mi
 800053e:	4240      	negmi	r0, r0
 8000540:	f04f 0100 	mov.w	r1, #0
 8000544:	e73e      	b.n	80003c4 <__adddf3+0x138>
 8000546:	bf00      	nop

08000548 <__aeabi_f2d>:
 8000548:	0042      	lsls	r2, r0, #1
 800054a:	ea4f 01e2 	mov.w	r1, r2, asr #3
 800054e:	ea4f 0131 	mov.w	r1, r1, rrx
 8000552:	ea4f 7002 	mov.w	r0, r2, lsl #28
 8000556:	bf1f      	itttt	ne
 8000558:	f012 437f 	andsne.w	r3, r2, #4278190080	; 0xff000000
 800055c:	f093 4f7f 	teqne	r3, #4278190080	; 0xff000000
 8000560:	f081 5160 	eorne.w	r1, r1, #939524096	; 0x38000000
 8000564:	4770      	bxne	lr
 8000566:	f032 427f 	bics.w	r2, r2, #4278190080	; 0xff000000
 800056a:	bf08      	it	eq
 800056c:	4770      	bxeq	lr
 800056e:	f093 4f7f 	teq	r3, #4278190080	; 0xff000000
 8000572:	bf04      	itt	eq
 8000574:	f441 2100 	orreq.w	r1, r1, #524288	; 0x80000
 8000578:	4770      	bxeq	lr
 800057a:	b530      	push	{r4, r5, lr}
 800057c:	f44f 7460 	mov.w	r4, #896	; 0x380
 8000580:	f001 4500 	and.w	r5, r1, #2147483648	; 0x80000000
 8000584:	f021 4100 	bic.w	r1, r1, #2147483648	; 0x80000000
 8000588:	e71c      	b.n	80003c4 <__adddf3+0x138>
 800058a:	bf00      	nop

0800058c <__aeabi_ul2d>:
 800058c:	ea50 0201 	orrs.w	r2, r0, r1
 8000590:	bf08      	it	eq
 8000592:	4770      	bxeq	lr
 8000594:	b530      	push	{r4, r5, lr}
 8000596:	f04f 0500 	mov.w	r5, #0
 800059a:	e00a      	b.n	80005b2 <__aeabi_l2d+0x16>

0800059c <__aeabi_l2d>:
 800059c:	ea50 0201 	orrs.w	r2, r0, r1
 80005a0:	bf08      	it	eq
 80005a2:	4770      	bxeq	lr
 80005a4:	b530      	push	{r4, r5, lr}
 80005a6:	f011 4500 	ands.w	r5, r1, #2147483648	; 0x80000000
 80005aa:	d502      	bpl.n	80005b2 <__aeabi_l2d+0x16>
 80005ac:	4240      	negs	r0, r0
 80005ae:	eb61 0141 	sbc.w	r1, r1, r1, lsl #1
 80005b2:	f44f 6480 	mov.w	r4, #1024	; 0x400
 80005b6:	f104 0432 	add.w	r4, r4, #50	; 0x32
 80005ba:	ea5f 5c91 	movs.w	ip, r1, lsr #22
 80005be:	f43f aed8 	beq.w	8000372 <__adddf3+0xe6>
 80005c2:	f04f 0203 	mov.w	r2, #3
 80005c6:	ea5f 0cdc 	movs.w	ip, ip, lsr #3
 80005ca:	bf18      	it	ne
 80005cc:	3203      	addne	r2, #3
 80005ce:	ea5f 0cdc 	movs.w	ip, ip, lsr #3
 80005d2:	bf18      	it	ne
 80005d4:	3203      	addne	r2, #3
 80005d6:	eb02 02dc 	add.w	r2, r2, ip, lsr #3
 80005da:	f1c2 0320 	rsb	r3, r2, #32
 80005de:	fa00 fc03 	lsl.w	ip, r0, r3
 80005e2:	fa20 f002 	lsr.w	r0, r0, r2
 80005e6:	fa01 fe03 	lsl.w	lr, r1, r3
 80005ea:	ea40 000e 	orr.w	r0, r0, lr
 80005ee:	fa21 f102 	lsr.w	r1, r1, r2
 80005f2:	4414      	add	r4, r2
 80005f4:	e6bd      	b.n	8000372 <__adddf3+0xe6>
 80005f6:	bf00      	nop

080005f8 <__aeabi_dmul>:
 80005f8:	b570      	push	{r4, r5, r6, lr}
 80005fa:	f04f 0cff 	mov.w	ip, #255	; 0xff
 80005fe:	f44c 6ce0 	orr.w	ip, ip, #1792	; 0x700
 8000602:	ea1c 5411 	ands.w	r4, ip, r1, lsr #20
 8000606:	bf1d      	ittte	ne
 8000608:	ea1c 5513 	andsne.w	r5, ip, r3, lsr #20
 800060c:	ea94 0f0c 	teqne	r4, ip
 8000610:	ea95 0f0c 	teqne	r5, ip
 8000614:	f000 f8de 	bleq	80007d4 <__aeabi_dmul+0x1dc>
 8000618:	442c      	add	r4, r5
 800061a:	ea81 0603 	eor.w	r6, r1, r3
 800061e:	ea21 514c 	bic.w	r1, r1, ip, lsl #21
 8000622:	ea23 534c 	bic.w	r3, r3, ip, lsl #21
 8000626:	ea50 3501 	orrs.w	r5, r0, r1, lsl #12
 800062a:	bf18      	it	ne
 800062c:	ea52 3503 	orrsne.w	r5, r2, r3, lsl #12
 8000630:	f441 1180 	orr.w	r1, r1, #1048576	; 0x100000
 8000634:	f443 1380 	orr.w	r3, r3, #1048576	; 0x100000
 8000638:	d038      	beq.n	80006ac <__aeabi_dmul+0xb4>
 800063a:	fba0 ce02 	umull	ip, lr, r0, r2
 800063e:	f04f 0500 	mov.w	r5, #0
 8000642:	fbe1 e502 	umlal	lr, r5, r1, r2
 8000646:	f006 4200 	and.w	r2, r6, #2147483648	; 0x80000000
 800064a:	fbe0 e503 	umlal	lr, r5, r0, r3
 800064e:	f04f 0600 	mov.w	r6, #0
 8000652:	fbe1 5603 	umlal	r5, r6, r1, r3
 8000656:	f09c 0f00 	teq	ip, #0
 800065a:	bf18      	it	ne
 800065c:	f04e 0e01 	orrne.w	lr, lr, #1
 8000660:	f1a4 04ff 	sub.w	r4, r4, #255	; 0xff
 8000664:	f5b6 7f00 	cmp.w	r6, #512	; 0x200
 8000668:	f564 7440 	sbc.w	r4, r4, #768	; 0x300
 800066c:	d204      	bcs.n	8000678 <__aeabi_dmul+0x80>
 800066e:	ea5f 0e4e 	movs.w	lr, lr, lsl #1
 8000672:	416d      	adcs	r5, r5
 8000674:	eb46 0606 	adc.w	r6, r6, r6
 8000678:	ea42 21c6 	orr.w	r1, r2, r6, lsl #11
 800067c:	ea41 5155 	orr.w	r1, r1, r5, lsr #21
 8000680:	ea4f 20c5 	mov.w	r0, r5, lsl #11
 8000684:	ea40 505e 	orr.w	r0, r0, lr, lsr #21
 8000688:	ea4f 2ece 	mov.w	lr, lr, lsl #11
 800068c:	f1b4 0cfd 	subs.w	ip, r4, #253	; 0xfd
 8000690:	bf88      	it	hi
 8000692:	f5bc 6fe0 	cmphi.w	ip, #1792	; 0x700
 8000696:	d81e      	bhi.n	80006d6 <__aeabi_dmul+0xde>
 8000698:	f1be 4f00 	cmp.w	lr, #2147483648	; 0x80000000
 800069c:	bf08      	it	eq
 800069e:	ea5f 0e50 	movseq.w	lr, r0, lsr #1
 80006a2:	f150 0000 	adcs.w	r0, r0, #0
 80006a6:	eb41 5104 	adc.w	r1, r1, r4, lsl #20
 80006aa:	bd70      	pop	{r4, r5, r6, pc}
 80006ac:	f006 4600 	and.w	r6, r6, #2147483648	; 0x80000000
 80006b0:	ea46 0101 	orr.w	r1, r6, r1
 80006b4:	ea40 0002 	orr.w	r0, r0, r2
 80006b8:	ea81 0103 	eor.w	r1, r1, r3
 80006bc:	ebb4 045c 	subs.w	r4, r4, ip, lsr #1
 80006c0:	bfc2      	ittt	gt
 80006c2:	ebd4 050c 	rsbsgt	r5, r4, ip
 80006c6:	ea41 5104 	orrgt.w	r1, r1, r4, lsl #20
 80006ca:	bd70      	popgt	{r4, r5, r6, pc}
 80006cc:	f441 1180 	orr.w	r1, r1, #1048576	; 0x100000
 80006d0:	f04f 0e00 	mov.w	lr, #0
 80006d4:	3c01      	subs	r4, #1
 80006d6:	f300 80ab 	bgt.w	8000830 <__aeabi_dmul+0x238>
 80006da:	f114 0f36 	cmn.w	r4, #54	; 0x36
 80006de:	bfde      	ittt	le
 80006e0:	2000      	movle	r0, #0
 80006e2:	f001 4100 	andle.w	r1, r1, #2147483648	; 0x80000000
 80006e6:	bd70      	pople	{r4, r5, r6, pc}
 80006e8:	f1c4 0400 	rsb	r4, r4, #0
 80006ec:	3c20      	subs	r4, #32
 80006ee:	da35      	bge.n	800075c <__aeabi_dmul+0x164>
 80006f0:	340c      	adds	r4, #12
 80006f2:	dc1b      	bgt.n	800072c <__aeabi_dmul+0x134>
 80006f4:	f104 0414 	add.w	r4, r4, #20
 80006f8:	f1c4 0520 	rsb	r5, r4, #32
 80006fc:	fa00 f305 	lsl.w	r3, r0, r5
 8000700:	fa20 f004 	lsr.w	r0, r0, r4
 8000704:	fa01 f205 	lsl.w	r2, r1, r5
 8000708:	ea40 0002 	orr.w	r0, r0, r2
 800070c:	f001 4200 	and.w	r2, r1, #2147483648	; 0x80000000
 8000710:	f021 4100 	bic.w	r1, r1, #2147483648	; 0x80000000
 8000714:	eb10 70d3 	adds.w	r0, r0, r3, lsr #31
 8000718:	fa21 f604 	lsr.w	r6, r1, r4
 800071c:	eb42 0106 	adc.w	r1, r2, r6
 8000720:	ea5e 0e43 	orrs.w	lr, lr, r3, lsl #1
 8000724:	bf08      	it	eq
 8000726:	ea20 70d3 	biceq.w	r0, r0, r3, lsr #31
 800072a:	bd70      	pop	{r4, r5, r6, pc}
 800072c:	f1c4 040c 	rsb	r4, r4, #12
 8000730:	f1c4 0520 	rsb	r5, r4, #32
 8000734:	fa00 f304 	lsl.w	r3, r0, r4
 8000738:	fa20 f005 	lsr.w	r0, r0, r5
 800073c:	fa01 f204 	lsl.w	r2, r1, r4
 8000740:	ea40 0002 	orr.w	r0, r0, r2
 8000744:	f001 4100 	and.w	r1, r1, #2147483648	; 0x80000000
 8000748:	eb10 70d3 	adds.w	r0, r0, r3, lsr #31
 800074c:	f141 0100 	adc.w	r1, r1, #0
 8000750:	ea5e 0e43 	orrs.w	lr, lr, r3, lsl #1
 8000754:	bf08      	it	eq
 8000756:	ea20 70d3 	biceq.w	r0, r0, r3, lsr #31
 800075a:	bd70      	pop	{r4, r5, r6, pc}
 800075c:	f1c4 0520 	rsb	r5, r4, #32
 8000760:	fa00 f205 	lsl.w	r2, r0, r5
 8000764:	ea4e 0e02 	orr.w	lr, lr, r2
 8000768:	fa20 f304 	lsr.w	r3, r0, r4
 800076c:	fa01 f205 	lsl.w	r2, r1, r5
 8000770:	ea43 0302 	orr.w	r3, r3, r2
 8000774:	fa21 f004 	lsr.w	r0, r1, r4
 8000778:	f001 4100 	and.w	r1, r1, #2147483648	; 0x80000000
 800077c:	fa21 f204 	lsr.w	r2, r1, r4
 8000780:	ea20 0002 	bic.w	r0, r0, r2
 8000784:	eb00 70d3 	add.w	r0, r0, r3, lsr #31
 8000788:	ea5e 0e43 	orrs.w	lr, lr, r3, lsl #1
 800078c:	bf08      	it	eq
 800078e:	ea20 70d3 	biceq.w	r0, r0, r3, lsr #31
 8000792:	bd70      	pop	{r4, r5, r6, pc}
 8000794:	f094 0f00 	teq	r4, #0
 8000798:	d10f      	bne.n	80007ba <__aeabi_dmul+0x1c2>
 800079a:	f001 4600 	and.w	r6, r1, #2147483648	; 0x80000000
 800079e:	0040      	lsls	r0, r0, #1
 80007a0:	eb41 0101 	adc.w	r1, r1, r1
 80007a4:	f411 1f80 	tst.w	r1, #1048576	; 0x100000
 80007a8:	bf08      	it	eq
 80007aa:	3c01      	subeq	r4, #1
 80007ac:	d0f7      	beq.n	800079e <__aeabi_dmul+0x1a6>
 80007ae:	ea41 0106 	orr.w	r1, r1, r6
 80007b2:	f095 0f00 	teq	r5, #0
 80007b6:	bf18      	it	ne
 80007b8:	4770      	bxne	lr
 80007ba:	f003 4600 	and.w	r6, r3, #2147483648	; 0x80000000
 80007be:	0052      	lsls	r2, r2, #1
 80007c0:	eb43 0303 	adc.w	r3, r3, r3
 80007c4:	f413 1f80 	tst.w	r3, #1048576	; 0x100000
 80007c8:	bf08      	it	eq
 80007ca:	3d01      	subeq	r5, #1
 80007cc:	d0f7      	beq.n	80007be <__aeabi_dmul+0x1c6>
 80007ce:	ea43 0306 	orr.w	r3, r3, r6
 80007d2:	4770      	bx	lr
 80007d4:	ea94 0f0c 	teq	r4, ip
 80007d8:	ea0c 5513 	and.w	r5, ip, r3, lsr #20
 80007dc:	bf18      	it	ne
 80007de:	ea95 0f0c 	teqne	r5, ip
 80007e2:	d00c      	beq.n	80007fe <__aeabi_dmul+0x206>
 80007e4:	ea50 0641 	orrs.w	r6, r0, r1, lsl #1
 80007e8:	bf18      	it	ne
 80007ea:	ea52 0643 	orrsne.w	r6, r2, r3, lsl #1
 80007ee:	d1d1      	bne.n	8000794 <__aeabi_dmul+0x19c>
 80007f0:	ea81 0103 	eor.w	r1, r1, r3
 80007f4:	f001 4100 	and.w	r1, r1, #2147483648	; 0x80000000
 80007f8:	f04f 0000 	mov.w	r0, #0
 80007fc:	bd70      	pop	{r4, r5, r6, pc}
 80007fe:	ea50 0641 	orrs.w	r6, r0, r1, lsl #1
 8000802:	bf06      	itte	eq
 8000804:	4610      	moveq	r0, r2
 8000806:	4619      	moveq	r1, r3
 8000808:	ea52 0643 	orrsne.w	r6, r2, r3, lsl #1
 800080c:	d019      	beq.n	8000842 <__aeabi_dmul+0x24a>
 800080e:	ea94 0f0c 	teq	r4, ip
 8000812:	d102      	bne.n	800081a <__aeabi_dmul+0x222>
 8000814:	ea50 3601 	orrs.w	r6, r0, r1, lsl #12
 8000818:	d113      	bne.n	8000842 <__aeabi_dmul+0x24a>
 800081a:	ea95 0f0c 	teq	r5, ip
 800081e:	d105      	bne.n	800082c <__aeabi_dmul+0x234>
 8000820:	ea52 3603 	orrs.w	r6, r2, r3, lsl #12
 8000824:	bf1c      	itt	ne
 8000826:	4610      	movne	r0, r2
 8000828:	4619      	movne	r1, r3
 800082a:	d10a      	bne.n	8000842 <__aeabi_dmul+0x24a>
 800082c:	ea81 0103 	eor.w	r1, r1, r3
 8000830:	f001 4100 	and.w	r1, r1, #2147483648	; 0x80000000
 8000834:	f041 41fe 	orr.w	r1, r1, #2130706432	; 0x7f000000
 8000838:	f441 0170 	orr.w	r1, r1, #15728640	; 0xf00000
 800083c:	f04f 0000 	mov.w	r0, #0
 8000840:	bd70      	pop	{r4, r5, r6, pc}
 8000842:	f041 41fe 	orr.w	r1, r1, #2130706432	; 0x7f000000
 8000846:	f441 0178 	orr.w	r1, r1, #16252928	; 0xf80000
 800084a:	bd70      	pop	{r4, r5, r6, pc}

0800084c <__aeabi_ddiv>:
 800084c:	b570      	push	{r4, r5, r6, lr}
 800084e:	f04f 0cff 	mov.w	ip, #255	; 0xff
 8000852:	f44c 6ce0 	orr.w	ip, ip, #1792	; 0x700
 8000856:	ea1c 5411 	ands.w	r4, ip, r1, lsr #20
 800085a:	bf1d      	ittte	ne
 800085c:	ea1c 5513 	andsne.w	r5, ip, r3, lsr #20
 8000860:	ea94 0f0c 	teqne	r4, ip
 8000864:	ea95 0f0c 	teqne	r5, ip
 8000868:	f000 f8a7 	bleq	80009ba <__aeabi_ddiv+0x16e>
 800086c:	eba4 0405 	sub.w	r4, r4, r5
 8000870:	ea81 0e03 	eor.w	lr, r1, r3
 8000874:	ea52 3503 	orrs.w	r5, r2, r3, lsl #12
 8000878:	ea4f 3101 	mov.w	r1, r1, lsl #12
 800087c:	f000 8088 	beq.w	8000990 <__aeabi_ddiv+0x144>
 8000880:	ea4f 3303 	mov.w	r3, r3, lsl #12
 8000884:	f04f 5580 	mov.w	r5, #268435456	; 0x10000000
 8000888:	ea45 1313 	orr.w	r3, r5, r3, lsr #4
 800088c:	ea43 6312 	orr.w	r3, r3, r2, lsr #24
 8000890:	ea4f 2202 	mov.w	r2, r2, lsl #8
 8000894:	ea45 1511 	orr.w	r5, r5, r1, lsr #4
 8000898:	ea45 6510 	orr.w	r5, r5, r0, lsr #24
 800089c:	ea4f 2600 	mov.w	r6, r0, lsl #8
 80008a0:	f00e 4100 	and.w	r1, lr, #2147483648	; 0x80000000
 80008a4:	429d      	cmp	r5, r3
 80008a6:	bf08      	it	eq
 80008a8:	4296      	cmpeq	r6, r2
 80008aa:	f144 04fd 	adc.w	r4, r4, #253	; 0xfd
 80008ae:	f504 7440 	add.w	r4, r4, #768	; 0x300
 80008b2:	d202      	bcs.n	80008ba <__aeabi_ddiv+0x6e>
 80008b4:	085b      	lsrs	r3, r3, #1
 80008b6:	ea4f 0232 	mov.w	r2, r2, rrx
 80008ba:	1ab6      	subs	r6, r6, r2
 80008bc:	eb65 0503 	sbc.w	r5, r5, r3
 80008c0:	085b      	lsrs	r3, r3, #1
 80008c2:	ea4f 0232 	mov.w	r2, r2, rrx
 80008c6:	f44f 1080 	mov.w	r0, #1048576	; 0x100000
 80008ca:	f44f 2c00 	mov.w	ip, #524288	; 0x80000
 80008ce:	ebb6 0e02 	subs.w	lr, r6, r2
 80008d2:	eb75 0e03 	sbcs.w	lr, r5, r3
 80008d6:	bf22      	ittt	cs
 80008d8:	1ab6      	subcs	r6, r6, r2
 80008da:	4675      	movcs	r5, lr
 80008dc:	ea40 000c 	orrcs.w	r0, r0, ip
 80008e0:	085b      	lsrs	r3, r3, #1
 80008e2:	ea4f 0232 	mov.w	r2, r2, rrx
 80008e6:	ebb6 0e02 	subs.w	lr, r6, r2
 80008ea:	eb75 0e03 	sbcs.w	lr, r5, r3
 80008ee:	bf22      	ittt	cs
 80008f0:	1ab6      	subcs	r6, r6, r2
 80008f2:	4675      	movcs	r5, lr
 80008f4:	ea40 005c 	orrcs.w	r0, r0, ip, lsr #1
 80008f8:	085b      	lsrs	r3, r3, #1
 80008fa:	ea4f 0232 	mov.w	r2, r2, rrx
 80008fe:	ebb6 0e02 	subs.w	lr, r6, r2
 8000902:	eb75 0e03 	sbcs.w	lr, r5, r3
 8000906:	bf22      	ittt	cs
 8000908:	1ab6      	subcs	r6, r6, r2
 800090a:	4675      	movcs	r5, lr
 800090c:	ea40 009c 	orrcs.w	r0, r0, ip, lsr #2
 8000910:	085b      	lsrs	r3, r3, #1
 8000912:	ea4f 0232 	mov.w	r2, r2, rrx
 8000916:	ebb6 0e02 	subs.w	lr, r6, r2
 800091a:	eb75 0e03 	sbcs.w	lr, r5, r3
 800091e:	bf22      	ittt	cs
 8000920:	1ab6      	subcs	r6, r6, r2
 8000922:	4675      	movcs	r5, lr
 8000924:	ea40 00dc 	orrcs.w	r0, r0, ip, lsr #3
 8000928:	ea55 0e06 	orrs.w	lr, r5, r6
 800092c:	d018      	beq.n	8000960 <__aeabi_ddiv+0x114>
 800092e:	ea4f 1505 	mov.w	r5, r5, lsl #4
 8000932:	ea45 7516 	orr.w	r5, r5, r6, lsr #28
 8000936:	ea4f 1606 	mov.w	r6, r6, lsl #4
 800093a:	ea4f 03c3 	mov.w	r3, r3, lsl #3
 800093e:	ea43 7352 	orr.w	r3, r3, r2, lsr #29
 8000942:	ea4f 02c2 	mov.w	r2, r2, lsl #3
 8000946:	ea5f 1c1c 	movs.w	ip, ip, lsr #4
 800094a:	d1c0      	bne.n	80008ce <__aeabi_ddiv+0x82>
 800094c:	f411 1f80 	tst.w	r1, #1048576	; 0x100000
 8000950:	d10b      	bne.n	800096a <__aeabi_ddiv+0x11e>
 8000952:	ea41 0100 	orr.w	r1, r1, r0
 8000956:	f04f 0000 	mov.w	r0, #0
 800095a:	f04f 4c00 	mov.w	ip, #2147483648	; 0x80000000
 800095e:	e7b6      	b.n	80008ce <__aeabi_ddiv+0x82>
 8000960:	f411 1f80 	tst.w	r1, #1048576	; 0x100000
 8000964:	bf04      	itt	eq
 8000966:	4301      	orreq	r1, r0
 8000968:	2000      	moveq	r0, #0
 800096a:	f1b4 0cfd 	subs.w	ip, r4, #253	; 0xfd
 800096e:	bf88      	it	hi
 8000970:	f5bc 6fe0 	cmphi.w	ip, #1792	; 0x700
 8000974:	f63f aeaf 	bhi.w	80006d6 <__aeabi_dmul+0xde>
 8000978:	ebb5 0c03 	subs.w	ip, r5, r3
 800097c:	bf04      	itt	eq
 800097e:	ebb6 0c02 	subseq.w	ip, r6, r2
 8000982:	ea5f 0c50 	movseq.w	ip, r0, lsr #1
 8000986:	f150 0000 	adcs.w	r0, r0, #0
 800098a:	eb41 5104 	adc.w	r1, r1, r4, lsl #20
 800098e:	bd70      	pop	{r4, r5, r6, pc}
 8000990:	f00e 4e00 	and.w	lr, lr, #2147483648	; 0x80000000
 8000994:	ea4e 3111 	orr.w	r1, lr, r1, lsr #12
 8000998:	eb14 045c 	adds.w	r4, r4, ip, lsr #1
 800099c:	bfc2      	ittt	gt
 800099e:	ebd4 050c 	rsbsgt	r5, r4, ip
 80009a2:	ea41 5104 	orrgt.w	r1, r1, r4, lsl #20
 80009a6:	bd70      	popgt	{r4, r5, r6, pc}
 80009a8:	f441 1180 	orr.w	r1, r1, #1048576	; 0x100000
 80009ac:	f04f 0e00 	mov.w	lr, #0
 80009b0:	3c01      	subs	r4, #1
 80009b2:	e690      	b.n	80006d6 <__aeabi_dmul+0xde>
 80009b4:	ea45 0e06 	orr.w	lr, r5, r6
 80009b8:	e68d      	b.n	80006d6 <__aeabi_dmul+0xde>
 80009ba:	ea0c 5513 	and.w	r5, ip, r3, lsr #20
 80009be:	ea94 0f0c 	teq	r4, ip
 80009c2:	bf08      	it	eq
 80009c4:	ea95 0f0c 	teqeq	r5, ip
 80009c8:	f43f af3b 	beq.w	8000842 <__aeabi_dmul+0x24a>
 80009cc:	ea94 0f0c 	teq	r4, ip
 80009d0:	d10a      	bne.n	80009e8 <__aeabi_ddiv+0x19c>
 80009d2:	ea50 3401 	orrs.w	r4, r0, r1, lsl #12
 80009d6:	f47f af34 	bne.w	8000842 <__aeabi_dmul+0x24a>
 80009da:	ea95 0f0c 	teq	r5, ip
 80009de:	f47f af25 	bne.w	800082c <__aeabi_dmul+0x234>
 80009e2:	4610      	mov	r0, r2
 80009e4:	4619      	mov	r1, r3
 80009e6:	e72c      	b.n	8000842 <__aeabi_dmul+0x24a>
 80009e8:	ea95 0f0c 	teq	r5, ip
 80009ec:	d106      	bne.n	80009fc <__aeabi_ddiv+0x1b0>
 80009ee:	ea52 3503 	orrs.w	r5, r2, r3, lsl #12
 80009f2:	f43f aefd 	beq.w	80007f0 <__aeabi_dmul+0x1f8>
 80009f6:	4610      	mov	r0, r2
 80009f8:	4619      	mov	r1, r3
 80009fa:	e722      	b.n	8000842 <__aeabi_dmul+0x24a>
 80009fc:	ea50 0641 	orrs.w	r6, r0, r1, lsl #1
 8000a00:	bf18      	it	ne
 8000a02:	ea52 0643 	orrsne.w	r6, r2, r3, lsl #1
 8000a06:	f47f aec5 	bne.w	8000794 <__aeabi_dmul+0x19c>
 8000a0a:	ea50 0441 	orrs.w	r4, r0, r1, lsl #1
 8000a0e:	f47f af0d 	bne.w	800082c <__aeabi_dmul+0x234>
 8000a12:	ea52 0543 	orrs.w	r5, r2, r3, lsl #1
 8000a16:	f47f aeeb 	bne.w	80007f0 <__aeabi_dmul+0x1f8>
 8000a1a:	e712      	b.n	8000842 <__aeabi_dmul+0x24a>

08000a1c <__gedf2>:
 8000a1c:	f04f 3cff 	mov.w	ip, #4294967295
 8000a20:	e006      	b.n	8000a30 <__cmpdf2+0x4>
 8000a22:	bf00      	nop

08000a24 <__ledf2>:
 8000a24:	f04f 0c01 	mov.w	ip, #1
 8000a28:	e002      	b.n	8000a30 <__cmpdf2+0x4>
 8000a2a:	bf00      	nop

08000a2c <__cmpdf2>:
 8000a2c:	f04f 0c01 	mov.w	ip, #1
 8000a30:	f84d cd04 	str.w	ip, [sp, #-4]!
 8000a34:	ea4f 0c41 	mov.w	ip, r1, lsl #1
 8000a38:	ea7f 5c6c 	mvns.w	ip, ip, asr #21
 8000a3c:	ea4f 0c43 	mov.w	ip, r3, lsl #1
 8000a40:	bf18      	it	ne
 8000a42:	ea7f 5c6c 	mvnsne.w	ip, ip, asr #21
 8000a46:	d01b      	beq.n	8000a80 <__cmpdf2+0x54>
 8000a48:	b001      	add	sp, #4
 8000a4a:	ea50 0c41 	orrs.w	ip, r0, r1, lsl #1
 8000a4e:	bf0c      	ite	eq
 8000a50:	ea52 0c43 	orrseq.w	ip, r2, r3, lsl #1
 8000a54:	ea91 0f03 	teqne	r1, r3
 8000a58:	bf02      	ittt	eq
 8000a5a:	ea90 0f02 	teqeq	r0, r2
 8000a5e:	2000      	moveq	r0, #0
 8000a60:	4770      	bxeq	lr
 8000a62:	f110 0f00 	cmn.w	r0, #0
 8000a66:	ea91 0f03 	teq	r1, r3
 8000a6a:	bf58      	it	pl
 8000a6c:	4299      	cmppl	r1, r3
 8000a6e:	bf08      	it	eq
 8000a70:	4290      	cmpeq	r0, r2
 8000a72:	bf2c      	ite	cs
 8000a74:	17d8      	asrcs	r0, r3, #31
 8000a76:	ea6f 70e3 	mvncc.w	r0, r3, asr #31
 8000a7a:	f040 0001 	orr.w	r0, r0, #1
 8000a7e:	4770      	bx	lr
 8000a80:	ea4f 0c41 	mov.w	ip, r1, lsl #1
 8000a84:	ea7f 5c6c 	mvns.w	ip, ip, asr #21
 8000a88:	d102      	bne.n	8000a90 <__cmpdf2+0x64>
 8000a8a:	ea50 3c01 	orrs.w	ip, r0, r1, lsl #12
 8000a8e:	d107      	bne.n	8000aa0 <__cmpdf2+0x74>
 8000a90:	ea4f 0c43 	mov.w	ip, r3, lsl #1
 8000a94:	ea7f 5c6c 	mvns.w	ip, ip, asr #21
 8000a98:	d1d6      	bne.n	8000a48 <__cmpdf2+0x1c>
 8000a9a:	ea52 3c03 	orrs.w	ip, r2, r3, lsl #12
 8000a9e:	d0d3      	beq.n	8000a48 <__cmpdf2+0x1c>
 8000aa0:	f85d 0b04 	ldr.w	r0, [sp], #4
 8000aa4:	4770      	bx	lr
 8000aa6:	bf00      	nop

08000aa8 <__aeabi_cdrcmple>:
 8000aa8:	4684      	mov	ip, r0
 8000aaa:	4610      	mov	r0, r2
 8000aac:	4662      	mov	r2, ip
 8000aae:	468c      	mov	ip, r1
 8000ab0:	4619      	mov	r1, r3
 8000ab2:	4663      	mov	r3, ip
 8000ab4:	e000      	b.n	8000ab8 <__aeabi_cdcmpeq>
 8000ab6:	bf00      	nop

08000ab8 <__aeabi_cdcmpeq>:
 8000ab8:	b501      	push	{r0, lr}
 8000aba:	f7ff ffb7 	bl	8000a2c <__cmpdf2>
 8000abe:	2800      	cmp	r0, #0
 8000ac0:	bf48      	it	mi
 8000ac2:	f110 0f00 	cmnmi.w	r0, #0
 8000ac6:	bd01      	pop	{r0, pc}

08000ac8 <__aeabi_dcmpeq>:
 8000ac8:	f84d ed08 	str.w	lr, [sp, #-8]!
 8000acc:	f7ff fff4 	bl	8000ab8 <__aeabi_cdcmpeq>
 8000ad0:	bf0c      	ite	eq
 8000ad2:	2001      	moveq	r0, #1
 8000ad4:	2000      	movne	r0, #0
 8000ad6:	f85d fb08 	ldr.w	pc, [sp], #8
 8000ada:	bf00      	nop

08000adc <__aeabi_dcmplt>:
 8000adc:	f84d ed08 	str.w	lr, [sp, #-8]!
 8000ae0:	f7ff ffea 	bl	8000ab8 <__aeabi_cdcmpeq>
 8000ae4:	bf34      	ite	cc
 8000ae6:	2001      	movcc	r0, #1
 8000ae8:	2000      	movcs	r0, #0
 8000aea:	f85d fb08 	ldr.w	pc, [sp], #8
 8000aee:	bf00      	nop

08000af0 <__aeabi_dcmple>:
 8000af0:	f84d ed08 	str.w	lr, [sp, #-8]!
 8000af4:	f7ff ffe0 	bl	8000ab8 <__aeabi_cdcmpeq>
 8000af8:	bf94      	ite	ls
 8000afa:	2001      	movls	r0, #1
 8000afc:	2000      	movhi	r0, #0
 8000afe:	f85d fb08 	ldr.w	pc, [sp], #8
 8000b02:	bf00      	nop

08000b04 <__aeabi_dcmpge>:
 8000b04:	f84d ed08 	str.w	lr, [sp, #-8]!
 8000b08:	f7ff ffce 	bl	8000aa8 <__aeabi_cdrcmple>
 8000b0c:	bf94      	ite	ls
 8000b0e:	2001      	movls	r0, #1
 8000b10:	2000      	movhi	r0, #0
 8000b12:	f85d fb08 	ldr.w	pc, [sp], #8
 8000b16:	bf00      	nop

08000b18 <__aeabi_dcmpgt>:
 8000b18:	f84d ed08 	str.w	lr, [sp, #-8]!
 8000b1c:	f7ff ffc4 	bl	8000aa8 <__aeabi_cdrcmple>
 8000b20:	bf34      	ite	cc
 8000b22:	2001      	movcc	r0, #1
 8000b24:	2000      	movcs	r0, #0
 8000b26:	f85d fb08 	ldr.w	pc, [sp], #8
 8000b2a:	bf00      	nop

08000b2c <__aeabi_dcmpun>:
 8000b2c:	ea4f 0c41 	mov.w	ip, r1, lsl #1
 8000b30:	ea7f 5c6c 	mvns.w	ip, ip, asr #21
 8000b34:	d102      	bne.n	8000b3c <__aeabi_dcmpun+0x10>
 8000b36:	ea50 3c01 	orrs.w	ip, r0, r1, lsl #12
 8000b3a:	d10a      	bne.n	8000b52 <__aeabi_dcmpun+0x26>
 8000b3c:	ea4f 0c43 	mov.w	ip, r3, lsl #1
 8000b40:	ea7f 5c6c 	mvns.w	ip, ip, asr #21
 8000b44:	d102      	bne.n	8000b4c <__aeabi_dcmpun+0x20>
 8000b46:	ea52 3c03 	orrs.w	ip, r2, r3, lsl #12
 8000b4a:	d102      	bne.n	8000b52 <__aeabi_dcmpun+0x26>
 8000b4c:	f04f 0000 	mov.w	r0, #0
 8000b50:	4770      	bx	lr
 8000b52:	f04f 0001 	mov.w	r0, #1
 8000b56:	4770      	bx	lr

08000b58 <__aeabi_d2iz>:
 8000b58:	ea4f 0241 	mov.w	r2, r1, lsl #1
 8000b5c:	f512 1200 	adds.w	r2, r2, #2097152	; 0x200000
 8000b60:	d215      	bcs.n	8000b8e <__aeabi_d2iz+0x36>
 8000b62:	d511      	bpl.n	8000b88 <__aeabi_d2iz+0x30>
 8000b64:	f46f 7378 	mvn.w	r3, #992	; 0x3e0
 8000b68:	ebb3 5262 	subs.w	r2, r3, r2, asr #21
 8000b6c:	d912      	bls.n	8000b94 <__aeabi_d2iz+0x3c>
 8000b6e:	ea4f 23c1 	mov.w	r3, r1, lsl #11
 8000b72:	f043 4300 	orr.w	r3, r3, #2147483648	; 0x80000000
 8000b76:	ea43 5350 	orr.w	r3, r3, r0, lsr #21
 8000b7a:	f011 4f00 	tst.w	r1, #2147483648	; 0x80000000
 8000b7e:	fa23 f002 	lsr.w	r0, r3, r2
 8000b82:	bf18      	it	ne
 8000b84:	4240      	negne	r0, r0
 8000b86:	4770      	bx	lr
 8000b88:	f04f 0000 	mov.w	r0, #0
 8000b8c:	4770      	bx	lr
 8000b8e:	ea50 3001 	orrs.w	r0, r0, r1, lsl #12
 8000b92:	d105      	bne.n	8000ba0 <__aeabi_d2iz+0x48>
 8000b94:	f011 4000 	ands.w	r0, r1, #2147483648	; 0x80000000
 8000b98:	bf08      	it	eq
 8000b9a:	f06f 4000 	mvneq.w	r0, #2147483648	; 0x80000000
 8000b9e:	4770      	bx	lr
 8000ba0:	f04f 0000 	mov.w	r0, #0
 8000ba4:	4770      	bx	lr
 8000ba6:	bf00      	nop

08000ba8 <__aeabi_d2f>:
 8000ba8:	ea4f 0241 	mov.w	r2, r1, lsl #1
 8000bac:	f1b2 43e0 	subs.w	r3, r2, #1879048192	; 0x70000000
 8000bb0:	bf24      	itt	cs
 8000bb2:	f5b3 1c00 	subscs.w	ip, r3, #2097152	; 0x200000
 8000bb6:	f1dc 5cfe 	rsbscs	ip, ip, #532676608	; 0x1fc00000
 8000bba:	d90d      	bls.n	8000bd8 <__aeabi_d2f+0x30>
 8000bbc:	f001 4c00 	and.w	ip, r1, #2147483648	; 0x80000000
 8000bc0:	ea4f 02c0 	mov.w	r2, r0, lsl #3
 8000bc4:	ea4c 7050 	orr.w	r0, ip, r0, lsr #29
 8000bc8:	f1b2 4f00 	cmp.w	r2, #2147483648	; 0x80000000
 8000bcc:	eb40 0083 	adc.w	r0, r0, r3, lsl #2
 8000bd0:	bf08      	it	eq
 8000bd2:	f020 0001 	biceq.w	r0, r0, #1
 8000bd6:	4770      	bx	lr
 8000bd8:	f011 4f80 	tst.w	r1, #1073741824	; 0x40000000
 8000bdc:	d121      	bne.n	8000c22 <__aeabi_d2f+0x7a>
 8000bde:	f113 7238 	adds.w	r2, r3, #48234496	; 0x2e00000
 8000be2:	bfbc      	itt	lt
 8000be4:	f001 4000 	andlt.w	r0, r1, #2147483648	; 0x80000000
 8000be8:	4770      	bxlt	lr
 8000bea:	f441 1180 	orr.w	r1, r1, #1048576	; 0x100000
 8000bee:	ea4f 5252 	mov.w	r2, r2, lsr #21
 8000bf2:	f1c2 0218 	rsb	r2, r2, #24
 8000bf6:	f1c2 0c20 	rsb	ip, r2, #32
 8000bfa:	fa10 f30c 	lsls.w	r3, r0, ip
 8000bfe:	fa20 f002 	lsr.w	r0, r0, r2
 8000c02:	bf18      	it	ne
 8000c04:	f040 0001 	orrne.w	r0, r0, #1
 8000c08:	ea4f 23c1 	mov.w	r3, r1, lsl #11
 8000c0c:	ea4f 23d3 	mov.w	r3, r3, lsr #11
 8000c10:	fa03 fc0c 	lsl.w	ip, r3, ip
 8000c14:	ea40 000c 	orr.w	r0, r0, ip
 8000c18:	fa23 f302 	lsr.w	r3, r3, r2
 8000c1c:	ea4f 0343 	mov.w	r3, r3, lsl #1
 8000c20:	e7cc      	b.n	8000bbc <__aeabi_d2f+0x14>
 8000c22:	ea7f 5362 	mvns.w	r3, r2, asr #21
 8000c26:	d107      	bne.n	8000c38 <__aeabi_d2f+0x90>
 8000c28:	ea50 3301 	orrs.w	r3, r0, r1, lsl #12
 8000c2c:	bf1e      	ittt	ne
 8000c2e:	f04f 40fe 	movne.w	r0, #2130706432	; 0x7f000000
 8000c32:	f440 0040 	orrne.w	r0, r0, #12582912	; 0xc00000
 8000c36:	4770      	bxne	lr
 8000c38:	f001 4000 	and.w	r0, r1, #2147483648	; 0x80000000
 8000c3c:	f040 40fe 	orr.w	r0, r0, #2130706432	; 0x7f000000
 8000c40:	f440 0000 	orr.w	r0, r0, #8388608	; 0x800000
 8000c44:	4770      	bx	lr
 8000c46:	bf00      	nop

08000c48 <LiquidCrystal>:
uint8_t _numlines;
uint8_t _row_offsets[4];

void LiquidCrystal(GPIO_TypeDef *gpioport, uint16_t rs, uint16_t rw, uint16_t enable,
			     uint16_t d0, uint16_t d1, uint16_t d2, uint16_t d3)
{
 8000c48:	b580      	push	{r7, lr}
 8000c4a:	b08e      	sub	sp, #56	; 0x38
 8000c4c:	af0a      	add	r7, sp, #40	; 0x28
 8000c4e:	60f8      	str	r0, [r7, #12]
 8000c50:	4608      	mov	r0, r1
 8000c52:	4611      	mov	r1, r2
 8000c54:	461a      	mov	r2, r3
 8000c56:	4603      	mov	r3, r0
 8000c58:	817b      	strh	r3, [r7, #10]
 8000c5a:	460b      	mov	r3, r1
 8000c5c:	813b      	strh	r3, [r7, #8]
 8000c5e:	4613      	mov	r3, r2
 8000c60:	80fb      	strh	r3, [r7, #6]
  if(_fourbit_mode)
 8000c62:	4b1d      	ldr	r3, [pc, #116]	; (8000cd8 <LiquidCrystal+0x90>)
 8000c64:	781b      	ldrb	r3, [r3, #0]
 8000c66:	2b00      	cmp	r3, #0
 8000c68:	d019      	beq.n	8000c9e <LiquidCrystal+0x56>
    init(1, gpioport, rs, rw, enable, d0, d1, d2, d3, 0, 0, 0, 0);
 8000c6a:	8939      	ldrh	r1, [r7, #8]
 8000c6c:	897a      	ldrh	r2, [r7, #10]
 8000c6e:	2300      	movs	r3, #0
 8000c70:	9308      	str	r3, [sp, #32]
 8000c72:	2300      	movs	r3, #0
 8000c74:	9307      	str	r3, [sp, #28]
 8000c76:	2300      	movs	r3, #0
 8000c78:	9306      	str	r3, [sp, #24]
 8000c7a:	2300      	movs	r3, #0
 8000c7c:	9305      	str	r3, [sp, #20]
 8000c7e:	8cbb      	ldrh	r3, [r7, #36]	; 0x24
 8000c80:	9304      	str	r3, [sp, #16]
 8000c82:	8c3b      	ldrh	r3, [r7, #32]
 8000c84:	9303      	str	r3, [sp, #12]
 8000c86:	8bbb      	ldrh	r3, [r7, #28]
 8000c88:	9302      	str	r3, [sp, #8]
 8000c8a:	8b3b      	ldrh	r3, [r7, #24]
 8000c8c:	9301      	str	r3, [sp, #4]
 8000c8e:	88fb      	ldrh	r3, [r7, #6]
 8000c90:	9300      	str	r3, [sp, #0]
 8000c92:	460b      	mov	r3, r1
 8000c94:	68f9      	ldr	r1, [r7, #12]
 8000c96:	2001      	movs	r0, #1
 8000c98:	f000 f820 	bl	8000cdc <init>
  else
    init(0, gpioport, rs, rw, enable, d0, d1, d2, d3, 0, 0, 0, 0);
}
 8000c9c:	e018      	b.n	8000cd0 <LiquidCrystal+0x88>
    init(0, gpioport, rs, rw, enable, d0, d1, d2, d3, 0, 0, 0, 0);
 8000c9e:	8939      	ldrh	r1, [r7, #8]
 8000ca0:	897a      	ldrh	r2, [r7, #10]
 8000ca2:	2300      	movs	r3, #0
 8000ca4:	9308      	str	r3, [sp, #32]
 8000ca6:	2300      	movs	r3, #0
 8000ca8:	9307      	str	r3, [sp, #28]
 8000caa:	2300      	movs	r3, #0
 8000cac:	9306      	str	r3, [sp, #24]
 8000cae:	2300      	movs	r3, #0
 8000cb0:	9305      	str	r3, [sp, #20]
 8000cb2:	8cbb      	ldrh	r3, [r7, #36]	; 0x24
 8000cb4:	9304      	str	r3, [sp, #16]
 8000cb6:	8c3b      	ldrh	r3, [r7, #32]
 8000cb8:	9303      	str	r3, [sp, #12]
 8000cba:	8bbb      	ldrh	r3, [r7, #28]
 8000cbc:	9302      	str	r3, [sp, #8]
 8000cbe:	8b3b      	ldrh	r3, [r7, #24]
 8000cc0:	9301      	str	r3, [sp, #4]
 8000cc2:	88fb      	ldrh	r3, [r7, #6]
 8000cc4:	9300      	str	r3, [sp, #0]
 8000cc6:	460b      	mov	r3, r1
 8000cc8:	68f9      	ldr	r1, [r7, #12]
 8000cca:	2000      	movs	r0, #0
 8000ccc:	f000 f806 	bl	8000cdc <init>
}
 8000cd0:	bf00      	nop
 8000cd2:	3710      	adds	r7, #16
 8000cd4:	46bd      	mov	sp, r7
 8000cd6:	bd80      	pop	{r7, pc}
 8000cd8:	20000000 	.word	0x20000000

08000cdc <init>:

void init(uint8_t fourbitmode, GPIO_TypeDef *gpioport, uint16_t rs, uint16_t rw, uint16_t enable,
			 uint16_t d0, uint16_t d1, uint16_t d2, uint16_t d3,
			 uint16_t d4, uint16_t d5, uint16_t d6, uint16_t d7)
{
 8000cdc:	b580      	push	{r7, lr}
 8000cde:	b084      	sub	sp, #16
 8000ce0:	af00      	add	r7, sp, #0
 8000ce2:	60b9      	str	r1, [r7, #8]
 8000ce4:	4611      	mov	r1, r2
 8000ce6:	461a      	mov	r2, r3
 8000ce8:	4603      	mov	r3, r0
 8000cea:	73fb      	strb	r3, [r7, #15]
 8000cec:	460b      	mov	r3, r1
 8000cee:	81bb      	strh	r3, [r7, #12]
 8000cf0:	4613      	mov	r3, r2
 8000cf2:	80fb      	strh	r3, [r7, #6]
  _rs_pin = rs;
 8000cf4:	4a1a      	ldr	r2, [pc, #104]	; (8000d60 <init+0x84>)
 8000cf6:	89bb      	ldrh	r3, [r7, #12]
 8000cf8:	8013      	strh	r3, [r2, #0]
  _rw_pin = rw;
 8000cfa:	4a1a      	ldr	r2, [pc, #104]	; (8000d64 <init+0x88>)
 8000cfc:	88fb      	ldrh	r3, [r7, #6]
 8000cfe:	8013      	strh	r3, [r2, #0]
  _enable_pin = enable;
 8000d00:	4a19      	ldr	r2, [pc, #100]	; (8000d68 <init+0x8c>)
 8000d02:	8b3b      	ldrh	r3, [r7, #24]
 8000d04:	8013      	strh	r3, [r2, #0]
  _port = gpioport;
 8000d06:	4a19      	ldr	r2, [pc, #100]	; (8000d6c <init+0x90>)
 8000d08:	68bb      	ldr	r3, [r7, #8]
 8000d0a:	6013      	str	r3, [r2, #0]
  
  _data_pins[0] = d0;
 8000d0c:	4a18      	ldr	r2, [pc, #96]	; (8000d70 <init+0x94>)
 8000d0e:	8bbb      	ldrh	r3, [r7, #28]
 8000d10:	8013      	strh	r3, [r2, #0]
  _data_pins[1] = d1;
 8000d12:	4a17      	ldr	r2, [pc, #92]	; (8000d70 <init+0x94>)
 8000d14:	8c3b      	ldrh	r3, [r7, #32]
 8000d16:	8053      	strh	r3, [r2, #2]
  _data_pins[2] = d2;
 8000d18:	4a15      	ldr	r2, [pc, #84]	; (8000d70 <init+0x94>)
 8000d1a:	8cbb      	ldrh	r3, [r7, #36]	; 0x24
 8000d1c:	8093      	strh	r3, [r2, #4]
  _data_pins[3] = d3; 
 8000d1e:	4a14      	ldr	r2, [pc, #80]	; (8000d70 <init+0x94>)
 8000d20:	8d3b      	ldrh	r3, [r7, #40]	; 0x28
 8000d22:	80d3      	strh	r3, [r2, #6]
  _data_pins[4] = d4;
 8000d24:	4a12      	ldr	r2, [pc, #72]	; (8000d70 <init+0x94>)
 8000d26:	8dbb      	ldrh	r3, [r7, #44]	; 0x2c
 8000d28:	8113      	strh	r3, [r2, #8]
  _data_pins[5] = d5;
 8000d2a:	4a11      	ldr	r2, [pc, #68]	; (8000d70 <init+0x94>)
 8000d2c:	8e3b      	ldrh	r3, [r7, #48]	; 0x30
 8000d2e:	8153      	strh	r3, [r2, #10]
  _data_pins[6] = d6;
 8000d30:	4a0f      	ldr	r2, [pc, #60]	; (8000d70 <init+0x94>)
 8000d32:	8ebb      	ldrh	r3, [r7, #52]	; 0x34
 8000d34:	8193      	strh	r3, [r2, #12]
  _data_pins[7] = d7;
 8000d36:	4a0e      	ldr	r2, [pc, #56]	; (8000d70 <init+0x94>)
 8000d38:	8f3b      	ldrh	r3, [r7, #56]	; 0x38
 8000d3a:	81d3      	strh	r3, [r2, #14]

  if (fourbitmode)
 8000d3c:	7bfb      	ldrb	r3, [r7, #15]
 8000d3e:	2b00      	cmp	r3, #0
 8000d40:	d003      	beq.n	8000d4a <init+0x6e>
    _displayfunction = LCD_4BITMODE | LCD_1LINE | LCD_5x8DOTS;
 8000d42:	4b0c      	ldr	r3, [pc, #48]	; (8000d74 <init+0x98>)
 8000d44:	2200      	movs	r2, #0
 8000d46:	701a      	strb	r2, [r3, #0]
 8000d48:	e002      	b.n	8000d50 <init+0x74>
  else 
    _displayfunction = LCD_8BITMODE | LCD_1LINE | LCD_5x8DOTS;
 8000d4a:	4b0a      	ldr	r3, [pc, #40]	; (8000d74 <init+0x98>)
 8000d4c:	2210      	movs	r2, #16
 8000d4e:	701a      	strb	r2, [r3, #0]
  
  begin(16, 2);
 8000d50:	2102      	movs	r1, #2
 8000d52:	2010      	movs	r0, #16
 8000d54:	f000 f810 	bl	8000d78 <begin>
}
 8000d58:	bf00      	nop
 8000d5a:	3710      	adds	r7, #16
 8000d5c:	46bd      	mov	sp, r7
 8000d5e:	bd80      	pop	{r7, pc}
 8000d60:	200001fe 	.word	0x200001fe
 8000d64:	20000200 	.word	0x20000200
 8000d68:	20000202 	.word	0x20000202
 8000d6c:	20000214 	.word	0x20000214
 8000d70:	20000204 	.word	0x20000204
 8000d74:	20000218 	.word	0x20000218

08000d78 <begin>:

void begin(uint8_t cols, uint8_t lines) {
 8000d78:	b580      	push	{r7, lr}
 8000d7a:	b088      	sub	sp, #32
 8000d7c:	af00      	add	r7, sp, #0
 8000d7e:	4603      	mov	r3, r0
 8000d80:	460a      	mov	r2, r1
 8000d82:	71fb      	strb	r3, [r7, #7]
 8000d84:	4613      	mov	r3, r2
 8000d86:	71bb      	strb	r3, [r7, #6]
  if (lines > 1) {
 8000d88:	79bb      	ldrb	r3, [r7, #6]
 8000d8a:	2b01      	cmp	r3, #1
 8000d8c:	d906      	bls.n	8000d9c <begin+0x24>
    _displayfunction |= LCD_2LINE;
 8000d8e:	4b77      	ldr	r3, [pc, #476]	; (8000f6c <begin+0x1f4>)
 8000d90:	781b      	ldrb	r3, [r3, #0]
 8000d92:	f043 0308 	orr.w	r3, r3, #8
 8000d96:	b2da      	uxtb	r2, r3
 8000d98:	4b74      	ldr	r3, [pc, #464]	; (8000f6c <begin+0x1f4>)
 8000d9a:	701a      	strb	r2, [r3, #0]
  }
  _numlines = lines;
 8000d9c:	4a74      	ldr	r2, [pc, #464]	; (8000f70 <begin+0x1f8>)
 8000d9e:	79bb      	ldrb	r3, [r7, #6]
 8000da0:	7013      	strb	r3, [r2, #0]

  setRowOffsets(0x00, 0x40, 0x00 + cols, 0x40 + cols);  
 8000da2:	79fa      	ldrb	r2, [r7, #7]
 8000da4:	79fb      	ldrb	r3, [r7, #7]
 8000da6:	3340      	adds	r3, #64	; 0x40
 8000da8:	2140      	movs	r1, #64	; 0x40
 8000daa:	2000      	movs	r0, #0
 8000dac:	f000 f974 	bl	8001098 <setRowOffsets>

  // for some 1 line displays you can select a 10 pixel high font
  if ((dotsize != LCD_5x8DOTS) && (lines == 1)) {
 8000db0:	4b70      	ldr	r3, [pc, #448]	; (8000f74 <begin+0x1fc>)
 8000db2:	781b      	ldrb	r3, [r3, #0]
 8000db4:	2b00      	cmp	r3, #0
 8000db6:	d009      	beq.n	8000dcc <begin+0x54>
 8000db8:	79bb      	ldrb	r3, [r7, #6]
 8000dba:	2b01      	cmp	r3, #1
 8000dbc:	d106      	bne.n	8000dcc <begin+0x54>
    _displayfunction |= LCD_5x10DOTS;
 8000dbe:	4b6b      	ldr	r3, [pc, #428]	; (8000f6c <begin+0x1f4>)
 8000dc0:	781b      	ldrb	r3, [r3, #0]
 8000dc2:	f043 0304 	orr.w	r3, r3, #4
 8000dc6:	b2da      	uxtb	r2, r3
 8000dc8:	4b68      	ldr	r3, [pc, #416]	; (8000f6c <begin+0x1f4>)
 8000dca:	701a      	strb	r2, [r3, #0]
  }

  //Initializing GPIO Pins
  enableClock();
 8000dcc:	f000 f8e4 	bl	8000f98 <enableClock>
  
  GPIO_InitTypeDef gpio_init;
  gpio_init.Speed = GPIO_SPEED_FREQ_HIGH;
 8000dd0:	2303      	movs	r3, #3
 8000dd2:	61bb      	str	r3, [r7, #24]
  gpio_init.Mode = GPIO_MODE_OUTPUT_PP;
 8000dd4:	2301      	movs	r3, #1
 8000dd6:	613b      	str	r3, [r7, #16]

  if(_fourbit_mode)
 8000dd8:	4b67      	ldr	r3, [pc, #412]	; (8000f78 <begin+0x200>)
 8000dda:	781b      	ldrb	r3, [r3, #0]
 8000ddc:	2b00      	cmp	r3, #0
 8000dde:	d01b      	beq.n	8000e18 <begin+0xa0>
    gpio_init.Pin = _rs_pin | _rw_pin | _enable_pin | _data_pins[0] | _data_pins[1] | _data_pins[2] | _data_pins[3];
 8000de0:	4b66      	ldr	r3, [pc, #408]	; (8000f7c <begin+0x204>)
 8000de2:	881a      	ldrh	r2, [r3, #0]
 8000de4:	4b66      	ldr	r3, [pc, #408]	; (8000f80 <begin+0x208>)
 8000de6:	881b      	ldrh	r3, [r3, #0]
 8000de8:	4313      	orrs	r3, r2
 8000dea:	b29a      	uxth	r2, r3
 8000dec:	4b65      	ldr	r3, [pc, #404]	; (8000f84 <begin+0x20c>)
 8000dee:	881b      	ldrh	r3, [r3, #0]
 8000df0:	4313      	orrs	r3, r2
 8000df2:	b29a      	uxth	r2, r3
 8000df4:	4b64      	ldr	r3, [pc, #400]	; (8000f88 <begin+0x210>)
 8000df6:	881b      	ldrh	r3, [r3, #0]
 8000df8:	4313      	orrs	r3, r2
 8000dfa:	b29a      	uxth	r2, r3
 8000dfc:	4b62      	ldr	r3, [pc, #392]	; (8000f88 <begin+0x210>)
 8000dfe:	885b      	ldrh	r3, [r3, #2]
 8000e00:	4313      	orrs	r3, r2
 8000e02:	b29a      	uxth	r2, r3
 8000e04:	4b60      	ldr	r3, [pc, #384]	; (8000f88 <begin+0x210>)
 8000e06:	889b      	ldrh	r3, [r3, #4]
 8000e08:	4313      	orrs	r3, r2
 8000e0a:	b29a      	uxth	r2, r3
 8000e0c:	4b5e      	ldr	r3, [pc, #376]	; (8000f88 <begin+0x210>)
 8000e0e:	88db      	ldrh	r3, [r3, #6]
 8000e10:	4313      	orrs	r3, r2
 8000e12:	b29b      	uxth	r3, r3
 8000e14:	60fb      	str	r3, [r7, #12]
 8000e16:	e02a      	b.n	8000e6e <begin+0xf6>
  else
    gpio_init.Pin = _rs_pin | _rw_pin | _enable_pin | _data_pins[0] | _data_pins[1] | _data_pins[2] | _data_pins[3] |
                    _data_pins[4] | _data_pins[5] | _data_pins[6] | _data_pins[7];
 8000e18:	4b58      	ldr	r3, [pc, #352]	; (8000f7c <begin+0x204>)
 8000e1a:	881a      	ldrh	r2, [r3, #0]
 8000e1c:	4b58      	ldr	r3, [pc, #352]	; (8000f80 <begin+0x208>)
 8000e1e:	881b      	ldrh	r3, [r3, #0]
 8000e20:	4313      	orrs	r3, r2
 8000e22:	b29a      	uxth	r2, r3
 8000e24:	4b57      	ldr	r3, [pc, #348]	; (8000f84 <begin+0x20c>)
 8000e26:	881b      	ldrh	r3, [r3, #0]
 8000e28:	4313      	orrs	r3, r2
 8000e2a:	b29a      	uxth	r2, r3
    gpio_init.Pin = _rs_pin | _rw_pin | _enable_pin | _data_pins[0] | _data_pins[1] | _data_pins[2] | _data_pins[3] |
 8000e2c:	4b56      	ldr	r3, [pc, #344]	; (8000f88 <begin+0x210>)
 8000e2e:	881b      	ldrh	r3, [r3, #0]
                    _data_pins[4] | _data_pins[5] | _data_pins[6] | _data_pins[7];
 8000e30:	4313      	orrs	r3, r2
 8000e32:	b29a      	uxth	r2, r3
    gpio_init.Pin = _rs_pin | _rw_pin | _enable_pin | _data_pins[0] | _data_pins[1] | _data_pins[2] | _data_pins[3] |
 8000e34:	4b54      	ldr	r3, [pc, #336]	; (8000f88 <begin+0x210>)
 8000e36:	885b      	ldrh	r3, [r3, #2]
                    _data_pins[4] | _data_pins[5] | _data_pins[6] | _data_pins[7];
 8000e38:	4313      	orrs	r3, r2
 8000e3a:	b29a      	uxth	r2, r3
    gpio_init.Pin = _rs_pin | _rw_pin | _enable_pin | _data_pins[0] | _data_pins[1] | _data_pins[2] | _data_pins[3] |
 8000e3c:	4b52      	ldr	r3, [pc, #328]	; (8000f88 <begin+0x210>)
 8000e3e:	889b      	ldrh	r3, [r3, #4]
                    _data_pins[4] | _data_pins[5] | _data_pins[6] | _data_pins[7];
 8000e40:	4313      	orrs	r3, r2
 8000e42:	b29a      	uxth	r2, r3
    gpio_init.Pin = _rs_pin | _rw_pin | _enable_pin | _data_pins[0] | _data_pins[1] | _data_pins[2] | _data_pins[3] |
 8000e44:	4b50      	ldr	r3, [pc, #320]	; (8000f88 <begin+0x210>)
 8000e46:	88db      	ldrh	r3, [r3, #6]
                    _data_pins[4] | _data_pins[5] | _data_pins[6] | _data_pins[7];
 8000e48:	4313      	orrs	r3, r2
 8000e4a:	b29a      	uxth	r2, r3
 8000e4c:	4b4e      	ldr	r3, [pc, #312]	; (8000f88 <begin+0x210>)
 8000e4e:	891b      	ldrh	r3, [r3, #8]
 8000e50:	4313      	orrs	r3, r2
 8000e52:	b29a      	uxth	r2, r3
 8000e54:	4b4c      	ldr	r3, [pc, #304]	; (8000f88 <begin+0x210>)
 8000e56:	895b      	ldrh	r3, [r3, #10]
 8000e58:	4313      	orrs	r3, r2
 8000e5a:	b29a      	uxth	r2, r3
 8000e5c:	4b4a      	ldr	r3, [pc, #296]	; (8000f88 <begin+0x210>)
 8000e5e:	899b      	ldrh	r3, [r3, #12]
 8000e60:	4313      	orrs	r3, r2
 8000e62:	b29a      	uxth	r2, r3
 8000e64:	4b48      	ldr	r3, [pc, #288]	; (8000f88 <begin+0x210>)
 8000e66:	89db      	ldrh	r3, [r3, #14]
 8000e68:	4313      	orrs	r3, r2
 8000e6a:	b29b      	uxth	r3, r3
    gpio_init.Pin = _rs_pin | _rw_pin | _enable_pin | _data_pins[0] | _data_pins[1] | _data_pins[2] | _data_pins[3] |
 8000e6c:	60fb      	str	r3, [r7, #12]

  HAL_GPIO_Init(_port, &gpio_init);
 8000e6e:	4b47      	ldr	r3, [pc, #284]	; (8000f8c <begin+0x214>)
 8000e70:	681b      	ldr	r3, [r3, #0]
 8000e72:	f107 020c 	add.w	r2, r7, #12
 8000e76:	4611      	mov	r1, r2
 8000e78:	4618      	mov	r0, r3
 8000e7a:	f002 fb55 	bl	8003528 <HAL_GPIO_Init>

  // SEE PAGE 45/46 FOR INITIALIZATION SPECIFICATION!
  // according to datasheet, we need at least 40ms after power rises above 2.7V
  // so we'll wait 50 just to make sure
  HAL_Delay(50); 
 8000e7e:	2032      	movs	r0, #50	; 0x32
 8000e80:	f001 f842 	bl	8001f08 <HAL_Delay>

  // Now we pull both RS and R/W low to begin commands
  HAL_GPIO_WritePin(_port, _rs_pin, GPIO_PIN_RESET);
 8000e84:	4b41      	ldr	r3, [pc, #260]	; (8000f8c <begin+0x214>)
 8000e86:	681b      	ldr	r3, [r3, #0]
 8000e88:	4a3c      	ldr	r2, [pc, #240]	; (8000f7c <begin+0x204>)
 8000e8a:	8811      	ldrh	r1, [r2, #0]
 8000e8c:	2200      	movs	r2, #0
 8000e8e:	4618      	mov	r0, r3
 8000e90:	f002 fcbc 	bl	800380c <HAL_GPIO_WritePin>
  HAL_GPIO_WritePin(_port, _enable_pin, GPIO_PIN_RESET);
 8000e94:	4b3d      	ldr	r3, [pc, #244]	; (8000f8c <begin+0x214>)
 8000e96:	681b      	ldr	r3, [r3, #0]
 8000e98:	4a3a      	ldr	r2, [pc, #232]	; (8000f84 <begin+0x20c>)
 8000e9a:	8811      	ldrh	r1, [r2, #0]
 8000e9c:	2200      	movs	r2, #0
 8000e9e:	4618      	mov	r0, r3
 8000ea0:	f002 fcb4 	bl	800380c <HAL_GPIO_WritePin>

  if (_rw_pin != 255) { 
 8000ea4:	4b36      	ldr	r3, [pc, #216]	; (8000f80 <begin+0x208>)
 8000ea6:	881b      	ldrh	r3, [r3, #0]
 8000ea8:	2bff      	cmp	r3, #255	; 0xff
 8000eaa:	d007      	beq.n	8000ebc <begin+0x144>
    HAL_GPIO_WritePin(_port, _rw_pin, GPIO_PIN_RESET);
 8000eac:	4b37      	ldr	r3, [pc, #220]	; (8000f8c <begin+0x214>)
 8000eae:	681b      	ldr	r3, [r3, #0]
 8000eb0:	4a33      	ldr	r2, [pc, #204]	; (8000f80 <begin+0x208>)
 8000eb2:	8811      	ldrh	r1, [r2, #0]
 8000eb4:	2200      	movs	r2, #0
 8000eb6:	4618      	mov	r0, r3
 8000eb8:	f002 fca8 	bl	800380c <HAL_GPIO_WritePin>
  }
  
  //put the LCD into 4 bit or 8 bit mode
  if (! (_displayfunction & LCD_8BITMODE)) {
 8000ebc:	4b2b      	ldr	r3, [pc, #172]	; (8000f6c <begin+0x1f4>)
 8000ebe:	781b      	ldrb	r3, [r3, #0]
 8000ec0:	f003 0310 	and.w	r3, r3, #16
 8000ec4:	2b00      	cmp	r3, #0
 8000ec6:	d115      	bne.n	8000ef4 <begin+0x17c>
    // this is according to the hitachi HD44780 datasheet
    // figure 24, pg 46

    // we start in 8bit mode, try to set 4 bit mode
    write4bits(0x03);
 8000ec8:	2003      	movs	r0, #3
 8000eca:	f000 fa07 	bl	80012dc <write4bits>
    HAL_Delay(5); // wait min 4.1ms
 8000ece:	2005      	movs	r0, #5
 8000ed0:	f001 f81a 	bl	8001f08 <HAL_Delay>

    // second try
    write4bits(0x03);
 8000ed4:	2003      	movs	r0, #3
 8000ed6:	f000 fa01 	bl	80012dc <write4bits>
    HAL_Delay(5); // wait min 4.1ms
 8000eda:	2005      	movs	r0, #5
 8000edc:	f001 f814 	bl	8001f08 <HAL_Delay>
    
    // third go!
    write4bits(0x03); 
 8000ee0:	2003      	movs	r0, #3
 8000ee2:	f000 f9fb 	bl	80012dc <write4bits>
    HAL_Delay(1);
 8000ee6:	2001      	movs	r0, #1
 8000ee8:	f001 f80e 	bl	8001f08 <HAL_Delay>

    // finally, set to 4-bit interface
    write4bits(0x02); 
 8000eec:	2002      	movs	r0, #2
 8000eee:	f000 f9f5 	bl	80012dc <write4bits>
 8000ef2:	e01d      	b.n	8000f30 <begin+0x1b8>
  } else {
    // this is according to the hitachi HD44780 datasheet
    // page 45 figure 23

    // Send function set command sequence
    command(LCD_FUNCTIONSET | _displayfunction);
 8000ef4:	4b1d      	ldr	r3, [pc, #116]	; (8000f6c <begin+0x1f4>)
 8000ef6:	781b      	ldrb	r3, [r3, #0]
 8000ef8:	f043 0320 	orr.w	r3, r3, #32
 8000efc:	b2db      	uxtb	r3, r3
 8000efe:	4618      	mov	r0, r3
 8000f00:	f000 f967 	bl	80011d2 <command>
    HAL_Delay(5);  // wait more than 4.1ms
 8000f04:	2005      	movs	r0, #5
 8000f06:	f000 ffff 	bl	8001f08 <HAL_Delay>

    // second try
    command(LCD_FUNCTIONSET | _displayfunction);
 8000f0a:	4b18      	ldr	r3, [pc, #96]	; (8000f6c <begin+0x1f4>)
 8000f0c:	781b      	ldrb	r3, [r3, #0]
 8000f0e:	f043 0320 	orr.w	r3, r3, #32
 8000f12:	b2db      	uxtb	r3, r3
 8000f14:	4618      	mov	r0, r3
 8000f16:	f000 f95c 	bl	80011d2 <command>
    HAL_Delay(1);
 8000f1a:	2001      	movs	r0, #1
 8000f1c:	f000 fff4 	bl	8001f08 <HAL_Delay>

    // third go
    command(LCD_FUNCTIONSET | _displayfunction);
 8000f20:	4b12      	ldr	r3, [pc, #72]	; (8000f6c <begin+0x1f4>)
 8000f22:	781b      	ldrb	r3, [r3, #0]
 8000f24:	f043 0320 	orr.w	r3, r3, #32
 8000f28:	b2db      	uxtb	r3, r3
 8000f2a:	4618      	mov	r0, r3
 8000f2c:	f000 f951 	bl	80011d2 <command>
  }

  // finally, set # lines, font size, etc.
  command(LCD_FUNCTIONSET | _displayfunction);  
 8000f30:	4b0e      	ldr	r3, [pc, #56]	; (8000f6c <begin+0x1f4>)
 8000f32:	781b      	ldrb	r3, [r3, #0]
 8000f34:	f043 0320 	orr.w	r3, r3, #32
 8000f38:	b2db      	uxtb	r3, r3
 8000f3a:	4618      	mov	r0, r3
 8000f3c:	f000 f949 	bl	80011d2 <command>

  // turn the display on with no cursor or blinking default
  _displaycontrol = LCD_DISPLAYON | LCD_CURSOROFF | LCD_BLINKOFF;  
 8000f40:	4b13      	ldr	r3, [pc, #76]	; (8000f90 <begin+0x218>)
 8000f42:	2204      	movs	r2, #4
 8000f44:	701a      	strb	r2, [r3, #0]
  display();
 8000f46:	f000 f903 	bl	8001150 <display>

  // clear it off
  clear();
 8000f4a:	f000 f8c5 	bl	80010d8 <clear>

  // Initialize to default text direction (for romance languages)
  _displaymode = LCD_ENTRYLEFT | LCD_ENTRYSHIFTDECREMENT;
 8000f4e:	4b11      	ldr	r3, [pc, #68]	; (8000f94 <begin+0x21c>)
 8000f50:	2202      	movs	r2, #2
 8000f52:	701a      	strb	r2, [r3, #0]
  // set the entry mode
  command(LCD_ENTRYMODESET | _displaymode);
 8000f54:	4b0f      	ldr	r3, [pc, #60]	; (8000f94 <begin+0x21c>)
 8000f56:	781b      	ldrb	r3, [r3, #0]
 8000f58:	f043 0304 	orr.w	r3, r3, #4
 8000f5c:	b2db      	uxtb	r3, r3
 8000f5e:	4618      	mov	r0, r3
 8000f60:	f000 f937 	bl	80011d2 <command>

}
 8000f64:	bf00      	nop
 8000f66:	3720      	adds	r7, #32
 8000f68:	46bd      	mov	sp, r7
 8000f6a:	bd80      	pop	{r7, pc}
 8000f6c:	20000218 	.word	0x20000218
 8000f70:	2000021b 	.word	0x2000021b
 8000f74:	200001fc 	.word	0x200001fc
 8000f78:	20000000 	.word	0x20000000
 8000f7c:	200001fe 	.word	0x200001fe
 8000f80:	20000200 	.word	0x20000200
 8000f84:	20000202 	.word	0x20000202
 8000f88:	20000204 	.word	0x20000204
 8000f8c:	20000214 	.word	0x20000214
 8000f90:	20000219 	.word	0x20000219
 8000f94:	2000021a 	.word	0x2000021a

08000f98 <enableClock>:

// enables GPIO RCC Clock
void enableClock(void)
{  
 8000f98:	b480      	push	{r7}
 8000f9a:	b087      	sub	sp, #28
 8000f9c:	af00      	add	r7, sp, #0
  if(_port == GPIOA)
 8000f9e:	4b38      	ldr	r3, [pc, #224]	; (8001080 <enableClock+0xe8>)
 8000fa0:	681b      	ldr	r3, [r3, #0]
 8000fa2:	f1b3 4f90 	cmp.w	r3, #1207959552	; 0x48000000
 8000fa6:	d10c      	bne.n	8000fc2 <enableClock+0x2a>
		__HAL_RCC_GPIOA_CLK_ENABLE();
 8000fa8:	4b36      	ldr	r3, [pc, #216]	; (8001084 <enableClock+0xec>)
 8000faa:	695b      	ldr	r3, [r3, #20]
 8000fac:	4a35      	ldr	r2, [pc, #212]	; (8001084 <enableClock+0xec>)
 8000fae:	f443 3300 	orr.w	r3, r3, #131072	; 0x20000
 8000fb2:	6153      	str	r3, [r2, #20]
 8000fb4:	4b33      	ldr	r3, [pc, #204]	; (8001084 <enableClock+0xec>)
 8000fb6:	695b      	ldr	r3, [r3, #20]
 8000fb8:	f403 3300 	and.w	r3, r3, #131072	; 0x20000
 8000fbc:	617b      	str	r3, [r7, #20]
 8000fbe:	697b      	ldr	r3, [r7, #20]
		__HAL_RCC_GPIOD_CLK_ENABLE();
	else if(_port == GPIOF)
		__HAL_RCC_GPIOF_CLK_ENABLE();

  // if you have a port that is not listed add it below the other else ifs
}
 8000fc0:	e058      	b.n	8001074 <enableClock+0xdc>
  else if(_port == GPIOB)
 8000fc2:	4b2f      	ldr	r3, [pc, #188]	; (8001080 <enableClock+0xe8>)
 8000fc4:	681b      	ldr	r3, [r3, #0]
 8000fc6:	4a30      	ldr	r2, [pc, #192]	; (8001088 <enableClock+0xf0>)
 8000fc8:	4293      	cmp	r3, r2
 8000fca:	d10c      	bne.n	8000fe6 <enableClock+0x4e>
		__HAL_RCC_GPIOB_CLK_ENABLE();
 8000fcc:	4b2d      	ldr	r3, [pc, #180]	; (8001084 <enableClock+0xec>)
 8000fce:	695b      	ldr	r3, [r3, #20]
 8000fd0:	4a2c      	ldr	r2, [pc, #176]	; (8001084 <enableClock+0xec>)
 8000fd2:	f443 2380 	orr.w	r3, r3, #262144	; 0x40000
 8000fd6:	6153      	str	r3, [r2, #20]
 8000fd8:	4b2a      	ldr	r3, [pc, #168]	; (8001084 <enableClock+0xec>)
 8000fda:	695b      	ldr	r3, [r3, #20]
 8000fdc:	f403 2380 	and.w	r3, r3, #262144	; 0x40000
 8000fe0:	613b      	str	r3, [r7, #16]
 8000fe2:	693b      	ldr	r3, [r7, #16]
}
 8000fe4:	e046      	b.n	8001074 <enableClock+0xdc>
  else if(_port == GPIOB)
 8000fe6:	4b26      	ldr	r3, [pc, #152]	; (8001080 <enableClock+0xe8>)
 8000fe8:	681b      	ldr	r3, [r3, #0]
 8000fea:	4a27      	ldr	r2, [pc, #156]	; (8001088 <enableClock+0xf0>)
 8000fec:	4293      	cmp	r3, r2
 8000fee:	d10c      	bne.n	800100a <enableClock+0x72>
		__HAL_RCC_GPIOB_CLK_ENABLE();
 8000ff0:	4b24      	ldr	r3, [pc, #144]	; (8001084 <enableClock+0xec>)
 8000ff2:	695b      	ldr	r3, [r3, #20]
 8000ff4:	4a23      	ldr	r2, [pc, #140]	; (8001084 <enableClock+0xec>)
 8000ff6:	f443 2380 	orr.w	r3, r3, #262144	; 0x40000
 8000ffa:	6153      	str	r3, [r2, #20]
 8000ffc:	4b21      	ldr	r3, [pc, #132]	; (8001084 <enableClock+0xec>)
 8000ffe:	695b      	ldr	r3, [r3, #20]
 8001000:	f403 2380 	and.w	r3, r3, #262144	; 0x40000
 8001004:	60fb      	str	r3, [r7, #12]
 8001006:	68fb      	ldr	r3, [r7, #12]
}
 8001008:	e034      	b.n	8001074 <enableClock+0xdc>
	else if(_port == GPIOC)
 800100a:	4b1d      	ldr	r3, [pc, #116]	; (8001080 <enableClock+0xe8>)
 800100c:	681b      	ldr	r3, [r3, #0]
 800100e:	4a1f      	ldr	r2, [pc, #124]	; (800108c <enableClock+0xf4>)
 8001010:	4293      	cmp	r3, r2
 8001012:	d10c      	bne.n	800102e <enableClock+0x96>
		__HAL_RCC_GPIOC_CLK_ENABLE();
 8001014:	4b1b      	ldr	r3, [pc, #108]	; (8001084 <enableClock+0xec>)
 8001016:	695b      	ldr	r3, [r3, #20]
 8001018:	4a1a      	ldr	r2, [pc, #104]	; (8001084 <enableClock+0xec>)
 800101a:	f443 2300 	orr.w	r3, r3, #524288	; 0x80000
 800101e:	6153      	str	r3, [r2, #20]
 8001020:	4b18      	ldr	r3, [pc, #96]	; (8001084 <enableClock+0xec>)
 8001022:	695b      	ldr	r3, [r3, #20]
 8001024:	f403 2300 	and.w	r3, r3, #524288	; 0x80000
 8001028:	60bb      	str	r3, [r7, #8]
 800102a:	68bb      	ldr	r3, [r7, #8]
}
 800102c:	e022      	b.n	8001074 <enableClock+0xdc>
	else if(_port == GPIOD)
 800102e:	4b14      	ldr	r3, [pc, #80]	; (8001080 <enableClock+0xe8>)
 8001030:	681b      	ldr	r3, [r3, #0]
 8001032:	4a17      	ldr	r2, [pc, #92]	; (8001090 <enableClock+0xf8>)
 8001034:	4293      	cmp	r3, r2
 8001036:	d10c      	bne.n	8001052 <enableClock+0xba>
		__HAL_RCC_GPIOD_CLK_ENABLE();
 8001038:	4b12      	ldr	r3, [pc, #72]	; (8001084 <enableClock+0xec>)
 800103a:	695b      	ldr	r3, [r3, #20]
 800103c:	4a11      	ldr	r2, [pc, #68]	; (8001084 <enableClock+0xec>)
 800103e:	f443 1380 	orr.w	r3, r3, #1048576	; 0x100000
 8001042:	6153      	str	r3, [r2, #20]
 8001044:	4b0f      	ldr	r3, [pc, #60]	; (8001084 <enableClock+0xec>)
 8001046:	695b      	ldr	r3, [r3, #20]
 8001048:	f403 1380 	and.w	r3, r3, #1048576	; 0x100000
 800104c:	607b      	str	r3, [r7, #4]
 800104e:	687b      	ldr	r3, [r7, #4]
}
 8001050:	e010      	b.n	8001074 <enableClock+0xdc>
	else if(_port == GPIOF)
 8001052:	4b0b      	ldr	r3, [pc, #44]	; (8001080 <enableClock+0xe8>)
 8001054:	681b      	ldr	r3, [r3, #0]
 8001056:	4a0f      	ldr	r2, [pc, #60]	; (8001094 <enableClock+0xfc>)
 8001058:	4293      	cmp	r3, r2
 800105a:	d10b      	bne.n	8001074 <enableClock+0xdc>
		__HAL_RCC_GPIOF_CLK_ENABLE();
 800105c:	4b09      	ldr	r3, [pc, #36]	; (8001084 <enableClock+0xec>)
 800105e:	695b      	ldr	r3, [r3, #20]
 8001060:	4a08      	ldr	r2, [pc, #32]	; (8001084 <enableClock+0xec>)
 8001062:	f443 0380 	orr.w	r3, r3, #4194304	; 0x400000
 8001066:	6153      	str	r3, [r2, #20]
 8001068:	4b06      	ldr	r3, [pc, #24]	; (8001084 <enableClock+0xec>)
 800106a:	695b      	ldr	r3, [r3, #20]
 800106c:	f403 0380 	and.w	r3, r3, #4194304	; 0x400000
 8001070:	603b      	str	r3, [r7, #0]
 8001072:	683b      	ldr	r3, [r7, #0]
}
 8001074:	bf00      	nop
 8001076:	371c      	adds	r7, #28
 8001078:	46bd      	mov	sp, r7
 800107a:	f85d 7b04 	ldr.w	r7, [sp], #4
 800107e:	4770      	bx	lr
 8001080:	20000214 	.word	0x20000214
 8001084:	40021000 	.word	0x40021000
 8001088:	48000400 	.word	0x48000400
 800108c:	48000800 	.word	0x48000800
 8001090:	48000c00 	.word	0x48000c00
 8001094:	48001400 	.word	0x48001400

08001098 <setRowOffsets>:

void setRowOffsets(int row0, int row1, int row2, int row3)
{
 8001098:	b480      	push	{r7}
 800109a:	b085      	sub	sp, #20
 800109c:	af00      	add	r7, sp, #0
 800109e:	60f8      	str	r0, [r7, #12]
 80010a0:	60b9      	str	r1, [r7, #8]
 80010a2:	607a      	str	r2, [r7, #4]
 80010a4:	603b      	str	r3, [r7, #0]
  _row_offsets[0] = row0;
 80010a6:	68fb      	ldr	r3, [r7, #12]
 80010a8:	b2da      	uxtb	r2, r3
 80010aa:	4b0a      	ldr	r3, [pc, #40]	; (80010d4 <setRowOffsets+0x3c>)
 80010ac:	701a      	strb	r2, [r3, #0]
  _row_offsets[1] = row1;
 80010ae:	68bb      	ldr	r3, [r7, #8]
 80010b0:	b2da      	uxtb	r2, r3
 80010b2:	4b08      	ldr	r3, [pc, #32]	; (80010d4 <setRowOffsets+0x3c>)
 80010b4:	705a      	strb	r2, [r3, #1]
  _row_offsets[2] = row2;
 80010b6:	687b      	ldr	r3, [r7, #4]
 80010b8:	b2da      	uxtb	r2, r3
 80010ba:	4b06      	ldr	r3, [pc, #24]	; (80010d4 <setRowOffsets+0x3c>)
 80010bc:	709a      	strb	r2, [r3, #2]
  _row_offsets[3] = row3;
 80010be:	683b      	ldr	r3, [r7, #0]
 80010c0:	b2da      	uxtb	r2, r3
 80010c2:	4b04      	ldr	r3, [pc, #16]	; (80010d4 <setRowOffsets+0x3c>)
 80010c4:	70da      	strb	r2, [r3, #3]
}
 80010c6:	bf00      	nop
 80010c8:	3714      	adds	r7, #20
 80010ca:	46bd      	mov	sp, r7
 80010cc:	f85d 7b04 	ldr.w	r7, [sp], #4
 80010d0:	4770      	bx	lr
 80010d2:	bf00      	nop
 80010d4:	2000021c 	.word	0x2000021c

080010d8 <clear>:

/********** high level commands, for the user! */
void clear(void)
{
 80010d8:	b580      	push	{r7, lr}
 80010da:	af00      	add	r7, sp, #0
  command(LCD_CLEARDISPLAY);  // clear display, set cursor position to zero
 80010dc:	2001      	movs	r0, #1
 80010de:	f000 f878 	bl	80011d2 <command>
  HAL_Delay(2);  // this command takes a long time!
 80010e2:	2002      	movs	r0, #2
 80010e4:	f000 ff10 	bl	8001f08 <HAL_Delay>
}
 80010e8:	bf00      	nop
 80010ea:	bd80      	pop	{r7, pc}

080010ec <setCursor>:
  command(LCD_RETURNHOME);  // set cursor position to zero
  HAL_Delay(2);  // this command takes a long time!
}

void setCursor(uint8_t col, uint8_t row)
{
 80010ec:	b580      	push	{r7, lr}
 80010ee:	b084      	sub	sp, #16
 80010f0:	af00      	add	r7, sp, #0
 80010f2:	4603      	mov	r3, r0
 80010f4:	460a      	mov	r2, r1
 80010f6:	71fb      	strb	r3, [r7, #7]
 80010f8:	4613      	mov	r3, r2
 80010fa:	71bb      	strb	r3, [r7, #6]
  const size_t max_lines = sizeof(_row_offsets) / sizeof(*_row_offsets);
 80010fc:	2304      	movs	r3, #4
 80010fe:	60fb      	str	r3, [r7, #12]
  if ( row >= max_lines ) {
 8001100:	79bb      	ldrb	r3, [r7, #6]
 8001102:	68fa      	ldr	r2, [r7, #12]
 8001104:	429a      	cmp	r2, r3
 8001106:	d803      	bhi.n	8001110 <setCursor+0x24>
    row = max_lines - 1;    // we count rows starting w/0
 8001108:	68fb      	ldr	r3, [r7, #12]
 800110a:	b2db      	uxtb	r3, r3
 800110c:	3b01      	subs	r3, #1
 800110e:	71bb      	strb	r3, [r7, #6]
  }
  if ( row >= _numlines ) {
 8001110:	4b0d      	ldr	r3, [pc, #52]	; (8001148 <setCursor+0x5c>)
 8001112:	781b      	ldrb	r3, [r3, #0]
 8001114:	79ba      	ldrb	r2, [r7, #6]
 8001116:	429a      	cmp	r2, r3
 8001118:	d303      	bcc.n	8001122 <setCursor+0x36>
    row = _numlines - 1;    // we count rows starting w/0
 800111a:	4b0b      	ldr	r3, [pc, #44]	; (8001148 <setCursor+0x5c>)
 800111c:	781b      	ldrb	r3, [r3, #0]
 800111e:	3b01      	subs	r3, #1
 8001120:	71bb      	strb	r3, [r7, #6]
  }
  
  command(LCD_SETDDRAMADDR | (col + _row_offsets[row]));
 8001122:	79bb      	ldrb	r3, [r7, #6]
 8001124:	4a09      	ldr	r2, [pc, #36]	; (800114c <setCursor+0x60>)
 8001126:	5cd2      	ldrb	r2, [r2, r3]
 8001128:	79fb      	ldrb	r3, [r7, #7]
 800112a:	4413      	add	r3, r2
 800112c:	b2db      	uxtb	r3, r3
 800112e:	b25b      	sxtb	r3, r3
 8001130:	f063 037f 	orn	r3, r3, #127	; 0x7f
 8001134:	b25b      	sxtb	r3, r3
 8001136:	b2db      	uxtb	r3, r3
 8001138:	4618      	mov	r0, r3
 800113a:	f000 f84a 	bl	80011d2 <command>
}
 800113e:	bf00      	nop
 8001140:	3710      	adds	r7, #16
 8001142:	46bd      	mov	sp, r7
 8001144:	bd80      	pop	{r7, pc}
 8001146:	bf00      	nop
 8001148:	2000021b 	.word	0x2000021b
 800114c:	2000021c 	.word	0x2000021c

08001150 <display>:
// Turn the display on/off (quickly)
void noDisplay(void) {
  _displaycontrol &= ~LCD_DISPLAYON;
  command(LCD_DISPLAYCONTROL | _displaycontrol);
}
void display(void) {
 8001150:	b580      	push	{r7, lr}
 8001152:	af00      	add	r7, sp, #0
  _displaycontrol |= LCD_DISPLAYON;
 8001154:	4b08      	ldr	r3, [pc, #32]	; (8001178 <display+0x28>)
 8001156:	781b      	ldrb	r3, [r3, #0]
 8001158:	f043 0304 	orr.w	r3, r3, #4
 800115c:	b2da      	uxtb	r2, r3
 800115e:	4b06      	ldr	r3, [pc, #24]	; (8001178 <display+0x28>)
 8001160:	701a      	strb	r2, [r3, #0]
  command(LCD_DISPLAYCONTROL | _displaycontrol);
 8001162:	4b05      	ldr	r3, [pc, #20]	; (8001178 <display+0x28>)
 8001164:	781b      	ldrb	r3, [r3, #0]
 8001166:	f043 0308 	orr.w	r3, r3, #8
 800116a:	b2db      	uxtb	r3, r3
 800116c:	4618      	mov	r0, r3
 800116e:	f000 f830 	bl	80011d2 <command>
}
 8001172:	bf00      	nop
 8001174:	bd80      	pop	{r7, pc}
 8001176:	bf00      	nop
 8001178:	20000219 	.word	0x20000219

0800117c <print>:
  _displaymode &= ~LCD_ENTRYSHIFTINCREMENT;
  command(LCD_ENTRYMODESET | _displaymode);
}

// This will print character string to the LCD
size_t print(const char str[]) {
 800117c:	b580      	push	{r7, lr}
 800117e:	b086      	sub	sp, #24
 8001180:	af00      	add	r7, sp, #0
 8001182:	6078      	str	r0, [r7, #4]
  if (str == NULL) return 0;
 8001184:	687b      	ldr	r3, [r7, #4]
 8001186:	2b00      	cmp	r3, #0
 8001188:	d101      	bne.n	800118e <print+0x12>
 800118a:	2300      	movs	r3, #0
 800118c:	e01d      	b.n	80011ca <print+0x4e>

  const uint8_t *buffer = (const uint8_t *)str;
 800118e:	687b      	ldr	r3, [r7, #4]
 8001190:	617b      	str	r3, [r7, #20]
  size_t size = strlen(str);
 8001192:	6878      	ldr	r0, [r7, #4]
 8001194:	f7ff f81c 	bl	80001d0 <strlen>
 8001198:	6138      	str	r0, [r7, #16]
  size_t n = 0;
 800119a:	2300      	movs	r3, #0
 800119c:	60fb      	str	r3, [r7, #12]

  while (size--) {
 800119e:	e00c      	b.n	80011ba <print+0x3e>
    if (write(*buffer++)) n++;
 80011a0:	697b      	ldr	r3, [r7, #20]
 80011a2:	1c5a      	adds	r2, r3, #1
 80011a4:	617a      	str	r2, [r7, #20]
 80011a6:	781b      	ldrb	r3, [r3, #0]
 80011a8:	4618      	mov	r0, r3
 80011aa:	f000 f820 	bl	80011ee <write>
 80011ae:	4603      	mov	r3, r0
 80011b0:	2b00      	cmp	r3, #0
 80011b2:	d008      	beq.n	80011c6 <print+0x4a>
 80011b4:	68fb      	ldr	r3, [r7, #12]
 80011b6:	3301      	adds	r3, #1
 80011b8:	60fb      	str	r3, [r7, #12]
  while (size--) {
 80011ba:	693b      	ldr	r3, [r7, #16]
 80011bc:	1e5a      	subs	r2, r3, #1
 80011be:	613a      	str	r2, [r7, #16]
 80011c0:	2b00      	cmp	r3, #0
 80011c2:	d1ed      	bne.n	80011a0 <print+0x24>
 80011c4:	e000      	b.n	80011c8 <print+0x4c>
    else break;
 80011c6:	bf00      	nop
  }
  return n;
 80011c8:	68fb      	ldr	r3, [r7, #12]
}
 80011ca:	4618      	mov	r0, r3
 80011cc:	3718      	adds	r7, #24
 80011ce:	46bd      	mov	sp, r7
 80011d0:	bd80      	pop	{r7, pc}

080011d2 <command>:
  }
}

/*********** mid level commands, for sending data/cmds */

inline void command(uint8_t value) {
 80011d2:	b580      	push	{r7, lr}
 80011d4:	b082      	sub	sp, #8
 80011d6:	af00      	add	r7, sp, #0
 80011d8:	4603      	mov	r3, r0
 80011da:	71fb      	strb	r3, [r7, #7]
  send(value, GPIO_PIN_RESET);
 80011dc:	79fb      	ldrb	r3, [r7, #7]
 80011de:	2100      	movs	r1, #0
 80011e0:	4618      	mov	r0, r3
 80011e2:	f000 f813 	bl	800120c <send>
}
 80011e6:	bf00      	nop
 80011e8:	3708      	adds	r7, #8
 80011ea:	46bd      	mov	sp, r7
 80011ec:	bd80      	pop	{r7, pc}

080011ee <write>:

inline size_t write(uint8_t value) {
 80011ee:	b580      	push	{r7, lr}
 80011f0:	b082      	sub	sp, #8
 80011f2:	af00      	add	r7, sp, #0
 80011f4:	4603      	mov	r3, r0
 80011f6:	71fb      	strb	r3, [r7, #7]
  send(value, GPIO_PIN_SET);
 80011f8:	79fb      	ldrb	r3, [r7, #7]
 80011fa:	2101      	movs	r1, #1
 80011fc:	4618      	mov	r0, r3
 80011fe:	f000 f805 	bl	800120c <send>
  return 1; // assume sucess
 8001202:	2301      	movs	r3, #1
}
 8001204:	4618      	mov	r0, r3
 8001206:	3708      	adds	r7, #8
 8001208:	46bd      	mov	sp, r7
 800120a:	bd80      	pop	{r7, pc}

0800120c <send>:

/************ low level data pushing commands **********/

// write either command or data, with automatic 4/8-bit selection
void send(uint8_t value, GPIO_PinState mode) {
 800120c:	b580      	push	{r7, lr}
 800120e:	b082      	sub	sp, #8
 8001210:	af00      	add	r7, sp, #0
 8001212:	4603      	mov	r3, r0
 8001214:	460a      	mov	r2, r1
 8001216:	71fb      	strb	r3, [r7, #7]
 8001218:	4613      	mov	r3, r2
 800121a:	71bb      	strb	r3, [r7, #6]
  HAL_GPIO_WritePin(_port, _rs_pin, mode);
 800121c:	4b16      	ldr	r3, [pc, #88]	; (8001278 <send+0x6c>)
 800121e:	681b      	ldr	r3, [r3, #0]
 8001220:	4a16      	ldr	r2, [pc, #88]	; (800127c <send+0x70>)
 8001222:	8811      	ldrh	r1, [r2, #0]
 8001224:	79ba      	ldrb	r2, [r7, #6]
 8001226:	4618      	mov	r0, r3
 8001228:	f002 faf0 	bl	800380c <HAL_GPIO_WritePin>

  // if there is a RW pin indicated, set it low to Write
  if (_rw_pin != 255) { 
 800122c:	4b14      	ldr	r3, [pc, #80]	; (8001280 <send+0x74>)
 800122e:	881b      	ldrh	r3, [r3, #0]
 8001230:	2bff      	cmp	r3, #255	; 0xff
 8001232:	d007      	beq.n	8001244 <send+0x38>
    HAL_GPIO_WritePin(_port, _rw_pin, GPIO_PIN_RESET);
 8001234:	4b10      	ldr	r3, [pc, #64]	; (8001278 <send+0x6c>)
 8001236:	681b      	ldr	r3, [r3, #0]
 8001238:	4a11      	ldr	r2, [pc, #68]	; (8001280 <send+0x74>)
 800123a:	8811      	ldrh	r1, [r2, #0]
 800123c:	2200      	movs	r2, #0
 800123e:	4618      	mov	r0, r3
 8001240:	f002 fae4 	bl	800380c <HAL_GPIO_WritePin>
  }
  
  if (_displayfunction & LCD_8BITMODE) {
 8001244:	4b0f      	ldr	r3, [pc, #60]	; (8001284 <send+0x78>)
 8001246:	781b      	ldrb	r3, [r3, #0]
 8001248:	f003 0310 	and.w	r3, r3, #16
 800124c:	2b00      	cmp	r3, #0
 800124e:	d004      	beq.n	800125a <send+0x4e>
    write8bits(value); 
 8001250:	79fb      	ldrb	r3, [r7, #7]
 8001252:	4618      	mov	r0, r3
 8001254:	f000 f86c 	bl	8001330 <write8bits>
  } else {
    write4bits(value>>4);
    write4bits(value);
  }
}
 8001258:	e009      	b.n	800126e <send+0x62>
    write4bits(value>>4);
 800125a:	79fb      	ldrb	r3, [r7, #7]
 800125c:	091b      	lsrs	r3, r3, #4
 800125e:	b2db      	uxtb	r3, r3
 8001260:	4618      	mov	r0, r3
 8001262:	f000 f83b 	bl	80012dc <write4bits>
    write4bits(value);
 8001266:	79fb      	ldrb	r3, [r7, #7]
 8001268:	4618      	mov	r0, r3
 800126a:	f000 f837 	bl	80012dc <write4bits>
}
 800126e:	bf00      	nop
 8001270:	3708      	adds	r7, #8
 8001272:	46bd      	mov	sp, r7
 8001274:	bd80      	pop	{r7, pc}
 8001276:	bf00      	nop
 8001278:	20000214 	.word	0x20000214
 800127c:	200001fe 	.word	0x200001fe
 8001280:	20000200 	.word	0x20000200
 8001284:	20000218 	.word	0x20000218

08001288 <pulseEnable>:

void pulseEnable(void) {
 8001288:	b580      	push	{r7, lr}
 800128a:	af00      	add	r7, sp, #0
  HAL_GPIO_WritePin(_port, _enable_pin, GPIO_PIN_RESET);
 800128c:	4b11      	ldr	r3, [pc, #68]	; (80012d4 <pulseEnable+0x4c>)
 800128e:	681b      	ldr	r3, [r3, #0]
 8001290:	4a11      	ldr	r2, [pc, #68]	; (80012d8 <pulseEnable+0x50>)
 8001292:	8811      	ldrh	r1, [r2, #0]
 8001294:	2200      	movs	r2, #0
 8001296:	4618      	mov	r0, r3
 8001298:	f002 fab8 	bl	800380c <HAL_GPIO_WritePin>
  HAL_Delay(1);    
 800129c:	2001      	movs	r0, #1
 800129e:	f000 fe33 	bl	8001f08 <HAL_Delay>
  HAL_GPIO_WritePin(_port, _enable_pin, GPIO_PIN_SET);
 80012a2:	4b0c      	ldr	r3, [pc, #48]	; (80012d4 <pulseEnable+0x4c>)
 80012a4:	681b      	ldr	r3, [r3, #0]
 80012a6:	4a0c      	ldr	r2, [pc, #48]	; (80012d8 <pulseEnable+0x50>)
 80012a8:	8811      	ldrh	r1, [r2, #0]
 80012aa:	2201      	movs	r2, #1
 80012ac:	4618      	mov	r0, r3
 80012ae:	f002 faad 	bl	800380c <HAL_GPIO_WritePin>
  HAL_Delay(1);    // enable pulse must be >450ns
 80012b2:	2001      	movs	r0, #1
 80012b4:	f000 fe28 	bl	8001f08 <HAL_Delay>
  HAL_GPIO_WritePin(_port, _enable_pin, GPIO_PIN_RESET);
 80012b8:	4b06      	ldr	r3, [pc, #24]	; (80012d4 <pulseEnable+0x4c>)
 80012ba:	681b      	ldr	r3, [r3, #0]
 80012bc:	4a06      	ldr	r2, [pc, #24]	; (80012d8 <pulseEnable+0x50>)
 80012be:	8811      	ldrh	r1, [r2, #0]
 80012c0:	2200      	movs	r2, #0
 80012c2:	4618      	mov	r0, r3
 80012c4:	f002 faa2 	bl	800380c <HAL_GPIO_WritePin>
  HAL_Delay(1);   // commands need > 37us to settle
 80012c8:	2001      	movs	r0, #1
 80012ca:	f000 fe1d 	bl	8001f08 <HAL_Delay>
}
 80012ce:	bf00      	nop
 80012d0:	bd80      	pop	{r7, pc}
 80012d2:	bf00      	nop
 80012d4:	20000214 	.word	0x20000214
 80012d8:	20000202 	.word	0x20000202

080012dc <write4bits>:

void write4bits(uint8_t value) {
 80012dc:	b580      	push	{r7, lr}
 80012de:	b084      	sub	sp, #16
 80012e0:	af00      	add	r7, sp, #0
 80012e2:	4603      	mov	r3, r0
 80012e4:	71fb      	strb	r3, [r7, #7]
  for (int i = 0; i < 4; i++) {
 80012e6:	2300      	movs	r3, #0
 80012e8:	60fb      	str	r3, [r7, #12]
 80012ea:	e013      	b.n	8001314 <write4bits+0x38>
    HAL_GPIO_WritePin(_port, _data_pins[i], ((value >> i) & 0x01)?GPIO_PIN_SET:GPIO_PIN_RESET);
 80012ec:	4b0e      	ldr	r3, [pc, #56]	; (8001328 <write4bits+0x4c>)
 80012ee:	6818      	ldr	r0, [r3, #0]
 80012f0:	4a0e      	ldr	r2, [pc, #56]	; (800132c <write4bits+0x50>)
 80012f2:	68fb      	ldr	r3, [r7, #12]
 80012f4:	f832 1013 	ldrh.w	r1, [r2, r3, lsl #1]
 80012f8:	79fa      	ldrb	r2, [r7, #7]
 80012fa:	68fb      	ldr	r3, [r7, #12]
 80012fc:	fa42 f303 	asr.w	r3, r2, r3
 8001300:	b2db      	uxtb	r3, r3
 8001302:	f003 0301 	and.w	r3, r3, #1
 8001306:	b2db      	uxtb	r3, r3
 8001308:	461a      	mov	r2, r3
 800130a:	f002 fa7f 	bl	800380c <HAL_GPIO_WritePin>
  for (int i = 0; i < 4; i++) {
 800130e:	68fb      	ldr	r3, [r7, #12]
 8001310:	3301      	adds	r3, #1
 8001312:	60fb      	str	r3, [r7, #12]
 8001314:	68fb      	ldr	r3, [r7, #12]
 8001316:	2b03      	cmp	r3, #3
 8001318:	dde8      	ble.n	80012ec <write4bits+0x10>
  }

  pulseEnable();
 800131a:	f7ff ffb5 	bl	8001288 <pulseEnable>
}
 800131e:	bf00      	nop
 8001320:	3710      	adds	r7, #16
 8001322:	46bd      	mov	sp, r7
 8001324:	bd80      	pop	{r7, pc}
 8001326:	bf00      	nop
 8001328:	20000214 	.word	0x20000214
 800132c:	20000204 	.word	0x20000204

08001330 <write8bits>:

void write8bits(uint8_t value) {
 8001330:	b580      	push	{r7, lr}
 8001332:	b084      	sub	sp, #16
 8001334:	af00      	add	r7, sp, #0
 8001336:	4603      	mov	r3, r0
 8001338:	71fb      	strb	r3, [r7, #7]
  for (int i = 0; i < 8; i++) {
 800133a:	2300      	movs	r3, #0
 800133c:	60fb      	str	r3, [r7, #12]
 800133e:	e013      	b.n	8001368 <write8bits+0x38>
    HAL_GPIO_WritePin(_port, _data_pins[i], ((value >> i) & 0x01)?GPIO_PIN_SET:GPIO_PIN_RESET);
 8001340:	4b0e      	ldr	r3, [pc, #56]	; (800137c <write8bits+0x4c>)
 8001342:	6818      	ldr	r0, [r3, #0]
 8001344:	4a0e      	ldr	r2, [pc, #56]	; (8001380 <write8bits+0x50>)
 8001346:	68fb      	ldr	r3, [r7, #12]
 8001348:	f832 1013 	ldrh.w	r1, [r2, r3, lsl #1]
 800134c:	79fa      	ldrb	r2, [r7, #7]
 800134e:	68fb      	ldr	r3, [r7, #12]
 8001350:	fa42 f303 	asr.w	r3, r2, r3
 8001354:	b2db      	uxtb	r3, r3
 8001356:	f003 0301 	and.w	r3, r3, #1
 800135a:	b2db      	uxtb	r3, r3
 800135c:	461a      	mov	r2, r3
 800135e:	f002 fa55 	bl	800380c <HAL_GPIO_WritePin>
  for (int i = 0; i < 8; i++) {
 8001362:	68fb      	ldr	r3, [r7, #12]
 8001364:	3301      	adds	r3, #1
 8001366:	60fb      	str	r3, [r7, #12]
 8001368:	68fb      	ldr	r3, [r7, #12]
 800136a:	2b07      	cmp	r3, #7
 800136c:	dde8      	ble.n	8001340 <write8bits+0x10>
  }
  
  pulseEnable();
 800136e:	f7ff ff8b 	bl	8001288 <pulseEnable>
}
 8001372:	bf00      	nop
 8001374:	3710      	adds	r7, #16
 8001376:	46bd      	mov	sp, r7
 8001378:	bd80      	pop	{r7, pc}
 800137a:	bf00      	nop
 800137c:	20000214 	.word	0x20000214
 8001380:	20000204 	.word	0x20000204
 8001384:	00000000 	.word	0x00000000

08001388 <main>:
/**
  * @brief  The application entry point.
  * @retval int
  */
int main(void)
{
 8001388:	b580      	push	{r7, lr}
 800138a:	b08c      	sub	sp, #48	; 0x30
 800138c:	af04      	add	r7, sp, #16
  /* MCU Configuration--------------------------------------------------------*/

  /* Reset of all peripherals, Initializes the Flash interface and the Systick. */

  /* USER CODE BEGIN Init */
	  HAL_Init();
 800138e:	f000 fd55 	bl	8001e3c <HAL_Init>
  /* USER CODE END Init */

  /* Configure the system clock */
	  SystemClock_Config();
 8001392:	f000 fa0f 	bl	80017b4 <SystemClock_Config>

  /* Initialize all configured peripherals */
	  MX_GPIO_Init();
 8001396:	f000 fb07 	bl	80019a8 <MX_GPIO_Init>
	  MX_USART2_UART_Init();
 800139a:	f000 fad5 	bl	8001948 <MX_USART2_UART_Init>
	  MX_ADC1_Init();
 800139e:	f000 fa63 	bl	8001868 <MX_ADC1_Init>

  /* USER CODE BEGIN 2 */
	  HAL_ADC_Start(&hadc1);			// Start the ADC conversion
 80013a2:	482d      	ldr	r0, [pc, #180]	; (8001458 <main+0xd0>)
 80013a4:	f000 ff84 	bl	80022b0 <HAL_ADC_Start>
	  float voltage;     				// Used to stored calculate voltage from raw value

	  char msgOnLcd[20];				// Buffer to hold text for LCD

  /* Initialize the LCD display */
	  LiquidCrystal(GPIOA, GPIO_PIN_3, GPIO_PIN_4, GPIO_PIN_1, GPIO_PIN_6, GPIO_PIN_7, GPIO_PIN_8, GPIO_PIN_9);
 80013a8:	f44f 7300 	mov.w	r3, #512	; 0x200
 80013ac:	9303      	str	r3, [sp, #12]
 80013ae:	f44f 7380 	mov.w	r3, #256	; 0x100
 80013b2:	9302      	str	r3, [sp, #8]
 80013b4:	2380      	movs	r3, #128	; 0x80
 80013b6:	9301      	str	r3, [sp, #4]
 80013b8:	2340      	movs	r3, #64	; 0x40
 80013ba:	9300      	str	r3, [sp, #0]
 80013bc:	2302      	movs	r3, #2
 80013be:	2210      	movs	r2, #16
 80013c0:	2108      	movs	r1, #8
 80013c2:	f04f 4090 	mov.w	r0, #1207959552	; 0x48000000
 80013c6:	f7ff fc3f 	bl	8000c48 <LiquidCrystal>

	  clear(); 							// Clear the display
 80013ca:	f7ff fe85 	bl	80010d8 <clear>
	  print("    Welcome!    "); 		// Print the welcome message on LCD line 1
 80013ce:	4823      	ldr	r0, [pc, #140]	; (800145c <main+0xd4>)
 80013d0:	f7ff fed4 	bl	800117c <print>

  /* Infinite loop */

  while (1)
  {
	  HAL_ADC_PollForConversion(&hadc1, HAL_MAX_DELAY); 	//Poll the ADC
 80013d4:	f04f 31ff 	mov.w	r1, #4294967295
 80013d8:	481f      	ldr	r0, [pc, #124]	; (8001458 <main+0xd0>)
 80013da:	f001 f81f 	bl	800241c <HAL_ADC_PollForConversion>

	  rawValue = HAL_ADC_GetValue(&hadc1);  				// Get the Raw Value
 80013de:	481e      	ldr	r0, [pc, #120]	; (8001458 <main+0xd0>)
 80013e0:	f001 f8ea 	bl	80025b8 <HAL_ADC_GetValue>
 80013e4:	4603      	mov	r3, r0
 80013e6:	83fb      	strh	r3, [r7, #30]

	  voltage =((float)rawValue)/4095 * 3.3; 				// Convert raw value to voltage  (voltage = (rawVoltage/(2^bit resolution-1)*Vref))
 80013e8:	8bfb      	ldrh	r3, [r7, #30]
 80013ea:	ee07 3a90 	vmov	s15, r3
 80013ee:	eef8 7a67 	vcvt.f32.u32	s15, s15
 80013f2:	ed9f 7a1b 	vldr	s14, [pc, #108]	; 8001460 <main+0xd8>
 80013f6:	eec7 6a87 	vdiv.f32	s13, s15, s14
 80013fa:	ee16 0a90 	vmov	r0, s13
 80013fe:	f7ff f8a3 	bl	8000548 <__aeabi_f2d>
 8001402:	a313      	add	r3, pc, #76	; (adr r3, 8001450 <main+0xc8>)
 8001404:	e9d3 2300 	ldrd	r2, r3, [r3]
 8001408:	f7ff f8f6 	bl	80005f8 <__aeabi_dmul>
 800140c:	4602      	mov	r2, r0
 800140e:	460b      	mov	r3, r1
 8001410:	4610      	mov	r0, r2
 8001412:	4619      	mov	r1, r3
 8001414:	f7ff fbc8 	bl	8000ba8 <__aeabi_d2f>
 8001418:	4603      	mov	r3, r0
 800141a:	61bb      	str	r3, [r7, #24]

  /*Display the raw value over 2500 on LCD display*/
	    if(rawValue > 2500)
 800141c:	8bfb      	ldrh	r3, [r7, #30]
 800141e:	f640 12c4 	movw	r2, #2500	; 0x9c4
 8001422:	4293      	cmp	r3, r2
 8001424:	d90d      	bls.n	8001442 <main+0xba>
	  	 {
	    		setCursor(0, 1);
 8001426:	2101      	movs	r1, #1
 8001428:	2000      	movs	r0, #0
 800142a:	f7ff fe5f 	bl	80010ec <setCursor>
	    		sprintf(msgOnLcd, "InputValue: %d ", rawValue);
 800142e:	8bfa      	ldrh	r2, [r7, #30]
 8001430:	1d3b      	adds	r3, r7, #4
 8001432:	490c      	ldr	r1, [pc, #48]	; (8001464 <main+0xdc>)
 8001434:	4618      	mov	r0, r3
 8001436:	f004 fd6b 	bl	8005f10 <siprintf>
	    		print(msgOnLcd);
 800143a:	1d3b      	adds	r3, r7, #4
 800143c:	4618      	mov	r0, r3
 800143e:	f7ff fe9d 	bl	800117c <print>
	    		//*msgOnLcd = "";
	  	 }

  /*Display audio level on LEDs*/
	    displayAudioLevel(rawValue);
 8001442:	8bfb      	ldrh	r3, [r7, #30]
 8001444:	4618      	mov	r0, r3
 8001446:	f000 f80f 	bl	8001468 <displayAudioLevel>
	  HAL_ADC_PollForConversion(&hadc1, HAL_MAX_DELAY); 	//Poll the ADC
 800144a:	e7c3      	b.n	80013d4 <main+0x4c>
 800144c:	f3af 8000 	nop.w
 8001450:	66666666 	.word	0x66666666
 8001454:	400a6666 	.word	0x400a6666
 8001458:	20000220 	.word	0x20000220
 800145c:	08008418 	.word	0x08008418
 8001460:	457ff000 	.word	0x457ff000
 8001464:	0800842c 	.word	0x0800842c

08001468 <displayAudioLevel>:
  * @brief Process raw value and display audio level
  * @retval None
  */

void displayAudioLevel(uint16_t input)
{
 8001468:	b580      	push	{r7, lr}
 800146a:	b082      	sub	sp, #8
 800146c:	af00      	add	r7, sp, #0
 800146e:	4603      	mov	r3, r0
 8001470:	80fb      	strh	r3, [r7, #6]
    	if((input > 1500) && (input < 1600)) 		// Process raw value between 1500 and 1600
 8001472:	88fb      	ldrh	r3, [r7, #6]
 8001474:	f240 52dc 	movw	r2, #1500	; 0x5dc
 8001478:	4293      	cmp	r3, r2
 800147a:	d929      	bls.n	80014d0 <displayAudioLevel+0x68>
 800147c:	88fb      	ldrh	r3, [r7, #6]
 800147e:	f5b3 6fc8 	cmp.w	r3, #1600	; 0x640
 8001482:	d225      	bcs.n	80014d0 <displayAudioLevel+0x68>
    	{
    		HAL_GPIO_WritePin(GPIOB, GPIO_PIN_0, GPIO_PIN_SET);
 8001484:	2201      	movs	r2, #1
 8001486:	2101      	movs	r1, #1
 8001488:	48c9      	ldr	r0, [pc, #804]	; (80017b0 <displayAudioLevel+0x348>)
 800148a:	f002 f9bf 	bl	800380c <HAL_GPIO_WritePin>
    		HAL_GPIO_WritePin(GPIOB, GPIO_PIN_1, GPIO_PIN_RESET);
 800148e:	2200      	movs	r2, #0
 8001490:	2102      	movs	r1, #2
 8001492:	48c7      	ldr	r0, [pc, #796]	; (80017b0 <displayAudioLevel+0x348>)
 8001494:	f002 f9ba 	bl	800380c <HAL_GPIO_WritePin>
    		HAL_GPIO_WritePin(GPIOB, GPIO_PIN_3, GPIO_PIN_RESET);
 8001498:	2200      	movs	r2, #0
 800149a:	2108      	movs	r1, #8
 800149c:	48c4      	ldr	r0, [pc, #784]	; (80017b0 <displayAudioLevel+0x348>)
 800149e:	f002 f9b5 	bl	800380c <HAL_GPIO_WritePin>
    		HAL_GPIO_WritePin(GPIOB, GPIO_PIN_4, GPIO_PIN_RESET);
 80014a2:	2200      	movs	r2, #0
 80014a4:	2110      	movs	r1, #16
 80014a6:	48c2      	ldr	r0, [pc, #776]	; (80017b0 <displayAudioLevel+0x348>)
 80014a8:	f002 f9b0 	bl	800380c <HAL_GPIO_WritePin>
    		HAL_GPIO_WritePin(GPIOB, GPIO_PIN_5, GPIO_PIN_RESET);
 80014ac:	2200      	movs	r2, #0
 80014ae:	2120      	movs	r1, #32
 80014b0:	48bf      	ldr	r0, [pc, #764]	; (80017b0 <displayAudioLevel+0x348>)
 80014b2:	f002 f9ab 	bl	800380c <HAL_GPIO_WritePin>
    		HAL_GPIO_WritePin(GPIOA, GPIO_PIN_11, GPIO_PIN_RESET);
 80014b6:	2200      	movs	r2, #0
 80014b8:	f44f 6100 	mov.w	r1, #2048	; 0x800
 80014bc:	f04f 4090 	mov.w	r0, #1207959552	; 0x48000000
 80014c0:	f002 f9a4 	bl	800380c <HAL_GPIO_WritePin>
    		HAL_GPIO_WritePin(GPIOB, GPIO_PIN_7, GPIO_PIN_RESET);
 80014c4:	2200      	movs	r2, #0
 80014c6:	2180      	movs	r1, #128	; 0x80
 80014c8:	48b9      	ldr	r0, [pc, #740]	; (80017b0 <displayAudioLevel+0x348>)
 80014ca:	f002 f99f 	bl	800380c <HAL_GPIO_WritePin>
 80014ce:	e16b      	b.n	80017a8 <displayAudioLevel+0x340>
    	}

    	else if((input > 1600) && (input < 1700))   //Process raw value between 1600 and 1700
 80014d0:	88fb      	ldrh	r3, [r7, #6]
 80014d2:	f5b3 6fc8 	cmp.w	r3, #1600	; 0x640
 80014d6:	d92a      	bls.n	800152e <displayAudioLevel+0xc6>
 80014d8:	88fb      	ldrh	r3, [r7, #6]
 80014da:	f240 62a3 	movw	r2, #1699	; 0x6a3
 80014de:	4293      	cmp	r3, r2
 80014e0:	d825      	bhi.n	800152e <displayAudioLevel+0xc6>
    	{
    		HAL_GPIO_WritePin(GPIOB, GPIO_PIN_0, GPIO_PIN_SET);
 80014e2:	2201      	movs	r2, #1
 80014e4:	2101      	movs	r1, #1
 80014e6:	48b2      	ldr	r0, [pc, #712]	; (80017b0 <displayAudioLevel+0x348>)
 80014e8:	f002 f990 	bl	800380c <HAL_GPIO_WritePin>
    		HAL_GPIO_WritePin(GPIOB, GPIO_PIN_1, GPIO_PIN_SET);
 80014ec:	2201      	movs	r2, #1
 80014ee:	2102      	movs	r1, #2
 80014f0:	48af      	ldr	r0, [pc, #700]	; (80017b0 <displayAudioLevel+0x348>)
 80014f2:	f002 f98b 	bl	800380c <HAL_GPIO_WritePin>
    		HAL_GPIO_WritePin(GPIOB, GPIO_PIN_3, GPIO_PIN_RESET);
 80014f6:	2200      	movs	r2, #0
 80014f8:	2108      	movs	r1, #8
 80014fa:	48ad      	ldr	r0, [pc, #692]	; (80017b0 <displayAudioLevel+0x348>)
 80014fc:	f002 f986 	bl	800380c <HAL_GPIO_WritePin>
    		HAL_GPIO_WritePin(GPIOB, GPIO_PIN_4, GPIO_PIN_RESET);
 8001500:	2200      	movs	r2, #0
 8001502:	2110      	movs	r1, #16
 8001504:	48aa      	ldr	r0, [pc, #680]	; (80017b0 <displayAudioLevel+0x348>)
 8001506:	f002 f981 	bl	800380c <HAL_GPIO_WritePin>
    		HAL_GPIO_WritePin(GPIOB, GPIO_PIN_5, GPIO_PIN_RESET);
 800150a:	2200      	movs	r2, #0
 800150c:	2120      	movs	r1, #32
 800150e:	48a8      	ldr	r0, [pc, #672]	; (80017b0 <displayAudioLevel+0x348>)
 8001510:	f002 f97c 	bl	800380c <HAL_GPIO_WritePin>
    		HAL_GPIO_WritePin(GPIOA, GPIO_PIN_11, GPIO_PIN_RESET);
 8001514:	2200      	movs	r2, #0
 8001516:	f44f 6100 	mov.w	r1, #2048	; 0x800
 800151a:	f04f 4090 	mov.w	r0, #1207959552	; 0x48000000
 800151e:	f002 f975 	bl	800380c <HAL_GPIO_WritePin>
    		HAL_GPIO_WritePin(GPIOB, GPIO_PIN_7, GPIO_PIN_RESET);
 8001522:	2200      	movs	r2, #0
 8001524:	2180      	movs	r1, #128	; 0x80
 8001526:	48a2      	ldr	r0, [pc, #648]	; (80017b0 <displayAudioLevel+0x348>)
 8001528:	f002 f970 	bl	800380c <HAL_GPIO_WritePin>
 800152c:	e13c      	b.n	80017a8 <displayAudioLevel+0x340>
    	}

    	else if((input > 1700) && (input < 1800))   //Process raw value between 1700 and 1800
 800152e:	88fb      	ldrh	r3, [r7, #6]
 8001530:	f240 62a4 	movw	r2, #1700	; 0x6a4
 8001534:	4293      	cmp	r3, r2
 8001536:	d929      	bls.n	800158c <displayAudioLevel+0x124>
 8001538:	88fb      	ldrh	r3, [r7, #6]
 800153a:	f5b3 6fe1 	cmp.w	r3, #1800	; 0x708
 800153e:	d225      	bcs.n	800158c <displayAudioLevel+0x124>
    	{
    		HAL_GPIO_WritePin(GPIOB, GPIO_PIN_0, GPIO_PIN_SET);
 8001540:	2201      	movs	r2, #1
 8001542:	2101      	movs	r1, #1
 8001544:	489a      	ldr	r0, [pc, #616]	; (80017b0 <displayAudioLevel+0x348>)
 8001546:	f002 f961 	bl	800380c <HAL_GPIO_WritePin>
    		HAL_GPIO_WritePin(GPIOB, GPIO_PIN_1, GPIO_PIN_SET);
 800154a:	2201      	movs	r2, #1
 800154c:	2102      	movs	r1, #2
 800154e:	4898      	ldr	r0, [pc, #608]	; (80017b0 <displayAudioLevel+0x348>)
 8001550:	f002 f95c 	bl	800380c <HAL_GPIO_WritePin>
    		HAL_GPIO_WritePin(GPIOB, GPIO_PIN_3, GPIO_PIN_SET);
 8001554:	2201      	movs	r2, #1
 8001556:	2108      	movs	r1, #8
 8001558:	4895      	ldr	r0, [pc, #596]	; (80017b0 <displayAudioLevel+0x348>)
 800155a:	f002 f957 	bl	800380c <HAL_GPIO_WritePin>
    		HAL_GPIO_WritePin(GPIOB, GPIO_PIN_4, GPIO_PIN_RESET);
 800155e:	2200      	movs	r2, #0
 8001560:	2110      	movs	r1, #16
 8001562:	4893      	ldr	r0, [pc, #588]	; (80017b0 <displayAudioLevel+0x348>)
 8001564:	f002 f952 	bl	800380c <HAL_GPIO_WritePin>
    		HAL_GPIO_WritePin(GPIOB, GPIO_PIN_5, GPIO_PIN_RESET);
 8001568:	2200      	movs	r2, #0
 800156a:	2120      	movs	r1, #32
 800156c:	4890      	ldr	r0, [pc, #576]	; (80017b0 <displayAudioLevel+0x348>)
 800156e:	f002 f94d 	bl	800380c <HAL_GPIO_WritePin>
    		HAL_GPIO_WritePin(GPIOA, GPIO_PIN_11, GPIO_PIN_RESET);
 8001572:	2200      	movs	r2, #0
 8001574:	f44f 6100 	mov.w	r1, #2048	; 0x800
 8001578:	f04f 4090 	mov.w	r0, #1207959552	; 0x48000000
 800157c:	f002 f946 	bl	800380c <HAL_GPIO_WritePin>
    		HAL_GPIO_WritePin(GPIOB, GPIO_PIN_7, GPIO_PIN_RESET);
 8001580:	2200      	movs	r2, #0
 8001582:	2180      	movs	r1, #128	; 0x80
 8001584:	488a      	ldr	r0, [pc, #552]	; (80017b0 <displayAudioLevel+0x348>)
 8001586:	f002 f941 	bl	800380c <HAL_GPIO_WritePin>
 800158a:	e10d      	b.n	80017a8 <displayAudioLevel+0x340>
    	}

    	else if((input > 1800) && (input < 1900))   //Process raw value between 1800 and 1900
 800158c:	88fb      	ldrh	r3, [r7, #6]
 800158e:	f5b3 6fe1 	cmp.w	r3, #1800	; 0x708
 8001592:	d92a      	bls.n	80015ea <displayAudioLevel+0x182>
 8001594:	88fb      	ldrh	r3, [r7, #6]
 8001596:	f240 726b 	movw	r2, #1899	; 0x76b
 800159a:	4293      	cmp	r3, r2
 800159c:	d825      	bhi.n	80015ea <displayAudioLevel+0x182>
    	{
    		HAL_GPIO_WritePin(GPIOB, GPIO_PIN_0, GPIO_PIN_SET);
 800159e:	2201      	movs	r2, #1
 80015a0:	2101      	movs	r1, #1
 80015a2:	4883      	ldr	r0, [pc, #524]	; (80017b0 <displayAudioLevel+0x348>)
 80015a4:	f002 f932 	bl	800380c <HAL_GPIO_WritePin>
    		HAL_GPIO_WritePin(GPIOB, GPIO_PIN_1, GPIO_PIN_SET);
 80015a8:	2201      	movs	r2, #1
 80015aa:	2102      	movs	r1, #2
 80015ac:	4880      	ldr	r0, [pc, #512]	; (80017b0 <displayAudioLevel+0x348>)
 80015ae:	f002 f92d 	bl	800380c <HAL_GPIO_WritePin>
    		HAL_GPIO_WritePin(GPIOB, GPIO_PIN_3, GPIO_PIN_SET);
 80015b2:	2201      	movs	r2, #1
 80015b4:	2108      	movs	r1, #8
 80015b6:	487e      	ldr	r0, [pc, #504]	; (80017b0 <displayAudioLevel+0x348>)
 80015b8:	f002 f928 	bl	800380c <HAL_GPIO_WritePin>
    		HAL_GPIO_WritePin(GPIOB, GPIO_PIN_4, GPIO_PIN_SET);
 80015bc:	2201      	movs	r2, #1
 80015be:	2110      	movs	r1, #16
 80015c0:	487b      	ldr	r0, [pc, #492]	; (80017b0 <displayAudioLevel+0x348>)
 80015c2:	f002 f923 	bl	800380c <HAL_GPIO_WritePin>
    		HAL_GPIO_WritePin(GPIOB, GPIO_PIN_5, GPIO_PIN_RESET);
 80015c6:	2200      	movs	r2, #0
 80015c8:	2120      	movs	r1, #32
 80015ca:	4879      	ldr	r0, [pc, #484]	; (80017b0 <displayAudioLevel+0x348>)
 80015cc:	f002 f91e 	bl	800380c <HAL_GPIO_WritePin>
    		HAL_GPIO_WritePin(GPIOA, GPIO_PIN_11, GPIO_PIN_RESET);
 80015d0:	2200      	movs	r2, #0
 80015d2:	f44f 6100 	mov.w	r1, #2048	; 0x800
 80015d6:	f04f 4090 	mov.w	r0, #1207959552	; 0x48000000
 80015da:	f002 f917 	bl	800380c <HAL_GPIO_WritePin>
    		HAL_GPIO_WritePin(GPIOB, GPIO_PIN_7, GPIO_PIN_RESET);
 80015de:	2200      	movs	r2, #0
 80015e0:	2180      	movs	r1, #128	; 0x80
 80015e2:	4873      	ldr	r0, [pc, #460]	; (80017b0 <displayAudioLevel+0x348>)
 80015e4:	f002 f912 	bl	800380c <HAL_GPIO_WritePin>
 80015e8:	e0de      	b.n	80017a8 <displayAudioLevel+0x340>
    	}
    	else if((input > 1900) && (input < 2000)) 	//Process raw value between 1900 and 2000
 80015ea:	88fb      	ldrh	r3, [r7, #6]
 80015ec:	f240 726c 	movw	r2, #1900	; 0x76c
 80015f0:	4293      	cmp	r3, r2
 80015f2:	d929      	bls.n	8001648 <displayAudioLevel+0x1e0>
 80015f4:	88fb      	ldrh	r3, [r7, #6]
 80015f6:	f5b3 6ffa 	cmp.w	r3, #2000	; 0x7d0
 80015fa:	d225      	bcs.n	8001648 <displayAudioLevel+0x1e0>
    	{
    		HAL_GPIO_WritePin(GPIOB, GPIO_PIN_0, GPIO_PIN_SET);
 80015fc:	2201      	movs	r2, #1
 80015fe:	2101      	movs	r1, #1
 8001600:	486b      	ldr	r0, [pc, #428]	; (80017b0 <displayAudioLevel+0x348>)
 8001602:	f002 f903 	bl	800380c <HAL_GPIO_WritePin>
    		HAL_GPIO_WritePin(GPIOB, GPIO_PIN_1, GPIO_PIN_SET);
 8001606:	2201      	movs	r2, #1
 8001608:	2102      	movs	r1, #2
 800160a:	4869      	ldr	r0, [pc, #420]	; (80017b0 <displayAudioLevel+0x348>)
 800160c:	f002 f8fe 	bl	800380c <HAL_GPIO_WritePin>
    		HAL_GPIO_WritePin(GPIOB, GPIO_PIN_3, GPIO_PIN_SET);
 8001610:	2201      	movs	r2, #1
 8001612:	2108      	movs	r1, #8
 8001614:	4866      	ldr	r0, [pc, #408]	; (80017b0 <displayAudioLevel+0x348>)
 8001616:	f002 f8f9 	bl	800380c <HAL_GPIO_WritePin>
    		HAL_GPIO_WritePin(GPIOB, GPIO_PIN_4, GPIO_PIN_SET);
 800161a:	2201      	movs	r2, #1
 800161c:	2110      	movs	r1, #16
 800161e:	4864      	ldr	r0, [pc, #400]	; (80017b0 <displayAudioLevel+0x348>)
 8001620:	f002 f8f4 	bl	800380c <HAL_GPIO_WritePin>
    		HAL_GPIO_WritePin(GPIOB, GPIO_PIN_5, GPIO_PIN_SET);
 8001624:	2201      	movs	r2, #1
 8001626:	2120      	movs	r1, #32
 8001628:	4861      	ldr	r0, [pc, #388]	; (80017b0 <displayAudioLevel+0x348>)
 800162a:	f002 f8ef 	bl	800380c <HAL_GPIO_WritePin>
    		HAL_GPIO_WritePin(GPIOA, GPIO_PIN_11, GPIO_PIN_RESET);
 800162e:	2200      	movs	r2, #0
 8001630:	f44f 6100 	mov.w	r1, #2048	; 0x800
 8001634:	f04f 4090 	mov.w	r0, #1207959552	; 0x48000000
 8001638:	f002 f8e8 	bl	800380c <HAL_GPIO_WritePin>
   			HAL_GPIO_WritePin(GPIOB, GPIO_PIN_7, GPIO_PIN_RESET);
 800163c:	2200      	movs	r2, #0
 800163e:	2180      	movs	r1, #128	; 0x80
 8001640:	485b      	ldr	r0, [pc, #364]	; (80017b0 <displayAudioLevel+0x348>)
 8001642:	f002 f8e3 	bl	800380c <HAL_GPIO_WritePin>
 8001646:	e0af      	b.n	80017a8 <displayAudioLevel+0x340>
    	}
    	else if((input > 2000) && (input < 2100))	//Process raw value between 2000 and 2100
 8001648:	88fb      	ldrh	r3, [r7, #6]
 800164a:	f5b3 6ffa 	cmp.w	r3, #2000	; 0x7d0
 800164e:	d92a      	bls.n	80016a6 <displayAudioLevel+0x23e>
 8001650:	88fb      	ldrh	r3, [r7, #6]
 8001652:	f640 0233 	movw	r2, #2099	; 0x833
 8001656:	4293      	cmp	r3, r2
 8001658:	d825      	bhi.n	80016a6 <displayAudioLevel+0x23e>
    	{
    		HAL_GPIO_WritePin(GPIOB, GPIO_PIN_0, GPIO_PIN_SET);
 800165a:	2201      	movs	r2, #1
 800165c:	2101      	movs	r1, #1
 800165e:	4854      	ldr	r0, [pc, #336]	; (80017b0 <displayAudioLevel+0x348>)
 8001660:	f002 f8d4 	bl	800380c <HAL_GPIO_WritePin>
    		HAL_GPIO_WritePin(GPIOB, GPIO_PIN_1, GPIO_PIN_SET);
 8001664:	2201      	movs	r2, #1
 8001666:	2102      	movs	r1, #2
 8001668:	4851      	ldr	r0, [pc, #324]	; (80017b0 <displayAudioLevel+0x348>)
 800166a:	f002 f8cf 	bl	800380c <HAL_GPIO_WritePin>
    		HAL_GPIO_WritePin(GPIOB, GPIO_PIN_3, GPIO_PIN_SET);
 800166e:	2201      	movs	r2, #1
 8001670:	2108      	movs	r1, #8
 8001672:	484f      	ldr	r0, [pc, #316]	; (80017b0 <displayAudioLevel+0x348>)
 8001674:	f002 f8ca 	bl	800380c <HAL_GPIO_WritePin>
   			HAL_GPIO_WritePin(GPIOB, GPIO_PIN_4, GPIO_PIN_SET);
 8001678:	2201      	movs	r2, #1
 800167a:	2110      	movs	r1, #16
 800167c:	484c      	ldr	r0, [pc, #304]	; (80017b0 <displayAudioLevel+0x348>)
 800167e:	f002 f8c5 	bl	800380c <HAL_GPIO_WritePin>
   			HAL_GPIO_WritePin(GPIOB, GPIO_PIN_5, GPIO_PIN_SET);
 8001682:	2201      	movs	r2, #1
 8001684:	2120      	movs	r1, #32
 8001686:	484a      	ldr	r0, [pc, #296]	; (80017b0 <displayAudioLevel+0x348>)
 8001688:	f002 f8c0 	bl	800380c <HAL_GPIO_WritePin>
    		HAL_GPIO_WritePin(GPIOA, GPIO_PIN_11, GPIO_PIN_SET);
 800168c:	2201      	movs	r2, #1
 800168e:	f44f 6100 	mov.w	r1, #2048	; 0x800
 8001692:	f04f 4090 	mov.w	r0, #1207959552	; 0x48000000
 8001696:	f002 f8b9 	bl	800380c <HAL_GPIO_WritePin>
    		HAL_GPIO_WritePin(GPIOB, GPIO_PIN_7, GPIO_PIN_RESET);
 800169a:	2200      	movs	r2, #0
 800169c:	2180      	movs	r1, #128	; 0x80
 800169e:	4844      	ldr	r0, [pc, #272]	; (80017b0 <displayAudioLevel+0x348>)
 80016a0:	f002 f8b4 	bl	800380c <HAL_GPIO_WritePin>
 80016a4:	e080      	b.n	80017a8 <displayAudioLevel+0x340>
    	}
    	else if((input > 2100) && (input < 2200))	//Process raw value between 2100 and 2200
 80016a6:	88fb      	ldrh	r3, [r7, #6]
 80016a8:	f640 0234 	movw	r2, #2100	; 0x834
 80016ac:	4293      	cmp	r3, r2
 80016ae:	d92a      	bls.n	8001706 <displayAudioLevel+0x29e>
 80016b0:	88fb      	ldrh	r3, [r7, #6]
 80016b2:	f640 0297 	movw	r2, #2199	; 0x897
 80016b6:	4293      	cmp	r3, r2
 80016b8:	d825      	bhi.n	8001706 <displayAudioLevel+0x29e>
    			{
    		HAL_GPIO_WritePin(GPIOB, GPIO_PIN_0, GPIO_PIN_SET);
 80016ba:	2201      	movs	r2, #1
 80016bc:	2101      	movs	r1, #1
 80016be:	483c      	ldr	r0, [pc, #240]	; (80017b0 <displayAudioLevel+0x348>)
 80016c0:	f002 f8a4 	bl	800380c <HAL_GPIO_WritePin>
    		HAL_GPIO_WritePin(GPIOB, GPIO_PIN_1, GPIO_PIN_SET);
 80016c4:	2201      	movs	r2, #1
 80016c6:	2102      	movs	r1, #2
 80016c8:	4839      	ldr	r0, [pc, #228]	; (80017b0 <displayAudioLevel+0x348>)
 80016ca:	f002 f89f 	bl	800380c <HAL_GPIO_WritePin>
    		HAL_GPIO_WritePin(GPIOB, GPIO_PIN_3, GPIO_PIN_SET);
 80016ce:	2201      	movs	r2, #1
 80016d0:	2108      	movs	r1, #8
 80016d2:	4837      	ldr	r0, [pc, #220]	; (80017b0 <displayAudioLevel+0x348>)
 80016d4:	f002 f89a 	bl	800380c <HAL_GPIO_WritePin>
    		HAL_GPIO_WritePin(GPIOB, GPIO_PIN_4, GPIO_PIN_SET);
 80016d8:	2201      	movs	r2, #1
 80016da:	2110      	movs	r1, #16
 80016dc:	4834      	ldr	r0, [pc, #208]	; (80017b0 <displayAudioLevel+0x348>)
 80016de:	f002 f895 	bl	800380c <HAL_GPIO_WritePin>
    		HAL_GPIO_WritePin(GPIOB, GPIO_PIN_5, GPIO_PIN_SET);
 80016e2:	2201      	movs	r2, #1
 80016e4:	2120      	movs	r1, #32
 80016e6:	4832      	ldr	r0, [pc, #200]	; (80017b0 <displayAudioLevel+0x348>)
 80016e8:	f002 f890 	bl	800380c <HAL_GPIO_WritePin>
    		HAL_GPIO_WritePin(GPIOA, GPIO_PIN_11, GPIO_PIN_SET);
 80016ec:	2201      	movs	r2, #1
 80016ee:	f44f 6100 	mov.w	r1, #2048	; 0x800
 80016f2:	f04f 4090 	mov.w	r0, #1207959552	; 0x48000000
 80016f6:	f002 f889 	bl	800380c <HAL_GPIO_WritePin>
    		HAL_GPIO_WritePin(GPIOB, GPIO_PIN_7, GPIO_PIN_SET);
 80016fa:	2201      	movs	r2, #1
 80016fc:	2180      	movs	r1, #128	; 0x80
 80016fe:	482c      	ldr	r0, [pc, #176]	; (80017b0 <displayAudioLevel+0x348>)
 8001700:	f002 f884 	bl	800380c <HAL_GPIO_WritePin>
 8001704:	e050      	b.n	80017a8 <displayAudioLevel+0x340>
    			}
    	else if(input > 2200)						//Process value over 2200
 8001706:	88fb      	ldrh	r3, [r7, #6]
 8001708:	f640 0298 	movw	r2, #2200	; 0x898
 800170c:	4293      	cmp	r3, r2
 800170e:	d925      	bls.n	800175c <displayAudioLevel+0x2f4>
    	{
    		HAL_GPIO_WritePin(GPIOB, GPIO_PIN_0, GPIO_PIN_SET);
 8001710:	2201      	movs	r2, #1
 8001712:	2101      	movs	r1, #1
 8001714:	4826      	ldr	r0, [pc, #152]	; (80017b0 <displayAudioLevel+0x348>)
 8001716:	f002 f879 	bl	800380c <HAL_GPIO_WritePin>
    		HAL_GPIO_WritePin(GPIOB, GPIO_PIN_1, GPIO_PIN_SET);
 800171a:	2201      	movs	r2, #1
 800171c:	2102      	movs	r1, #2
 800171e:	4824      	ldr	r0, [pc, #144]	; (80017b0 <displayAudioLevel+0x348>)
 8001720:	f002 f874 	bl	800380c <HAL_GPIO_WritePin>
    		HAL_GPIO_WritePin(GPIOB, GPIO_PIN_3, GPIO_PIN_SET);
 8001724:	2201      	movs	r2, #1
 8001726:	2108      	movs	r1, #8
 8001728:	4821      	ldr	r0, [pc, #132]	; (80017b0 <displayAudioLevel+0x348>)
 800172a:	f002 f86f 	bl	800380c <HAL_GPIO_WritePin>
    		HAL_GPIO_WritePin(GPIOB, GPIO_PIN_4, GPIO_PIN_SET);
 800172e:	2201      	movs	r2, #1
 8001730:	2110      	movs	r1, #16
 8001732:	481f      	ldr	r0, [pc, #124]	; (80017b0 <displayAudioLevel+0x348>)
 8001734:	f002 f86a 	bl	800380c <HAL_GPIO_WritePin>
    		HAL_GPIO_WritePin(GPIOB, GPIO_PIN_5, GPIO_PIN_SET);
 8001738:	2201      	movs	r2, #1
 800173a:	2120      	movs	r1, #32
 800173c:	481c      	ldr	r0, [pc, #112]	; (80017b0 <displayAudioLevel+0x348>)
 800173e:	f002 f865 	bl	800380c <HAL_GPIO_WritePin>
    		HAL_GPIO_WritePin(GPIOA, GPIO_PIN_11, GPIO_PIN_SET);
 8001742:	2201      	movs	r2, #1
 8001744:	f44f 6100 	mov.w	r1, #2048	; 0x800
 8001748:	f04f 4090 	mov.w	r0, #1207959552	; 0x48000000
 800174c:	f002 f85e 	bl	800380c <HAL_GPIO_WritePin>
    		HAL_GPIO_WritePin(GPIOB, GPIO_PIN_7, GPIO_PIN_SET);
 8001750:	2201      	movs	r2, #1
 8001752:	2180      	movs	r1, #128	; 0x80
 8001754:	4816      	ldr	r0, [pc, #88]	; (80017b0 <displayAudioLevel+0x348>)
 8001756:	f002 f859 	bl	800380c <HAL_GPIO_WritePin>
    		HAL_GPIO_WritePin(GPIOB, GPIO_PIN_4, GPIO_PIN_RESET);
    		HAL_GPIO_WritePin(GPIOB, GPIO_PIN_5, GPIO_PIN_RESET);
    		HAL_GPIO_WritePin(GPIOA, GPIO_PIN_11, GPIO_PIN_RESET);
    		HAL_GPIO_WritePin(GPIOB, GPIO_PIN_7, GPIO_PIN_RESET);
    	}
}
 800175a:	e025      	b.n	80017a8 <displayAudioLevel+0x340>
    		HAL_GPIO_WritePin(GPIOB, GPIO_PIN_0, GPIO_PIN_RESET);
 800175c:	2200      	movs	r2, #0
 800175e:	2101      	movs	r1, #1
 8001760:	4813      	ldr	r0, [pc, #76]	; (80017b0 <displayAudioLevel+0x348>)
 8001762:	f002 f853 	bl	800380c <HAL_GPIO_WritePin>
    		HAL_GPIO_WritePin(GPIOB, GPIO_PIN_1, GPIO_PIN_RESET);
 8001766:	2200      	movs	r2, #0
 8001768:	2102      	movs	r1, #2
 800176a:	4811      	ldr	r0, [pc, #68]	; (80017b0 <displayAudioLevel+0x348>)
 800176c:	f002 f84e 	bl	800380c <HAL_GPIO_WritePin>
    		HAL_GPIO_WritePin(GPIOB, GPIO_PIN_3, GPIO_PIN_RESET);
 8001770:	2200      	movs	r2, #0
 8001772:	2108      	movs	r1, #8
 8001774:	480e      	ldr	r0, [pc, #56]	; (80017b0 <displayAudioLevel+0x348>)
 8001776:	f002 f849 	bl	800380c <HAL_GPIO_WritePin>
    		HAL_GPIO_WritePin(GPIOB, GPIO_PIN_4, GPIO_PIN_RESET);
 800177a:	2200      	movs	r2, #0
 800177c:	2110      	movs	r1, #16
 800177e:	480c      	ldr	r0, [pc, #48]	; (80017b0 <displayAudioLevel+0x348>)
 8001780:	f002 f844 	bl	800380c <HAL_GPIO_WritePin>
    		HAL_GPIO_WritePin(GPIOB, GPIO_PIN_5, GPIO_PIN_RESET);
 8001784:	2200      	movs	r2, #0
 8001786:	2120      	movs	r1, #32
 8001788:	4809      	ldr	r0, [pc, #36]	; (80017b0 <displayAudioLevel+0x348>)
 800178a:	f002 f83f 	bl	800380c <HAL_GPIO_WritePin>
    		HAL_GPIO_WritePin(GPIOA, GPIO_PIN_11, GPIO_PIN_RESET);
 800178e:	2200      	movs	r2, #0
 8001790:	f44f 6100 	mov.w	r1, #2048	; 0x800
 8001794:	f04f 4090 	mov.w	r0, #1207959552	; 0x48000000
 8001798:	f002 f838 	bl	800380c <HAL_GPIO_WritePin>
    		HAL_GPIO_WritePin(GPIOB, GPIO_PIN_7, GPIO_PIN_RESET);
 800179c:	2200      	movs	r2, #0
 800179e:	2180      	movs	r1, #128	; 0x80
 80017a0:	4803      	ldr	r0, [pc, #12]	; (80017b0 <displayAudioLevel+0x348>)
 80017a2:	f002 f833 	bl	800380c <HAL_GPIO_WritePin>
}
 80017a6:	e7ff      	b.n	80017a8 <displayAudioLevel+0x340>
 80017a8:	bf00      	nop
 80017aa:	3708      	adds	r7, #8
 80017ac:	46bd      	mov	sp, r7
 80017ae:	bd80      	pop	{r7, pc}
 80017b0:	48000400 	.word	0x48000400

080017b4 <SystemClock_Config>:
/**
  * @brief System Clock Configuration
  * @retval None
  */
void SystemClock_Config(void)
{
 80017b4:	b580      	push	{r7, lr}
 80017b6:	b096      	sub	sp, #88	; 0x58
 80017b8:	af00      	add	r7, sp, #0
  RCC_OscInitTypeDef RCC_OscInitStruct = {0};
 80017ba:	f107 0330 	add.w	r3, r7, #48	; 0x30
 80017be:	2228      	movs	r2, #40	; 0x28
 80017c0:	2100      	movs	r1, #0
 80017c2:	4618      	mov	r0, r3
 80017c4:	f003 ff32 	bl	800562c <memset>
  RCC_ClkInitTypeDef RCC_ClkInitStruct = {0};
 80017c8:	f107 031c 	add.w	r3, r7, #28
 80017cc:	2200      	movs	r2, #0
 80017ce:	601a      	str	r2, [r3, #0]
 80017d0:	605a      	str	r2, [r3, #4]
 80017d2:	609a      	str	r2, [r3, #8]
 80017d4:	60da      	str	r2, [r3, #12]
 80017d6:	611a      	str	r2, [r3, #16]
  RCC_PeriphCLKInitTypeDef PeriphClkInit = {0};
 80017d8:	1d3b      	adds	r3, r7, #4
 80017da:	2200      	movs	r2, #0
 80017dc:	601a      	str	r2, [r3, #0]
 80017de:	605a      	str	r2, [r3, #4]
 80017e0:	609a      	str	r2, [r3, #8]
 80017e2:	60da      	str	r2, [r3, #12]
 80017e4:	611a      	str	r2, [r3, #16]
 80017e6:	615a      	str	r2, [r3, #20]

  /** Initializes the RCC Oscillators according to the specified parameters
  * in the RCC_OscInitTypeDef structure.
  */
  RCC_OscInitStruct.OscillatorType = RCC_OSCILLATORTYPE_HSI;
 80017e8:	2302      	movs	r3, #2
 80017ea:	633b      	str	r3, [r7, #48]	; 0x30
  RCC_OscInitStruct.HSIState = RCC_HSI_ON;
 80017ec:	2301      	movs	r3, #1
 80017ee:	643b      	str	r3, [r7, #64]	; 0x40
  RCC_OscInitStruct.HSICalibrationValue = RCC_HSICALIBRATION_DEFAULT;
 80017f0:	2310      	movs	r3, #16
 80017f2:	647b      	str	r3, [r7, #68]	; 0x44
  RCC_OscInitStruct.PLL.PLLState = RCC_PLL_ON;
 80017f4:	2302      	movs	r3, #2
 80017f6:	64fb      	str	r3, [r7, #76]	; 0x4c
  RCC_OscInitStruct.PLL.PLLSource = RCC_PLLSOURCE_HSI;
 80017f8:	2300      	movs	r3, #0
 80017fa:	653b      	str	r3, [r7, #80]	; 0x50
  RCC_OscInitStruct.PLL.PLLMUL = RCC_PLL_MUL10;
 80017fc:	f44f 1300 	mov.w	r3, #2097152	; 0x200000
 8001800:	657b      	str	r3, [r7, #84]	; 0x54
  if (HAL_RCC_OscConfig(&RCC_OscInitStruct) != HAL_OK)
 8001802:	f107 0330 	add.w	r3, r7, #48	; 0x30
 8001806:	4618      	mov	r0, r3
 8001808:	f002 f818 	bl	800383c <HAL_RCC_OscConfig>
 800180c:	4603      	mov	r3, r0
 800180e:	2b00      	cmp	r3, #0
 8001810:	d001      	beq.n	8001816 <SystemClock_Config+0x62>
  {
    Error_Handler();
 8001812:	f000 f92b 	bl	8001a6c <Error_Handler>
  }

  /** Initializes the CPU, AHB and APB buses clocks
  */
  RCC_ClkInitStruct.ClockType = RCC_CLOCKTYPE_HCLK|RCC_CLOCKTYPE_SYSCLK
 8001816:	230f      	movs	r3, #15
 8001818:	61fb      	str	r3, [r7, #28]
                              |RCC_CLOCKTYPE_PCLK1|RCC_CLOCKTYPE_PCLK2;
  RCC_ClkInitStruct.SYSCLKSource = RCC_SYSCLKSOURCE_PLLCLK;
 800181a:	2302      	movs	r3, #2
 800181c:	623b      	str	r3, [r7, #32]
  RCC_ClkInitStruct.AHBCLKDivider = RCC_SYSCLK_DIV1;
 800181e:	2300      	movs	r3, #0
 8001820:	627b      	str	r3, [r7, #36]	; 0x24
  RCC_ClkInitStruct.APB1CLKDivider = RCC_HCLK_DIV2;
 8001822:	f44f 6380 	mov.w	r3, #1024	; 0x400
 8001826:	62bb      	str	r3, [r7, #40]	; 0x28
  RCC_ClkInitStruct.APB2CLKDivider = RCC_HCLK_DIV1;
 8001828:	2300      	movs	r3, #0
 800182a:	62fb      	str	r3, [r7, #44]	; 0x2c

  if (HAL_RCC_ClockConfig(&RCC_ClkInitStruct, FLASH_LATENCY_1) != HAL_OK)
 800182c:	f107 031c 	add.w	r3, r7, #28
 8001830:	2101      	movs	r1, #1
 8001832:	4618      	mov	r0, r3
 8001834:	f003 f840 	bl	80048b8 <HAL_RCC_ClockConfig>
 8001838:	4603      	mov	r3, r0
 800183a:	2b00      	cmp	r3, #0
 800183c:	d001      	beq.n	8001842 <SystemClock_Config+0x8e>
  {
    Error_Handler();
 800183e:	f000 f915 	bl	8001a6c <Error_Handler>
  }
  PeriphClkInit.PeriphClockSelection = RCC_PERIPHCLK_ADC12;
 8001842:	2380      	movs	r3, #128	; 0x80
 8001844:	607b      	str	r3, [r7, #4]
  PeriphClkInit.Adc12ClockSelection = RCC_ADC12PLLCLK_DIV1;
 8001846:	f44f 7380 	mov.w	r3, #256	; 0x100
 800184a:	617b      	str	r3, [r7, #20]
  if (HAL_RCCEx_PeriphCLKConfig(&PeriphClkInit) != HAL_OK)
 800184c:	1d3b      	adds	r3, r7, #4
 800184e:	4618      	mov	r0, r3
 8001850:	f003 fa68 	bl	8004d24 <HAL_RCCEx_PeriphCLKConfig>
 8001854:	4603      	mov	r3, r0
 8001856:	2b00      	cmp	r3, #0
 8001858:	d001      	beq.n	800185e <SystemClock_Config+0xaa>
  {
    Error_Handler();
 800185a:	f000 f907 	bl	8001a6c <Error_Handler>
  }
}
 800185e:	bf00      	nop
 8001860:	3758      	adds	r7, #88	; 0x58
 8001862:	46bd      	mov	sp, r7
 8001864:	bd80      	pop	{r7, pc}
	...

08001868 <MX_ADC1_Init>:
  * @brief ADC1 Initialization Function
  * @param None
  * @retval None
  */
static void MX_ADC1_Init(void)
{
 8001868:	b580      	push	{r7, lr}
 800186a:	b08a      	sub	sp, #40	; 0x28
 800186c:	af00      	add	r7, sp, #0

  /* USER CODE BEGIN ADC1_Init 0 */

  /* USER CODE END ADC1_Init 0 */

  ADC_MultiModeTypeDef multimode = {0};
 800186e:	f107 031c 	add.w	r3, r7, #28
 8001872:	2200      	movs	r2, #0
 8001874:	601a      	str	r2, [r3, #0]
 8001876:	605a      	str	r2, [r3, #4]
 8001878:	609a      	str	r2, [r3, #8]
  ADC_ChannelConfTypeDef sConfig = {0};
 800187a:	1d3b      	adds	r3, r7, #4
 800187c:	2200      	movs	r2, #0
 800187e:	601a      	str	r2, [r3, #0]
 8001880:	605a      	str	r2, [r3, #4]
 8001882:	609a      	str	r2, [r3, #8]
 8001884:	60da      	str	r2, [r3, #12]
 8001886:	611a      	str	r2, [r3, #16]
 8001888:	615a      	str	r2, [r3, #20]

  /* USER CODE END ADC1_Init 1 */

  /** Common config
  */
  hadc1.Instance = ADC1;
 800188a:	4b2e      	ldr	r3, [pc, #184]	; (8001944 <MX_ADC1_Init+0xdc>)
 800188c:	f04f 42a0 	mov.w	r2, #1342177280	; 0x50000000
 8001890:	601a      	str	r2, [r3, #0]
  hadc1.Init.ClockPrescaler = ADC_CLOCK_ASYNC_DIV1;
 8001892:	4b2c      	ldr	r3, [pc, #176]	; (8001944 <MX_ADC1_Init+0xdc>)
 8001894:	2200      	movs	r2, #0
 8001896:	605a      	str	r2, [r3, #4]
  hadc1.Init.Resolution = ADC_RESOLUTION_12B;
 8001898:	4b2a      	ldr	r3, [pc, #168]	; (8001944 <MX_ADC1_Init+0xdc>)
 800189a:	2200      	movs	r2, #0
 800189c:	609a      	str	r2, [r3, #8]
  hadc1.Init.ScanConvMode = ADC_SCAN_DISABLE;
 800189e:	4b29      	ldr	r3, [pc, #164]	; (8001944 <MX_ADC1_Init+0xdc>)
 80018a0:	2200      	movs	r2, #0
 80018a2:	611a      	str	r2, [r3, #16]
  hadc1.Init.ContinuousConvMode = ENABLE;
 80018a4:	4b27      	ldr	r3, [pc, #156]	; (8001944 <MX_ADC1_Init+0xdc>)
 80018a6:	2201      	movs	r2, #1
 80018a8:	765a      	strb	r2, [r3, #25]
  hadc1.Init.DiscontinuousConvMode = DISABLE;
 80018aa:	4b26      	ldr	r3, [pc, #152]	; (8001944 <MX_ADC1_Init+0xdc>)
 80018ac:	2200      	movs	r2, #0
 80018ae:	f883 2020 	strb.w	r2, [r3, #32]
  hadc1.Init.ExternalTrigConvEdge = ADC_EXTERNALTRIGCONVEDGE_NONE;
 80018b2:	4b24      	ldr	r3, [pc, #144]	; (8001944 <MX_ADC1_Init+0xdc>)
 80018b4:	2200      	movs	r2, #0
 80018b6:	62da      	str	r2, [r3, #44]	; 0x2c
  hadc1.Init.ExternalTrigConv = ADC_SOFTWARE_START;
 80018b8:	4b22      	ldr	r3, [pc, #136]	; (8001944 <MX_ADC1_Init+0xdc>)
 80018ba:	2201      	movs	r2, #1
 80018bc:	629a      	str	r2, [r3, #40]	; 0x28
  hadc1.Init.DataAlign = ADC_DATAALIGN_RIGHT;
 80018be:	4b21      	ldr	r3, [pc, #132]	; (8001944 <MX_ADC1_Init+0xdc>)
 80018c0:	2200      	movs	r2, #0
 80018c2:	60da      	str	r2, [r3, #12]
  hadc1.Init.NbrOfConversion = 1;
 80018c4:	4b1f      	ldr	r3, [pc, #124]	; (8001944 <MX_ADC1_Init+0xdc>)
 80018c6:	2201      	movs	r2, #1
 80018c8:	61da      	str	r2, [r3, #28]
  hadc1.Init.DMAContinuousRequests = DISABLE;
 80018ca:	4b1e      	ldr	r3, [pc, #120]	; (8001944 <MX_ADC1_Init+0xdc>)
 80018cc:	2200      	movs	r2, #0
 80018ce:	f883 2030 	strb.w	r2, [r3, #48]	; 0x30
  hadc1.Init.EOCSelection = ADC_EOC_SINGLE_CONV;
 80018d2:	4b1c      	ldr	r3, [pc, #112]	; (8001944 <MX_ADC1_Init+0xdc>)
 80018d4:	2204      	movs	r2, #4
 80018d6:	615a      	str	r2, [r3, #20]
  hadc1.Init.LowPowerAutoWait = DISABLE;
 80018d8:	4b1a      	ldr	r3, [pc, #104]	; (8001944 <MX_ADC1_Init+0xdc>)
 80018da:	2200      	movs	r2, #0
 80018dc:	761a      	strb	r2, [r3, #24]
  hadc1.Init.Overrun = ADC_OVR_DATA_OVERWRITTEN;
 80018de:	4b19      	ldr	r3, [pc, #100]	; (8001944 <MX_ADC1_Init+0xdc>)
 80018e0:	2200      	movs	r2, #0
 80018e2:	635a      	str	r2, [r3, #52]	; 0x34
  if (HAL_ADC_Init(&hadc1) != HAL_OK)
 80018e4:	4817      	ldr	r0, [pc, #92]	; (8001944 <MX_ADC1_Init+0xdc>)
 80018e6:	f000 fb51 	bl	8001f8c <HAL_ADC_Init>
 80018ea:	4603      	mov	r3, r0
 80018ec:	2b00      	cmp	r3, #0
 80018ee:	d001      	beq.n	80018f4 <MX_ADC1_Init+0x8c>
  {
    Error_Handler();
 80018f0:	f000 f8bc 	bl	8001a6c <Error_Handler>
  }

  /** Configure the ADC multi-mode
  */
  multimode.Mode = ADC_MODE_INDEPENDENT;
 80018f4:	2300      	movs	r3, #0
 80018f6:	61fb      	str	r3, [r7, #28]
  if (HAL_ADCEx_MultiModeConfigChannel(&hadc1, &multimode) != HAL_OK)
 80018f8:	f107 031c 	add.w	r3, r7, #28
 80018fc:	4619      	mov	r1, r3
 80018fe:	4811      	ldr	r0, [pc, #68]	; (8001944 <MX_ADC1_Init+0xdc>)
 8001900:	f001 fb70 	bl	8002fe4 <HAL_ADCEx_MultiModeConfigChannel>
 8001904:	4603      	mov	r3, r0
 8001906:	2b00      	cmp	r3, #0
 8001908:	d001      	beq.n	800190e <MX_ADC1_Init+0xa6>
  {
    Error_Handler();
 800190a:	f000 f8af 	bl	8001a6c <Error_Handler>
  }

  /** Configure Regular Channel
  */
  sConfig.Channel = ADC_CHANNEL_1;
 800190e:	2301      	movs	r3, #1
 8001910:	607b      	str	r3, [r7, #4]
  sConfig.Rank = ADC_REGULAR_RANK_1;
 8001912:	2301      	movs	r3, #1
 8001914:	60bb      	str	r3, [r7, #8]
  sConfig.SingleDiff = ADC_SINGLE_ENDED;
 8001916:	2300      	movs	r3, #0
 8001918:	613b      	str	r3, [r7, #16]
  sConfig.SamplingTime = ADC_SAMPLETIME_1CYCLE_5;
 800191a:	2300      	movs	r3, #0
 800191c:	60fb      	str	r3, [r7, #12]
  sConfig.OffsetNumber = ADC_OFFSET_NONE;
 800191e:	2300      	movs	r3, #0
 8001920:	617b      	str	r3, [r7, #20]
  sConfig.Offset = 0;
 8001922:	2300      	movs	r3, #0
 8001924:	61bb      	str	r3, [r7, #24]
  if (HAL_ADC_ConfigChannel(&hadc1, &sConfig) != HAL_OK)
 8001926:	1d3b      	adds	r3, r7, #4
 8001928:	4619      	mov	r1, r3
 800192a:	4806      	ldr	r0, [pc, #24]	; (8001944 <MX_ADC1_Init+0xdc>)
 800192c:	f001 f89a 	bl	8002a64 <HAL_ADC_ConfigChannel>
 8001930:	4603      	mov	r3, r0
 8001932:	2b00      	cmp	r3, #0
 8001934:	d001      	beq.n	800193a <MX_ADC1_Init+0xd2>
  {
    Error_Handler();
 8001936:	f000 f899 	bl	8001a6c <Error_Handler>
  }
  /* USER CODE BEGIN ADC1_Init 2 */

  /* USER CODE END ADC1_Init 2 */

}
 800193a:	bf00      	nop
 800193c:	3728      	adds	r7, #40	; 0x28
 800193e:	46bd      	mov	sp, r7
 8001940:	bd80      	pop	{r7, pc}
 8001942:	bf00      	nop
 8001944:	20000220 	.word	0x20000220

08001948 <MX_USART2_UART_Init>:
  * @brief USART2 Initialization Function
  * @param None
  * @retval None
  */
static void MX_USART2_UART_Init(void)
{
 8001948:	b580      	push	{r7, lr}
 800194a:	af00      	add	r7, sp, #0
  /* USER CODE END USART2_Init 0 */

  /* USER CODE BEGIN USART2_Init 1 */

  /* USER CODE END USART2_Init 1 */
  huart2.Instance = USART2;
 800194c:	4b14      	ldr	r3, [pc, #80]	; (80019a0 <MX_USART2_UART_Init+0x58>)
 800194e:	4a15      	ldr	r2, [pc, #84]	; (80019a4 <MX_USART2_UART_Init+0x5c>)
 8001950:	601a      	str	r2, [r3, #0]
  huart2.Init.BaudRate = 38400;
 8001952:	4b13      	ldr	r3, [pc, #76]	; (80019a0 <MX_USART2_UART_Init+0x58>)
 8001954:	f44f 4216 	mov.w	r2, #38400	; 0x9600
 8001958:	605a      	str	r2, [r3, #4]
  huart2.Init.WordLength = UART_WORDLENGTH_8B;
 800195a:	4b11      	ldr	r3, [pc, #68]	; (80019a0 <MX_USART2_UART_Init+0x58>)
 800195c:	2200      	movs	r2, #0
 800195e:	609a      	str	r2, [r3, #8]
  huart2.Init.StopBits = UART_STOPBITS_1;
 8001960:	4b0f      	ldr	r3, [pc, #60]	; (80019a0 <MX_USART2_UART_Init+0x58>)
 8001962:	2200      	movs	r2, #0
 8001964:	60da      	str	r2, [r3, #12]
  huart2.Init.Parity = UART_PARITY_NONE;
 8001966:	4b0e      	ldr	r3, [pc, #56]	; (80019a0 <MX_USART2_UART_Init+0x58>)
 8001968:	2200      	movs	r2, #0
 800196a:	611a      	str	r2, [r3, #16]
  huart2.Init.Mode = UART_MODE_TX_RX;
 800196c:	4b0c      	ldr	r3, [pc, #48]	; (80019a0 <MX_USART2_UART_Init+0x58>)
 800196e:	220c      	movs	r2, #12
 8001970:	615a      	str	r2, [r3, #20]
  huart2.Init.HwFlowCtl = UART_HWCONTROL_NONE;
 8001972:	4b0b      	ldr	r3, [pc, #44]	; (80019a0 <MX_USART2_UART_Init+0x58>)
 8001974:	2200      	movs	r2, #0
 8001976:	619a      	str	r2, [r3, #24]
  huart2.Init.OverSampling = UART_OVERSAMPLING_16;
 8001978:	4b09      	ldr	r3, [pc, #36]	; (80019a0 <MX_USART2_UART_Init+0x58>)
 800197a:	2200      	movs	r2, #0
 800197c:	61da      	str	r2, [r3, #28]
  huart2.Init.OneBitSampling = UART_ONE_BIT_SAMPLE_DISABLE;
 800197e:	4b08      	ldr	r3, [pc, #32]	; (80019a0 <MX_USART2_UART_Init+0x58>)
 8001980:	2200      	movs	r2, #0
 8001982:	621a      	str	r2, [r3, #32]
  huart2.AdvancedInit.AdvFeatureInit = UART_ADVFEATURE_NO_INIT;
 8001984:	4b06      	ldr	r3, [pc, #24]	; (80019a0 <MX_USART2_UART_Init+0x58>)
 8001986:	2200      	movs	r2, #0
 8001988:	625a      	str	r2, [r3, #36]	; 0x24
  if (HAL_UART_Init(&huart2) != HAL_OK)
 800198a:	4805      	ldr	r0, [pc, #20]	; (80019a0 <MX_USART2_UART_Init+0x58>)
 800198c:	f003 faf0 	bl	8004f70 <HAL_UART_Init>
 8001990:	4603      	mov	r3, r0
 8001992:	2b00      	cmp	r3, #0
 8001994:	d001      	beq.n	800199a <MX_USART2_UART_Init+0x52>
  {
    Error_Handler();
 8001996:	f000 f869 	bl	8001a6c <Error_Handler>
  }
  /* USER CODE BEGIN USART2_Init 2 */

  /* USER CODE END USART2_Init 2 */

}
 800199a:	bf00      	nop
 800199c:	bd80      	pop	{r7, pc}
 800199e:	bf00      	nop
 80019a0:	20000270 	.word	0x20000270
 80019a4:	40004400 	.word	0x40004400

080019a8 <MX_GPIO_Init>:
  * @brief GPIO Initialization Function
  * @param None
  * @retval None
  */
static void MX_GPIO_Init(void)
{
 80019a8:	b580      	push	{r7, lr}
 80019aa:	b088      	sub	sp, #32
 80019ac:	af00      	add	r7, sp, #0
  GPIO_InitTypeDef GPIO_InitStruct = {0};
 80019ae:	f107 030c 	add.w	r3, r7, #12
 80019b2:	2200      	movs	r2, #0
 80019b4:	601a      	str	r2, [r3, #0]
 80019b6:	605a      	str	r2, [r3, #4]
 80019b8:	609a      	str	r2, [r3, #8]
 80019ba:	60da      	str	r2, [r3, #12]
 80019bc:	611a      	str	r2, [r3, #16]

  /* GPIO Ports Clock Enable */
  __HAL_RCC_GPIOF_CLK_ENABLE();
 80019be:	4b29      	ldr	r3, [pc, #164]	; (8001a64 <MX_GPIO_Init+0xbc>)
 80019c0:	695b      	ldr	r3, [r3, #20]
 80019c2:	4a28      	ldr	r2, [pc, #160]	; (8001a64 <MX_GPIO_Init+0xbc>)
 80019c4:	f443 0380 	orr.w	r3, r3, #4194304	; 0x400000
 80019c8:	6153      	str	r3, [r2, #20]
 80019ca:	4b26      	ldr	r3, [pc, #152]	; (8001a64 <MX_GPIO_Init+0xbc>)
 80019cc:	695b      	ldr	r3, [r3, #20]
 80019ce:	f403 0380 	and.w	r3, r3, #4194304	; 0x400000
 80019d2:	60bb      	str	r3, [r7, #8]
 80019d4:	68bb      	ldr	r3, [r7, #8]
  __HAL_RCC_GPIOA_CLK_ENABLE();
 80019d6:	4b23      	ldr	r3, [pc, #140]	; (8001a64 <MX_GPIO_Init+0xbc>)
 80019d8:	695b      	ldr	r3, [r3, #20]
 80019da:	4a22      	ldr	r2, [pc, #136]	; (8001a64 <MX_GPIO_Init+0xbc>)
 80019dc:	f443 3300 	orr.w	r3, r3, #131072	; 0x20000
 80019e0:	6153      	str	r3, [r2, #20]
 80019e2:	4b20      	ldr	r3, [pc, #128]	; (8001a64 <MX_GPIO_Init+0xbc>)
 80019e4:	695b      	ldr	r3, [r3, #20]
 80019e6:	f403 3300 	and.w	r3, r3, #131072	; 0x20000
 80019ea:	607b      	str	r3, [r7, #4]
 80019ec:	687b      	ldr	r3, [r7, #4]
  __HAL_RCC_GPIOB_CLK_ENABLE();
 80019ee:	4b1d      	ldr	r3, [pc, #116]	; (8001a64 <MX_GPIO_Init+0xbc>)
 80019f0:	695b      	ldr	r3, [r3, #20]
 80019f2:	4a1c      	ldr	r2, [pc, #112]	; (8001a64 <MX_GPIO_Init+0xbc>)
 80019f4:	f443 2380 	orr.w	r3, r3, #262144	; 0x40000
 80019f8:	6153      	str	r3, [r2, #20]
 80019fa:	4b1a      	ldr	r3, [pc, #104]	; (8001a64 <MX_GPIO_Init+0xbc>)
 80019fc:	695b      	ldr	r3, [r3, #20]
 80019fe:	f403 2380 	and.w	r3, r3, #262144	; 0x40000
 8001a02:	603b      	str	r3, [r7, #0]
 8001a04:	683b      	ldr	r3, [r7, #0]

  /*Configure GPIO pin Output Level */
  HAL_GPIO_WritePin(GPIOA, GPIO_PIN_1|GPIO_PIN_3|GPIO_PIN_4|GPIO_PIN_6
 8001a06:	2200      	movs	r2, #0
 8001a08:	f640 71da 	movw	r1, #4058	; 0xfda
 8001a0c:	f04f 4090 	mov.w	r0, #1207959552	; 0x48000000
 8001a10:	f001 fefc 	bl	800380c <HAL_GPIO_WritePin>
                          |GPIO_PIN_7|GPIO_PIN_8|GPIO_PIN_9|GPIO_PIN_10
                          |GPIO_PIN_11, GPIO_PIN_RESET);

  /*Configure GPIO pin Output Level */
  HAL_GPIO_WritePin(GPIOB, GPIO_PIN_0|GPIO_PIN_1|GPIO_PIN_3|GPIO_PIN_4
 8001a14:	2200      	movs	r2, #0
 8001a16:	21bb      	movs	r1, #187	; 0xbb
 8001a18:	4813      	ldr	r0, [pc, #76]	; (8001a68 <MX_GPIO_Init+0xc0>)
 8001a1a:	f001 fef7 	bl	800380c <HAL_GPIO_WritePin>
                          |GPIO_PIN_5|GPIO_PIN_7, GPIO_PIN_RESET);

  /*Configure GPIO pins : PA1 PA3 PA4 PA6
                           PA7 PA8 PA9 PA10
                           PA11 */
  GPIO_InitStruct.Pin = GPIO_PIN_1|GPIO_PIN_3|GPIO_PIN_4|GPIO_PIN_6
 8001a1e:	f640 73da 	movw	r3, #4058	; 0xfda
 8001a22:	60fb      	str	r3, [r7, #12]
                          |GPIO_PIN_7|GPIO_PIN_8|GPIO_PIN_9|GPIO_PIN_10
                          |GPIO_PIN_11;
  GPIO_InitStruct.Mode = GPIO_MODE_OUTPUT_PP;
 8001a24:	2301      	movs	r3, #1
 8001a26:	613b      	str	r3, [r7, #16]
  GPIO_InitStruct.Pull = GPIO_NOPULL;
 8001a28:	2300      	movs	r3, #0
 8001a2a:	617b      	str	r3, [r7, #20]
  GPIO_InitStruct.Speed = GPIO_SPEED_FREQ_LOW;
 8001a2c:	2300      	movs	r3, #0
 8001a2e:	61bb      	str	r3, [r7, #24]
  HAL_GPIO_Init(GPIOA, &GPIO_InitStruct);
 8001a30:	f107 030c 	add.w	r3, r7, #12
 8001a34:	4619      	mov	r1, r3
 8001a36:	f04f 4090 	mov.w	r0, #1207959552	; 0x48000000
 8001a3a:	f001 fd75 	bl	8003528 <HAL_GPIO_Init>

  /*Configure GPIO pins : PB0 PB1 PB3 PB4
                           PB5 PB7 */
  GPIO_InitStruct.Pin = GPIO_PIN_0|GPIO_PIN_1|GPIO_PIN_3|GPIO_PIN_4
 8001a3e:	23bb      	movs	r3, #187	; 0xbb
 8001a40:	60fb      	str	r3, [r7, #12]
                          |GPIO_PIN_5|GPIO_PIN_7;
  GPIO_InitStruct.Mode = GPIO_MODE_OUTPUT_PP;
 8001a42:	2301      	movs	r3, #1
 8001a44:	613b      	str	r3, [r7, #16]
  GPIO_InitStruct.Pull = GPIO_NOPULL;
 8001a46:	2300      	movs	r3, #0
 8001a48:	617b      	str	r3, [r7, #20]
  GPIO_InitStruct.Speed = GPIO_SPEED_FREQ_LOW;
 8001a4a:	2300      	movs	r3, #0
 8001a4c:	61bb      	str	r3, [r7, #24]
  HAL_GPIO_Init(GPIOB, &GPIO_InitStruct);
 8001a4e:	f107 030c 	add.w	r3, r7, #12
 8001a52:	4619      	mov	r1, r3
 8001a54:	4804      	ldr	r0, [pc, #16]	; (8001a68 <MX_GPIO_Init+0xc0>)
 8001a56:	f001 fd67 	bl	8003528 <HAL_GPIO_Init>

}
 8001a5a:	bf00      	nop
 8001a5c:	3720      	adds	r7, #32
 8001a5e:	46bd      	mov	sp, r7
 8001a60:	bd80      	pop	{r7, pc}
 8001a62:	bf00      	nop
 8001a64:	40021000 	.word	0x40021000
 8001a68:	48000400 	.word	0x48000400

08001a6c <Error_Handler>:
/**
  * @brief  This function is executed in case of error occurrence.
  * @retval None
  */
void Error_Handler(void)
{
 8001a6c:	b480      	push	{r7}
 8001a6e:	af00      	add	r7, sp, #0
  \details Disables IRQ interrupts by setting the I-bit in the CPSR.
           Can only be executed in Privileged modes.
 */
__STATIC_FORCEINLINE void __disable_irq(void)
{
  __ASM volatile ("cpsid i" : : : "memory");
 8001a70:	b672      	cpsid	i
}
 8001a72:	bf00      	nop
  /* USER CODE BEGIN Error_Handler_Debug */
  /* User can add his own implementation to report the HAL error return state */
  __disable_irq();
  while (1)
 8001a74:	e7fe      	b.n	8001a74 <Error_Handler+0x8>
	...

08001a78 <HAL_MspInit>:
/* USER CODE END 0 */
/**
  * Initializes the Global MSP.
  */
void HAL_MspInit(void)
{
 8001a78:	b480      	push	{r7}
 8001a7a:	b083      	sub	sp, #12
 8001a7c:	af00      	add	r7, sp, #0
  /* USER CODE BEGIN MspInit 0 */

  /* USER CODE END MspInit 0 */

  __HAL_RCC_SYSCFG_CLK_ENABLE();
 8001a7e:	4b0f      	ldr	r3, [pc, #60]	; (8001abc <HAL_MspInit+0x44>)
 8001a80:	699b      	ldr	r3, [r3, #24]
 8001a82:	4a0e      	ldr	r2, [pc, #56]	; (8001abc <HAL_MspInit+0x44>)
 8001a84:	f043 0301 	orr.w	r3, r3, #1
 8001a88:	6193      	str	r3, [r2, #24]
 8001a8a:	4b0c      	ldr	r3, [pc, #48]	; (8001abc <HAL_MspInit+0x44>)
 8001a8c:	699b      	ldr	r3, [r3, #24]
 8001a8e:	f003 0301 	and.w	r3, r3, #1
 8001a92:	607b      	str	r3, [r7, #4]
 8001a94:	687b      	ldr	r3, [r7, #4]
  __HAL_RCC_PWR_CLK_ENABLE();
 8001a96:	4b09      	ldr	r3, [pc, #36]	; (8001abc <HAL_MspInit+0x44>)
 8001a98:	69db      	ldr	r3, [r3, #28]
 8001a9a:	4a08      	ldr	r2, [pc, #32]	; (8001abc <HAL_MspInit+0x44>)
 8001a9c:	f043 5380 	orr.w	r3, r3, #268435456	; 0x10000000
 8001aa0:	61d3      	str	r3, [r2, #28]
 8001aa2:	4b06      	ldr	r3, [pc, #24]	; (8001abc <HAL_MspInit+0x44>)
 8001aa4:	69db      	ldr	r3, [r3, #28]
 8001aa6:	f003 5380 	and.w	r3, r3, #268435456	; 0x10000000
 8001aaa:	603b      	str	r3, [r7, #0]
 8001aac:	683b      	ldr	r3, [r7, #0]
  /* System interrupt init*/

  /* USER CODE BEGIN MspInit 1 */

  /* USER CODE END MspInit 1 */
}
 8001aae:	bf00      	nop
 8001ab0:	370c      	adds	r7, #12
 8001ab2:	46bd      	mov	sp, r7
 8001ab4:	f85d 7b04 	ldr.w	r7, [sp], #4
 8001ab8:	4770      	bx	lr
 8001aba:	bf00      	nop
 8001abc:	40021000 	.word	0x40021000

08001ac0 <HAL_ADC_MspInit>:
* This function configures the hardware resources used in this example
* @param hadc: ADC handle pointer
* @retval None
*/
void HAL_ADC_MspInit(ADC_HandleTypeDef* hadc)
{
 8001ac0:	b580      	push	{r7, lr}
 8001ac2:	b08a      	sub	sp, #40	; 0x28
 8001ac4:	af00      	add	r7, sp, #0
 8001ac6:	6078      	str	r0, [r7, #4]
  GPIO_InitTypeDef GPIO_InitStruct = {0};
 8001ac8:	f107 0314 	add.w	r3, r7, #20
 8001acc:	2200      	movs	r2, #0
 8001ace:	601a      	str	r2, [r3, #0]
 8001ad0:	605a      	str	r2, [r3, #4]
 8001ad2:	609a      	str	r2, [r3, #8]
 8001ad4:	60da      	str	r2, [r3, #12]
 8001ad6:	611a      	str	r2, [r3, #16]
  if(hadc->Instance==ADC1)
 8001ad8:	687b      	ldr	r3, [r7, #4]
 8001ada:	681b      	ldr	r3, [r3, #0]
 8001adc:	f1b3 4fa0 	cmp.w	r3, #1342177280	; 0x50000000
 8001ae0:	d12c      	bne.n	8001b3c <HAL_ADC_MspInit+0x7c>
  {
  /* USER CODE BEGIN ADC1_MspInit 0 */

  /* USER CODE END ADC1_MspInit 0 */
    /* Peripheral clock enable */
    __HAL_RCC_ADC12_CLK_ENABLE();
 8001ae2:	4b18      	ldr	r3, [pc, #96]	; (8001b44 <HAL_ADC_MspInit+0x84>)
 8001ae4:	695b      	ldr	r3, [r3, #20]
 8001ae6:	4a17      	ldr	r2, [pc, #92]	; (8001b44 <HAL_ADC_MspInit+0x84>)
 8001ae8:	f043 5380 	orr.w	r3, r3, #268435456	; 0x10000000
 8001aec:	6153      	str	r3, [r2, #20]
 8001aee:	4b15      	ldr	r3, [pc, #84]	; (8001b44 <HAL_ADC_MspInit+0x84>)
 8001af0:	695b      	ldr	r3, [r3, #20]
 8001af2:	f003 5380 	and.w	r3, r3, #268435456	; 0x10000000
 8001af6:	613b      	str	r3, [r7, #16]
 8001af8:	693b      	ldr	r3, [r7, #16]

    __HAL_RCC_GPIOA_CLK_ENABLE();
 8001afa:	4b12      	ldr	r3, [pc, #72]	; (8001b44 <HAL_ADC_MspInit+0x84>)
 8001afc:	695b      	ldr	r3, [r3, #20]
 8001afe:	4a11      	ldr	r2, [pc, #68]	; (8001b44 <HAL_ADC_MspInit+0x84>)
 8001b00:	f443 3300 	orr.w	r3, r3, #131072	; 0x20000
 8001b04:	6153      	str	r3, [r2, #20]
 8001b06:	4b0f      	ldr	r3, [pc, #60]	; (8001b44 <HAL_ADC_MspInit+0x84>)
 8001b08:	695b      	ldr	r3, [r3, #20]
 8001b0a:	f403 3300 	and.w	r3, r3, #131072	; 0x20000
 8001b0e:	60fb      	str	r3, [r7, #12]
 8001b10:	68fb      	ldr	r3, [r7, #12]
    /**ADC1 GPIO Configuration
    PA0     ------> ADC1_IN1
    */
    GPIO_InitStruct.Pin = GPIO_PIN_0;
 8001b12:	2301      	movs	r3, #1
 8001b14:	617b      	str	r3, [r7, #20]
    GPIO_InitStruct.Mode = GPIO_MODE_ANALOG;
 8001b16:	2303      	movs	r3, #3
 8001b18:	61bb      	str	r3, [r7, #24]
    GPIO_InitStruct.Pull = GPIO_NOPULL;
 8001b1a:	2300      	movs	r3, #0
 8001b1c:	61fb      	str	r3, [r7, #28]
    HAL_GPIO_Init(GPIOA, &GPIO_InitStruct);
 8001b1e:	f107 0314 	add.w	r3, r7, #20
 8001b22:	4619      	mov	r1, r3
 8001b24:	f04f 4090 	mov.w	r0, #1207959552	; 0x48000000
 8001b28:	f001 fcfe 	bl	8003528 <HAL_GPIO_Init>

    /* ADC1 interrupt Init */
    HAL_NVIC_SetPriority(ADC1_2_IRQn, 0, 0);
 8001b2c:	2200      	movs	r2, #0
 8001b2e:	2100      	movs	r1, #0
 8001b30:	2012      	movs	r0, #18
 8001b32:	f001 fcc2 	bl	80034ba <HAL_NVIC_SetPriority>
    HAL_NVIC_EnableIRQ(ADC1_2_IRQn);
 8001b36:	2012      	movs	r0, #18
 8001b38:	f001 fcdb 	bl	80034f2 <HAL_NVIC_EnableIRQ>
  /* USER CODE BEGIN ADC1_MspInit 1 */

  /* USER CODE END ADC1_MspInit 1 */
  }

}
 8001b3c:	bf00      	nop
 8001b3e:	3728      	adds	r7, #40	; 0x28
 8001b40:	46bd      	mov	sp, r7
 8001b42:	bd80      	pop	{r7, pc}
 8001b44:	40021000 	.word	0x40021000

08001b48 <HAL_UART_MspInit>:
* This function configures the hardware resources used in this example
* @param huart: UART handle pointer
* @retval None
*/
void HAL_UART_MspInit(UART_HandleTypeDef* huart)
{
 8001b48:	b580      	push	{r7, lr}
 8001b4a:	b08a      	sub	sp, #40	; 0x28
 8001b4c:	af00      	add	r7, sp, #0
 8001b4e:	6078      	str	r0, [r7, #4]
  GPIO_InitTypeDef GPIO_InitStruct = {0};
 8001b50:	f107 0314 	add.w	r3, r7, #20
 8001b54:	2200      	movs	r2, #0
 8001b56:	601a      	str	r2, [r3, #0]
 8001b58:	605a      	str	r2, [r3, #4]
 8001b5a:	609a      	str	r2, [r3, #8]
 8001b5c:	60da      	str	r2, [r3, #12]
 8001b5e:	611a      	str	r2, [r3, #16]
  if(huart->Instance==USART2)
 8001b60:	687b      	ldr	r3, [r7, #4]
 8001b62:	681b      	ldr	r3, [r3, #0]
 8001b64:	4a18      	ldr	r2, [pc, #96]	; (8001bc8 <HAL_UART_MspInit+0x80>)
 8001b66:	4293      	cmp	r3, r2
 8001b68:	d129      	bne.n	8001bbe <HAL_UART_MspInit+0x76>
  {
  /* USER CODE BEGIN USART2_MspInit 0 */

  /* USER CODE END USART2_MspInit 0 */
    /* Peripheral clock enable */
    __HAL_RCC_USART2_CLK_ENABLE();
 8001b6a:	4b18      	ldr	r3, [pc, #96]	; (8001bcc <HAL_UART_MspInit+0x84>)
 8001b6c:	69db      	ldr	r3, [r3, #28]
 8001b6e:	4a17      	ldr	r2, [pc, #92]	; (8001bcc <HAL_UART_MspInit+0x84>)
 8001b70:	f443 3300 	orr.w	r3, r3, #131072	; 0x20000
 8001b74:	61d3      	str	r3, [r2, #28]
 8001b76:	4b15      	ldr	r3, [pc, #84]	; (8001bcc <HAL_UART_MspInit+0x84>)
 8001b78:	69db      	ldr	r3, [r3, #28]
 8001b7a:	f403 3300 	and.w	r3, r3, #131072	; 0x20000
 8001b7e:	613b      	str	r3, [r7, #16]
 8001b80:	693b      	ldr	r3, [r7, #16]

    __HAL_RCC_GPIOA_CLK_ENABLE();
 8001b82:	4b12      	ldr	r3, [pc, #72]	; (8001bcc <HAL_UART_MspInit+0x84>)
 8001b84:	695b      	ldr	r3, [r3, #20]
 8001b86:	4a11      	ldr	r2, [pc, #68]	; (8001bcc <HAL_UART_MspInit+0x84>)
 8001b88:	f443 3300 	orr.w	r3, r3, #131072	; 0x20000
 8001b8c:	6153      	str	r3, [r2, #20]
 8001b8e:	4b0f      	ldr	r3, [pc, #60]	; (8001bcc <HAL_UART_MspInit+0x84>)
 8001b90:	695b      	ldr	r3, [r3, #20]
 8001b92:	f403 3300 	and.w	r3, r3, #131072	; 0x20000
 8001b96:	60fb      	str	r3, [r7, #12]
 8001b98:	68fb      	ldr	r3, [r7, #12]
    /**USART2 GPIO Configuration
    PA2     ------> USART2_TX
    PA15     ------> USART2_RX
    */
    GPIO_InitStruct.Pin = VCP_TX_Pin|VCP_RX_Pin;
 8001b9a:	f248 0304 	movw	r3, #32772	; 0x8004
 8001b9e:	617b      	str	r3, [r7, #20]
    GPIO_InitStruct.Mode = GPIO_MODE_AF_PP;
 8001ba0:	2302      	movs	r3, #2
 8001ba2:	61bb      	str	r3, [r7, #24]
    GPIO_InitStruct.Pull = GPIO_NOPULL;
 8001ba4:	2300      	movs	r3, #0
 8001ba6:	61fb      	str	r3, [r7, #28]
    GPIO_InitStruct.Speed = GPIO_SPEED_FREQ_HIGH;
 8001ba8:	2303      	movs	r3, #3
 8001baa:	623b      	str	r3, [r7, #32]
    GPIO_InitStruct.Alternate = GPIO_AF7_USART2;
 8001bac:	2307      	movs	r3, #7
 8001bae:	627b      	str	r3, [r7, #36]	; 0x24
    HAL_GPIO_Init(GPIOA, &GPIO_InitStruct);
 8001bb0:	f107 0314 	add.w	r3, r7, #20
 8001bb4:	4619      	mov	r1, r3
 8001bb6:	f04f 4090 	mov.w	r0, #1207959552	; 0x48000000
 8001bba:	f001 fcb5 	bl	8003528 <HAL_GPIO_Init>
  /* USER CODE BEGIN USART2_MspInit 1 */

  /* USER CODE END USART2_MspInit 1 */
  }

}
 8001bbe:	bf00      	nop
 8001bc0:	3728      	adds	r7, #40	; 0x28
 8001bc2:	46bd      	mov	sp, r7
 8001bc4:	bd80      	pop	{r7, pc}
 8001bc6:	bf00      	nop
 8001bc8:	40004400 	.word	0x40004400
 8001bcc:	40021000 	.word	0x40021000

08001bd0 <NMI_Handler>:
/******************************************************************************/
/**
  * @brief This function handles Non maskable interrupt.
  */
void NMI_Handler(void)
{
 8001bd0:	b480      	push	{r7}
 8001bd2:	af00      	add	r7, sp, #0
  /* USER CODE BEGIN NonMaskableInt_IRQn 0 */

  /* USER CODE END NonMaskableInt_IRQn 0 */
  /* USER CODE BEGIN NonMaskableInt_IRQn 1 */
  while (1)
 8001bd4:	e7fe      	b.n	8001bd4 <NMI_Handler+0x4>

08001bd6 <HardFault_Handler>:

/**
  * @brief This function handles Hard fault interrupt.
  */
void HardFault_Handler(void)
{
 8001bd6:	b480      	push	{r7}
 8001bd8:	af00      	add	r7, sp, #0
  /* USER CODE BEGIN HardFault_IRQn 0 */

  /* USER CODE END HardFault_IRQn 0 */
  while (1)
 8001bda:	e7fe      	b.n	8001bda <HardFault_Handler+0x4>

08001bdc <MemManage_Handler>:

/**
  * @brief This function handles Memory management fault.
  */
void MemManage_Handler(void)
{
 8001bdc:	b480      	push	{r7}
 8001bde:	af00      	add	r7, sp, #0
  /* USER CODE BEGIN MemoryManagement_IRQn 0 */

  /* USER CODE END MemoryManagement_IRQn 0 */
  while (1)
 8001be0:	e7fe      	b.n	8001be0 <MemManage_Handler+0x4>

08001be2 <BusFault_Handler>:

/**
  * @brief This function handles Pre-fetch fault, memory access fault.
  */
void BusFault_Handler(void)
{
 8001be2:	b480      	push	{r7}
 8001be4:	af00      	add	r7, sp, #0
  /* USER CODE BEGIN BusFault_IRQn 0 */

  /* USER CODE END BusFault_IRQn 0 */
  while (1)
 8001be6:	e7fe      	b.n	8001be6 <BusFault_Handler+0x4>

08001be8 <UsageFault_Handler>:

/**
  * @brief This function handles Undefined instruction or illegal state.
  */
void UsageFault_Handler(void)
{
 8001be8:	b480      	push	{r7}
 8001bea:	af00      	add	r7, sp, #0
  /* USER CODE BEGIN UsageFault_IRQn 0 */

  /* USER CODE END UsageFault_IRQn 0 */
  while (1)
 8001bec:	e7fe      	b.n	8001bec <UsageFault_Handler+0x4>

08001bee <SVC_Handler>:

/**
  * @brief This function handles System service call via SWI instruction.
  */
void SVC_Handler(void)
{
 8001bee:	b480      	push	{r7}
 8001bf0:	af00      	add	r7, sp, #0

  /* USER CODE END SVCall_IRQn 0 */
  /* USER CODE BEGIN SVCall_IRQn 1 */

  /* USER CODE END SVCall_IRQn 1 */
}
 8001bf2:	bf00      	nop
 8001bf4:	46bd      	mov	sp, r7
 8001bf6:	f85d 7b04 	ldr.w	r7, [sp], #4
 8001bfa:	4770      	bx	lr

08001bfc <DebugMon_Handler>:

/**
  * @brief This function handles Debug monitor.
  */
void DebugMon_Handler(void)
{
 8001bfc:	b480      	push	{r7}
 8001bfe:	af00      	add	r7, sp, #0

  /* USER CODE END DebugMonitor_IRQn 0 */
  /* USER CODE BEGIN DebugMonitor_IRQn 1 */

  /* USER CODE END DebugMonitor_IRQn 1 */
}
 8001c00:	bf00      	nop
 8001c02:	46bd      	mov	sp, r7
 8001c04:	f85d 7b04 	ldr.w	r7, [sp], #4
 8001c08:	4770      	bx	lr

08001c0a <PendSV_Handler>:

/**
  * @brief This function handles Pendable request for system service.
  */
void PendSV_Handler(void)
{
 8001c0a:	b480      	push	{r7}
 8001c0c:	af00      	add	r7, sp, #0

  /* USER CODE END PendSV_IRQn 0 */
  /* USER CODE BEGIN PendSV_IRQn 1 */

  /* USER CODE END PendSV_IRQn 1 */
}
 8001c0e:	bf00      	nop
 8001c10:	46bd      	mov	sp, r7
 8001c12:	f85d 7b04 	ldr.w	r7, [sp], #4
 8001c16:	4770      	bx	lr

08001c18 <SysTick_Handler>:

/**
  * @brief This function handles System tick timer.
  */
void SysTick_Handler(void)
{
 8001c18:	b580      	push	{r7, lr}
 8001c1a:	af00      	add	r7, sp, #0
  /* USER CODE BEGIN SysTick_IRQn 0 */

  /* USER CODE END SysTick_IRQn 0 */
  HAL_IncTick();
 8001c1c:	f000 f954 	bl	8001ec8 <HAL_IncTick>
  /* USER CODE BEGIN SysTick_IRQn 1 */

  /* USER CODE END SysTick_IRQn 1 */
}
 8001c20:	bf00      	nop
 8001c22:	bd80      	pop	{r7, pc}

08001c24 <ADC1_2_IRQHandler>:

/**
  * @brief This function handles ADC1 and ADC2 interrupts.
  */
void ADC1_2_IRQHandler(void)
{
 8001c24:	b580      	push	{r7, lr}
 8001c26:	af00      	add	r7, sp, #0
  /* USER CODE BEGIN ADC1_2_IRQn 0 */

  /* USER CODE END ADC1_2_IRQn 0 */
  HAL_ADC_IRQHandler(&hadc1);
 8001c28:	4802      	ldr	r0, [pc, #8]	; (8001c34 <ADC1_2_IRQHandler+0x10>)
 8001c2a:	f000 fcd3 	bl	80025d4 <HAL_ADC_IRQHandler>
  /* USER CODE BEGIN ADC1_2_IRQn 1 */

  /* USER CODE END ADC1_2_IRQn 1 */
}
 8001c2e:	bf00      	nop
 8001c30:	bd80      	pop	{r7, pc}
 8001c32:	bf00      	nop
 8001c34:	20000220 	.word	0x20000220

08001c38 <_getpid>:
void initialise_monitor_handles()
{
}

int _getpid(void)
{
 8001c38:	b480      	push	{r7}
 8001c3a:	af00      	add	r7, sp, #0
	return 1;
 8001c3c:	2301      	movs	r3, #1
}
 8001c3e:	4618      	mov	r0, r3
 8001c40:	46bd      	mov	sp, r7
 8001c42:	f85d 7b04 	ldr.w	r7, [sp], #4
 8001c46:	4770      	bx	lr

08001c48 <_kill>:

int _kill(int pid, int sig)
{
 8001c48:	b580      	push	{r7, lr}
 8001c4a:	b082      	sub	sp, #8
 8001c4c:	af00      	add	r7, sp, #0
 8001c4e:	6078      	str	r0, [r7, #4]
 8001c50:	6039      	str	r1, [r7, #0]
	errno = EINVAL;
 8001c52:	f003 fcc1 	bl	80055d8 <__errno>
 8001c56:	4603      	mov	r3, r0
 8001c58:	2216      	movs	r2, #22
 8001c5a:	601a      	str	r2, [r3, #0]
	return -1;
 8001c5c:	f04f 33ff 	mov.w	r3, #4294967295
}
 8001c60:	4618      	mov	r0, r3
 8001c62:	3708      	adds	r7, #8
 8001c64:	46bd      	mov	sp, r7
 8001c66:	bd80      	pop	{r7, pc}

08001c68 <_exit>:

void _exit (int status)
{
 8001c68:	b580      	push	{r7, lr}
 8001c6a:	b082      	sub	sp, #8
 8001c6c:	af00      	add	r7, sp, #0
 8001c6e:	6078      	str	r0, [r7, #4]
	_kill(status, -1);
 8001c70:	f04f 31ff 	mov.w	r1, #4294967295
 8001c74:	6878      	ldr	r0, [r7, #4]
 8001c76:	f7ff ffe7 	bl	8001c48 <_kill>
	while (1) {}		/* Make sure we hang here */
 8001c7a:	e7fe      	b.n	8001c7a <_exit+0x12>

08001c7c <_read>:
}

__attribute__((weak)) int _read(int file, char *ptr, int len)
{
 8001c7c:	b580      	push	{r7, lr}
 8001c7e:	b086      	sub	sp, #24
 8001c80:	af00      	add	r7, sp, #0
 8001c82:	60f8      	str	r0, [r7, #12]
 8001c84:	60b9      	str	r1, [r7, #8]
 8001c86:	607a      	str	r2, [r7, #4]
	int DataIdx;

	for (DataIdx = 0; DataIdx < len; DataIdx++)
 8001c88:	2300      	movs	r3, #0
 8001c8a:	617b      	str	r3, [r7, #20]
 8001c8c:	e00a      	b.n	8001ca4 <_read+0x28>
	{
		*ptr++ = __io_getchar();
 8001c8e:	f3af 8000 	nop.w
 8001c92:	4601      	mov	r1, r0
 8001c94:	68bb      	ldr	r3, [r7, #8]
 8001c96:	1c5a      	adds	r2, r3, #1
 8001c98:	60ba      	str	r2, [r7, #8]
 8001c9a:	b2ca      	uxtb	r2, r1
 8001c9c:	701a      	strb	r2, [r3, #0]
	for (DataIdx = 0; DataIdx < len; DataIdx++)
 8001c9e:	697b      	ldr	r3, [r7, #20]
 8001ca0:	3301      	adds	r3, #1
 8001ca2:	617b      	str	r3, [r7, #20]
 8001ca4:	697a      	ldr	r2, [r7, #20]
 8001ca6:	687b      	ldr	r3, [r7, #4]
 8001ca8:	429a      	cmp	r2, r3
 8001caa:	dbf0      	blt.n	8001c8e <_read+0x12>
	}

return len;
 8001cac:	687b      	ldr	r3, [r7, #4]
}
 8001cae:	4618      	mov	r0, r3
 8001cb0:	3718      	adds	r7, #24
 8001cb2:	46bd      	mov	sp, r7
 8001cb4:	bd80      	pop	{r7, pc}

08001cb6 <_write>:

__attribute__((weak)) int _write(int file, char *ptr, int len)
{
 8001cb6:	b580      	push	{r7, lr}
 8001cb8:	b086      	sub	sp, #24
 8001cba:	af00      	add	r7, sp, #0
 8001cbc:	60f8      	str	r0, [r7, #12]
 8001cbe:	60b9      	str	r1, [r7, #8]
 8001cc0:	607a      	str	r2, [r7, #4]
	int DataIdx;

	for (DataIdx = 0; DataIdx < len; DataIdx++)
 8001cc2:	2300      	movs	r3, #0
 8001cc4:	617b      	str	r3, [r7, #20]
 8001cc6:	e009      	b.n	8001cdc <_write+0x26>
	{
		__io_putchar(*ptr++);
 8001cc8:	68bb      	ldr	r3, [r7, #8]
 8001cca:	1c5a      	adds	r2, r3, #1
 8001ccc:	60ba      	str	r2, [r7, #8]
 8001cce:	781b      	ldrb	r3, [r3, #0]
 8001cd0:	4618      	mov	r0, r3
 8001cd2:	f3af 8000 	nop.w
	for (DataIdx = 0; DataIdx < len; DataIdx++)
 8001cd6:	697b      	ldr	r3, [r7, #20]
 8001cd8:	3301      	adds	r3, #1
 8001cda:	617b      	str	r3, [r7, #20]
 8001cdc:	697a      	ldr	r2, [r7, #20]
 8001cde:	687b      	ldr	r3, [r7, #4]
 8001ce0:	429a      	cmp	r2, r3
 8001ce2:	dbf1      	blt.n	8001cc8 <_write+0x12>
	}
	return len;
 8001ce4:	687b      	ldr	r3, [r7, #4]
}
 8001ce6:	4618      	mov	r0, r3
 8001ce8:	3718      	adds	r7, #24
 8001cea:	46bd      	mov	sp, r7
 8001cec:	bd80      	pop	{r7, pc}

08001cee <_close>:

int _close(int file)
{
 8001cee:	b480      	push	{r7}
 8001cf0:	b083      	sub	sp, #12
 8001cf2:	af00      	add	r7, sp, #0
 8001cf4:	6078      	str	r0, [r7, #4]
	return -1;
 8001cf6:	f04f 33ff 	mov.w	r3, #4294967295
}
 8001cfa:	4618      	mov	r0, r3
 8001cfc:	370c      	adds	r7, #12
 8001cfe:	46bd      	mov	sp, r7
 8001d00:	f85d 7b04 	ldr.w	r7, [sp], #4
 8001d04:	4770      	bx	lr

08001d06 <_fstat>:


int _fstat(int file, struct stat *st)
{
 8001d06:	b480      	push	{r7}
 8001d08:	b083      	sub	sp, #12
 8001d0a:	af00      	add	r7, sp, #0
 8001d0c:	6078      	str	r0, [r7, #4]
 8001d0e:	6039      	str	r1, [r7, #0]
	st->st_mode = S_IFCHR;
 8001d10:	683b      	ldr	r3, [r7, #0]
 8001d12:	f44f 5200 	mov.w	r2, #8192	; 0x2000
 8001d16:	605a      	str	r2, [r3, #4]
	return 0;
 8001d18:	2300      	movs	r3, #0
}
 8001d1a:	4618      	mov	r0, r3
 8001d1c:	370c      	adds	r7, #12
 8001d1e:	46bd      	mov	sp, r7
 8001d20:	f85d 7b04 	ldr.w	r7, [sp], #4
 8001d24:	4770      	bx	lr

08001d26 <_isatty>:

int _isatty(int file)
{
 8001d26:	b480      	push	{r7}
 8001d28:	b083      	sub	sp, #12
 8001d2a:	af00      	add	r7, sp, #0
 8001d2c:	6078      	str	r0, [r7, #4]
	return 1;
 8001d2e:	2301      	movs	r3, #1
}
 8001d30:	4618      	mov	r0, r3
 8001d32:	370c      	adds	r7, #12
 8001d34:	46bd      	mov	sp, r7
 8001d36:	f85d 7b04 	ldr.w	r7, [sp], #4
 8001d3a:	4770      	bx	lr

08001d3c <_lseek>:

int _lseek(int file, int ptr, int dir)
{
 8001d3c:	b480      	push	{r7}
 8001d3e:	b085      	sub	sp, #20
 8001d40:	af00      	add	r7, sp, #0
 8001d42:	60f8      	str	r0, [r7, #12]
 8001d44:	60b9      	str	r1, [r7, #8]
 8001d46:	607a      	str	r2, [r7, #4]
	return 0;
 8001d48:	2300      	movs	r3, #0
}
 8001d4a:	4618      	mov	r0, r3
 8001d4c:	3714      	adds	r7, #20
 8001d4e:	46bd      	mov	sp, r7
 8001d50:	f85d 7b04 	ldr.w	r7, [sp], #4
 8001d54:	4770      	bx	lr
	...

08001d58 <_sbrk>:
 *
 * @param incr Memory size
 * @return Pointer to allocated memory
 */
void *_sbrk(ptrdiff_t incr)
{
 8001d58:	b580      	push	{r7, lr}
 8001d5a:	b086      	sub	sp, #24
 8001d5c:	af00      	add	r7, sp, #0
 8001d5e:	6078      	str	r0, [r7, #4]
  extern uint8_t _end; /* Symbol defined in the linker script */
  extern uint8_t _estack; /* Symbol defined in the linker script */
  extern uint32_t _Min_Stack_Size; /* Symbol defined in the linker script */
  const uint32_t stack_limit = (uint32_t)&_estack - (uint32_t)&_Min_Stack_Size;
 8001d60:	4a14      	ldr	r2, [pc, #80]	; (8001db4 <_sbrk+0x5c>)
 8001d62:	4b15      	ldr	r3, [pc, #84]	; (8001db8 <_sbrk+0x60>)
 8001d64:	1ad3      	subs	r3, r2, r3
 8001d66:	617b      	str	r3, [r7, #20]
  const uint8_t *max_heap = (uint8_t *)stack_limit;
 8001d68:	697b      	ldr	r3, [r7, #20]
 8001d6a:	613b      	str	r3, [r7, #16]
  uint8_t *prev_heap_end;

  /* Initialize heap end at first call */
  if (NULL == __sbrk_heap_end)
 8001d6c:	4b13      	ldr	r3, [pc, #76]	; (8001dbc <_sbrk+0x64>)
 8001d6e:	681b      	ldr	r3, [r3, #0]
 8001d70:	2b00      	cmp	r3, #0
 8001d72:	d102      	bne.n	8001d7a <_sbrk+0x22>
  {
    __sbrk_heap_end = &_end;
 8001d74:	4b11      	ldr	r3, [pc, #68]	; (8001dbc <_sbrk+0x64>)
 8001d76:	4a12      	ldr	r2, [pc, #72]	; (8001dc0 <_sbrk+0x68>)
 8001d78:	601a      	str	r2, [r3, #0]
  }

  /* Protect heap from growing into the reserved MSP stack */
  if (__sbrk_heap_end + incr > max_heap)
 8001d7a:	4b10      	ldr	r3, [pc, #64]	; (8001dbc <_sbrk+0x64>)
 8001d7c:	681a      	ldr	r2, [r3, #0]
 8001d7e:	687b      	ldr	r3, [r7, #4]
 8001d80:	4413      	add	r3, r2
 8001d82:	693a      	ldr	r2, [r7, #16]
 8001d84:	429a      	cmp	r2, r3
 8001d86:	d207      	bcs.n	8001d98 <_sbrk+0x40>
  {
    errno = ENOMEM;
 8001d88:	f003 fc26 	bl	80055d8 <__errno>
 8001d8c:	4603      	mov	r3, r0
 8001d8e:	220c      	movs	r2, #12
 8001d90:	601a      	str	r2, [r3, #0]
    return (void *)-1;
 8001d92:	f04f 33ff 	mov.w	r3, #4294967295
 8001d96:	e009      	b.n	8001dac <_sbrk+0x54>
  }

  prev_heap_end = __sbrk_heap_end;
 8001d98:	4b08      	ldr	r3, [pc, #32]	; (8001dbc <_sbrk+0x64>)
 8001d9a:	681b      	ldr	r3, [r3, #0]
 8001d9c:	60fb      	str	r3, [r7, #12]
  __sbrk_heap_end += incr;
 8001d9e:	4b07      	ldr	r3, [pc, #28]	; (8001dbc <_sbrk+0x64>)
 8001da0:	681a      	ldr	r2, [r3, #0]
 8001da2:	687b      	ldr	r3, [r7, #4]
 8001da4:	4413      	add	r3, r2
 8001da6:	4a05      	ldr	r2, [pc, #20]	; (8001dbc <_sbrk+0x64>)
 8001da8:	6013      	str	r3, [r2, #0]

  return (void *)prev_heap_end;
 8001daa:	68fb      	ldr	r3, [r7, #12]
}
 8001dac:	4618      	mov	r0, r3
 8001dae:	3718      	adds	r7, #24
 8001db0:	46bd      	mov	sp, r7
 8001db2:	bd80      	pop	{r7, pc}
 8001db4:	20003000 	.word	0x20003000
 8001db8:	00000400 	.word	0x00000400
 8001dbc:	200002f4 	.word	0x200002f4
 8001dc0:	20000310 	.word	0x20000310

08001dc4 <SystemInit>:
  * @brief  Setup the microcontroller system
  * @param  None
  * @retval None
  */
void SystemInit(void)
{
 8001dc4:	b480      	push	{r7}
 8001dc6:	af00      	add	r7, sp, #0
/* FPU settings --------------------------------------------------------------*/
#if (__FPU_PRESENT == 1) && (__FPU_USED == 1)
  SCB->CPACR |= ((3UL << 10*2)|(3UL << 11*2));  /* set CP10 and CP11 Full Access */
 8001dc8:	4b06      	ldr	r3, [pc, #24]	; (8001de4 <SystemInit+0x20>)
 8001dca:	f8d3 3088 	ldr.w	r3, [r3, #136]	; 0x88
 8001dce:	4a05      	ldr	r2, [pc, #20]	; (8001de4 <SystemInit+0x20>)
 8001dd0:	f443 0370 	orr.w	r3, r3, #15728640	; 0xf00000
 8001dd4:	f8c2 3088 	str.w	r3, [r2, #136]	; 0x88

  /* Configure the Vector Table location -------------------------------------*/
#if defined(USER_VECT_TAB_ADDRESS)
  SCB->VTOR = VECT_TAB_BASE_ADDRESS | VECT_TAB_OFFSET; /* Vector Table Relocation in Internal SRAM */
#endif /* USER_VECT_TAB_ADDRESS */
}
 8001dd8:	bf00      	nop
 8001dda:	46bd      	mov	sp, r7
 8001ddc:	f85d 7b04 	ldr.w	r7, [sp], #4
 8001de0:	4770      	bx	lr
 8001de2:	bf00      	nop
 8001de4:	e000ed00 	.word	0xe000ed00

08001de8 <Reset_Handler>:

    .section	.text.Reset_Handler
	.weak	Reset_Handler
	.type	Reset_Handler, %function
Reset_Handler:
  ldr   sp, =_estack    /* Atollic update: set stack pointer */
 8001de8:	f8df d034 	ldr.w	sp, [pc, #52]	; 8001e20 <LoopForever+0x2>

/* Copy the data segment initializers from flash to SRAM */
  ldr r0, =_sdata
 8001dec:	480d      	ldr	r0, [pc, #52]	; (8001e24 <LoopForever+0x6>)
  ldr r1, =_edata
 8001dee:	490e      	ldr	r1, [pc, #56]	; (8001e28 <LoopForever+0xa>)
  ldr r2, =_sidata
 8001df0:	4a0e      	ldr	r2, [pc, #56]	; (8001e2c <LoopForever+0xe>)
  movs r3, #0
 8001df2:	2300      	movs	r3, #0
  b LoopCopyDataInit
 8001df4:	e002      	b.n	8001dfc <LoopCopyDataInit>

08001df6 <CopyDataInit>:

CopyDataInit:
  ldr r4, [r2, r3]
 8001df6:	58d4      	ldr	r4, [r2, r3]
  str r4, [r0, r3]
 8001df8:	50c4      	str	r4, [r0, r3]
  adds r3, r3, #4
 8001dfa:	3304      	adds	r3, #4

08001dfc <LoopCopyDataInit>:

LoopCopyDataInit:
  adds r4, r0, r3
 8001dfc:	18c4      	adds	r4, r0, r3
  cmp r4, r1
 8001dfe:	428c      	cmp	r4, r1
  bcc CopyDataInit
 8001e00:	d3f9      	bcc.n	8001df6 <CopyDataInit>
  
/* Zero fill the bss segment. */
  ldr r2, =_sbss
 8001e02:	4a0b      	ldr	r2, [pc, #44]	; (8001e30 <LoopForever+0x12>)
  ldr r4, =_ebss
 8001e04:	4c0b      	ldr	r4, [pc, #44]	; (8001e34 <LoopForever+0x16>)
  movs r3, #0
 8001e06:	2300      	movs	r3, #0
  b LoopFillZerobss
 8001e08:	e001      	b.n	8001e0e <LoopFillZerobss>

08001e0a <FillZerobss>:

FillZerobss:
  str  r3, [r2]
 8001e0a:	6013      	str	r3, [r2, #0]
  adds r2, r2, #4
 8001e0c:	3204      	adds	r2, #4

08001e0e <LoopFillZerobss>:

LoopFillZerobss:
  cmp r2, r4
 8001e0e:	42a2      	cmp	r2, r4
  bcc FillZerobss
 8001e10:	d3fb      	bcc.n	8001e0a <FillZerobss>

/* Call the clock system intitialization function.*/
    bl  SystemInit
 8001e12:	f7ff ffd7 	bl	8001dc4 <SystemInit>
/* Call static constructors */
    bl __libc_init_array
 8001e16:	f003 fbe5 	bl	80055e4 <__libc_init_array>
/* Call the application's entry point.*/
	bl	main
 8001e1a:	f7ff fab5 	bl	8001388 <main>

08001e1e <LoopForever>:

LoopForever:
    b LoopForever
 8001e1e:	e7fe      	b.n	8001e1e <LoopForever>
  ldr   sp, =_estack    /* Atollic update: set stack pointer */
 8001e20:	20003000 	.word	0x20003000
  ldr r0, =_sdata
 8001e24:	20000000 	.word	0x20000000
  ldr r1, =_edata
 8001e28:	200001e0 	.word	0x200001e0
  ldr r2, =_sidata
 8001e2c:	08008854 	.word	0x08008854
  ldr r2, =_sbss
 8001e30:	200001e0 	.word	0x200001e0
  ldr r4, =_ebss
 8001e34:	2000030c 	.word	0x2000030c

08001e38 <CAN_RX0_IRQHandler>:
 * @retval : None
*/
    .section	.text.Default_Handler,"ax",%progbits
Default_Handler:
Infinite_Loop:
	b	Infinite_Loop
 8001e38:	e7fe      	b.n	8001e38 <CAN_RX0_IRQHandler>
	...

08001e3c <HAL_Init>:
  *         In the default implementation,Systick is used as source of time base.
  *       The tick variable is incremented each 1ms in its ISR.
  * @retval HAL status
  */
HAL_StatusTypeDef HAL_Init(void)
{
 8001e3c:	b580      	push	{r7, lr}
 8001e3e:	af00      	add	r7, sp, #0
  /* Configure Flash prefetch */
#if (PREFETCH_ENABLE != 0U)
  __HAL_FLASH_PREFETCH_BUFFER_ENABLE();
 8001e40:	4b08      	ldr	r3, [pc, #32]	; (8001e64 <HAL_Init+0x28>)
 8001e42:	681b      	ldr	r3, [r3, #0]
 8001e44:	4a07      	ldr	r2, [pc, #28]	; (8001e64 <HAL_Init+0x28>)
 8001e46:	f043 0310 	orr.w	r3, r3, #16
 8001e4a:	6013      	str	r3, [r2, #0]
#endif /* PREFETCH_ENABLE */

  /* Set Interrupt Group Priority */
  HAL_NVIC_SetPriorityGrouping(NVIC_PRIORITYGROUP_4);
 8001e4c:	2003      	movs	r0, #3
 8001e4e:	f001 fb29 	bl	80034a4 <HAL_NVIC_SetPriorityGrouping>

  /* Enable systick and configure 1ms tick (default clock after Reset is HSI) */
  HAL_InitTick(TICK_INT_PRIORITY);
 8001e52:	2000      	movs	r0, #0
 8001e54:	f000 f808 	bl	8001e68 <HAL_InitTick>

  /* Init the low level hardware */
  HAL_MspInit();
 8001e58:	f7ff fe0e 	bl	8001a78 <HAL_MspInit>

  /* Return function status */
  return HAL_OK;
 8001e5c:	2300      	movs	r3, #0
}
 8001e5e:	4618      	mov	r0, r3
 8001e60:	bd80      	pop	{r7, pc}
 8001e62:	bf00      	nop
 8001e64:	40022000 	.word	0x40022000

08001e68 <HAL_InitTick>:
  *         implementation  in user file.
  * @param TickPriority Tick interrupt priority.
  * @retval HAL status
  */
__weak HAL_StatusTypeDef HAL_InitTick(uint32_t TickPriority)
{
 8001e68:	b580      	push	{r7, lr}
 8001e6a:	b082      	sub	sp, #8
 8001e6c:	af00      	add	r7, sp, #0
 8001e6e:	6078      	str	r0, [r7, #4]
  /* Configure the SysTick to have interrupt in 1ms time basis*/
  if (HAL_SYSTICK_Config(SystemCoreClock / (1000U / uwTickFreq)) > 0U)
 8001e70:	4b12      	ldr	r3, [pc, #72]	; (8001ebc <HAL_InitTick+0x54>)
 8001e72:	681a      	ldr	r2, [r3, #0]
 8001e74:	4b12      	ldr	r3, [pc, #72]	; (8001ec0 <HAL_InitTick+0x58>)
 8001e76:	781b      	ldrb	r3, [r3, #0]
 8001e78:	4619      	mov	r1, r3
 8001e7a:	f44f 737a 	mov.w	r3, #1000	; 0x3e8
 8001e7e:	fbb3 f3f1 	udiv	r3, r3, r1
 8001e82:	fbb2 f3f3 	udiv	r3, r2, r3
 8001e86:	4618      	mov	r0, r3
 8001e88:	f001 fb41 	bl	800350e <HAL_SYSTICK_Config>
 8001e8c:	4603      	mov	r3, r0
 8001e8e:	2b00      	cmp	r3, #0
 8001e90:	d001      	beq.n	8001e96 <HAL_InitTick+0x2e>
  {
    return HAL_ERROR;
 8001e92:	2301      	movs	r3, #1
 8001e94:	e00e      	b.n	8001eb4 <HAL_InitTick+0x4c>
  }

  /* Configure the SysTick IRQ priority */
  if (TickPriority < (1UL << __NVIC_PRIO_BITS))
 8001e96:	687b      	ldr	r3, [r7, #4]
 8001e98:	2b0f      	cmp	r3, #15
 8001e9a:	d80a      	bhi.n	8001eb2 <HAL_InitTick+0x4a>
  {
    HAL_NVIC_SetPriority(SysTick_IRQn, TickPriority, 0U);
 8001e9c:	2200      	movs	r2, #0
 8001e9e:	6879      	ldr	r1, [r7, #4]
 8001ea0:	f04f 30ff 	mov.w	r0, #4294967295
 8001ea4:	f001 fb09 	bl	80034ba <HAL_NVIC_SetPriority>
    uwTickPrio = TickPriority;
 8001ea8:	4a06      	ldr	r2, [pc, #24]	; (8001ec4 <HAL_InitTick+0x5c>)
 8001eaa:	687b      	ldr	r3, [r7, #4]
 8001eac:	6013      	str	r3, [r2, #0]
  else
  {
    return HAL_ERROR;
  }
   /* Return function status */
  return HAL_OK;
 8001eae:	2300      	movs	r3, #0
 8001eb0:	e000      	b.n	8001eb4 <HAL_InitTick+0x4c>
    return HAL_ERROR;
 8001eb2:	2301      	movs	r3, #1
}
 8001eb4:	4618      	mov	r0, r3
 8001eb6:	3708      	adds	r7, #8
 8001eb8:	46bd      	mov	sp, r7
 8001eba:	bd80      	pop	{r7, pc}
 8001ebc:	20000004 	.word	0x20000004
 8001ec0:	2000000c 	.word	0x2000000c
 8001ec4:	20000008 	.word	0x20000008

08001ec8 <HAL_IncTick>:
  * @note This function is declared as __weak to be overwritten in case of other 
  *         implementations  in user file.
  * @retval None
  */
__weak void HAL_IncTick(void)
{
 8001ec8:	b480      	push	{r7}
 8001eca:	af00      	add	r7, sp, #0
  uwTick += uwTickFreq;
 8001ecc:	4b06      	ldr	r3, [pc, #24]	; (8001ee8 <HAL_IncTick+0x20>)
 8001ece:	781b      	ldrb	r3, [r3, #0]
 8001ed0:	461a      	mov	r2, r3
 8001ed2:	4b06      	ldr	r3, [pc, #24]	; (8001eec <HAL_IncTick+0x24>)
 8001ed4:	681b      	ldr	r3, [r3, #0]
 8001ed6:	4413      	add	r3, r2
 8001ed8:	4a04      	ldr	r2, [pc, #16]	; (8001eec <HAL_IncTick+0x24>)
 8001eda:	6013      	str	r3, [r2, #0]
}
 8001edc:	bf00      	nop
 8001ede:	46bd      	mov	sp, r7
 8001ee0:	f85d 7b04 	ldr.w	r7, [sp], #4
 8001ee4:	4770      	bx	lr
 8001ee6:	bf00      	nop
 8001ee8:	2000000c 	.word	0x2000000c
 8001eec:	200002f8 	.word	0x200002f8

08001ef0 <HAL_GetTick>:
  * @note   The function is declared as __Weak  to be overwritten  in case of other 
  *         implementations  in user file.
  * @retval tick value
  */
__weak uint32_t HAL_GetTick(void)
{
 8001ef0:	b480      	push	{r7}
 8001ef2:	af00      	add	r7, sp, #0
  return uwTick;  
 8001ef4:	4b03      	ldr	r3, [pc, #12]	; (8001f04 <HAL_GetTick+0x14>)
 8001ef6:	681b      	ldr	r3, [r3, #0]
}
 8001ef8:	4618      	mov	r0, r3
 8001efa:	46bd      	mov	sp, r7
 8001efc:	f85d 7b04 	ldr.w	r7, [sp], #4
 8001f00:	4770      	bx	lr
 8001f02:	bf00      	nop
 8001f04:	200002f8 	.word	0x200002f8

08001f08 <HAL_Delay>:
  *         implementations  in user file.
  * @param  Delay specifies the delay time length, in milliseconds.
  * @retval None
  */
__weak void HAL_Delay(uint32_t Delay)
{
 8001f08:	b580      	push	{r7, lr}
 8001f0a:	b084      	sub	sp, #16
 8001f0c:	af00      	add	r7, sp, #0
 8001f0e:	6078      	str	r0, [r7, #4]
  uint32_t tickstart = HAL_GetTick();
 8001f10:	f7ff ffee 	bl	8001ef0 <HAL_GetTick>
 8001f14:	60b8      	str	r0, [r7, #8]
  uint32_t wait = Delay;
 8001f16:	687b      	ldr	r3, [r7, #4]
 8001f18:	60fb      	str	r3, [r7, #12]
  
  /* Add freq to guarantee minimum wait */
  if (wait < HAL_MAX_DELAY)
 8001f1a:	68fb      	ldr	r3, [r7, #12]
 8001f1c:	f1b3 3fff 	cmp.w	r3, #4294967295
 8001f20:	d005      	beq.n	8001f2e <HAL_Delay+0x26>
  {
    wait += (uint32_t)(uwTickFreq);
 8001f22:	4b0a      	ldr	r3, [pc, #40]	; (8001f4c <HAL_Delay+0x44>)
 8001f24:	781b      	ldrb	r3, [r3, #0]
 8001f26:	461a      	mov	r2, r3
 8001f28:	68fb      	ldr	r3, [r7, #12]
 8001f2a:	4413      	add	r3, r2
 8001f2c:	60fb      	str	r3, [r7, #12]
  }
  
  while((HAL_GetTick() - tickstart) < wait)
 8001f2e:	bf00      	nop
 8001f30:	f7ff ffde 	bl	8001ef0 <HAL_GetTick>
 8001f34:	4602      	mov	r2, r0
 8001f36:	68bb      	ldr	r3, [r7, #8]
 8001f38:	1ad3      	subs	r3, r2, r3
 8001f3a:	68fa      	ldr	r2, [r7, #12]
 8001f3c:	429a      	cmp	r2, r3
 8001f3e:	d8f7      	bhi.n	8001f30 <HAL_Delay+0x28>
  {
  }
}
 8001f40:	bf00      	nop
 8001f42:	bf00      	nop
 8001f44:	3710      	adds	r7, #16
 8001f46:	46bd      	mov	sp, r7
 8001f48:	bd80      	pop	{r7, pc}
 8001f4a:	bf00      	nop
 8001f4c:	2000000c 	.word	0x2000000c

08001f50 <HAL_ADC_ConvCpltCallback>:
  * @brief  Conversion complete callback in non blocking mode 
  * @param  hadc ADC handle
  * @retval None
  */
__weak void HAL_ADC_ConvCpltCallback(ADC_HandleTypeDef* hadc)
{
 8001f50:	b480      	push	{r7}
 8001f52:	b083      	sub	sp, #12
 8001f54:	af00      	add	r7, sp, #0
 8001f56:	6078      	str	r0, [r7, #4]
  UNUSED(hadc);

  /* NOTE : This function should not be modified. When the callback is needed,
            function HAL_ADC_ConvCpltCallback must be implemented in the user file.
   */
}
 8001f58:	bf00      	nop
 8001f5a:	370c      	adds	r7, #12
 8001f5c:	46bd      	mov	sp, r7
 8001f5e:	f85d 7b04 	ldr.w	r7, [sp], #4
 8001f62:	4770      	bx	lr

08001f64 <HAL_ADC_LevelOutOfWindowCallback>:
  * @brief  Analog watchdog callback in non blocking mode. 
  * @param  hadc ADC handle
  * @retval None
  */
__weak void HAL_ADC_LevelOutOfWindowCallback(ADC_HandleTypeDef* hadc)
{
 8001f64:	b480      	push	{r7}
 8001f66:	b083      	sub	sp, #12
 8001f68:	af00      	add	r7, sp, #0
 8001f6a:	6078      	str	r0, [r7, #4]
  UNUSED(hadc);

  /* NOTE : This function should not be modified. When the callback is needed,
            function HAL_ADC_LevelOoutOfWindowCallback must be implemented in the user file.
  */
}
 8001f6c:	bf00      	nop
 8001f6e:	370c      	adds	r7, #12
 8001f70:	46bd      	mov	sp, r7
 8001f72:	f85d 7b04 	ldr.w	r7, [sp], #4
 8001f76:	4770      	bx	lr

08001f78 <HAL_ADC_ErrorCallback>:
  *        (ADC conversion with interruption or transfer by DMA)
  * @param  hadc ADC handle
  * @retval None
  */
__weak void HAL_ADC_ErrorCallback(ADC_HandleTypeDef *hadc)
{
 8001f78:	b480      	push	{r7}
 8001f7a:	b083      	sub	sp, #12
 8001f7c:	af00      	add	r7, sp, #0
 8001f7e:	6078      	str	r0, [r7, #4]
  UNUSED(hadc);

  /* NOTE : This function should not be modified. When the callback is needed,
            function HAL_ADC_ErrorCallback must be implemented in the user file.
  */
}
 8001f80:	bf00      	nop
 8001f82:	370c      	adds	r7, #12
 8001f84:	46bd      	mov	sp, r7
 8001f86:	f85d 7b04 	ldr.w	r7, [sp], #4
 8001f8a:	4770      	bx	lr

08001f8c <HAL_ADC_Init>:
  *         without  disabling the other ADCs sharing the same common group.
  * @param  hadc ADC handle
  * @retval HAL status
  */
HAL_StatusTypeDef HAL_ADC_Init(ADC_HandleTypeDef* hadc)
{
 8001f8c:	b580      	push	{r7, lr}
 8001f8e:	b09a      	sub	sp, #104	; 0x68
 8001f90:	af00      	add	r7, sp, #0
 8001f92:	6078      	str	r0, [r7, #4]
  HAL_StatusTypeDef tmp_hal_status = HAL_OK;
 8001f94:	2300      	movs	r3, #0
 8001f96:	f887 3067 	strb.w	r3, [r7, #103]	; 0x67
  ADC_Common_TypeDef *tmpADC_Common;
  ADC_HandleTypeDef tmphadcSharingSameCommonRegister;
  uint32_t tmpCFGR = 0U;
 8001f9a:	2300      	movs	r3, #0
 8001f9c:	663b      	str	r3, [r7, #96]	; 0x60
  __IO uint32_t wait_loop_index = 0U;
 8001f9e:	2300      	movs	r3, #0
 8001fa0:	60bb      	str	r3, [r7, #8]
  
  /* Check ADC handle */
  if(hadc == NULL)
 8001fa2:	687b      	ldr	r3, [r7, #4]
 8001fa4:	2b00      	cmp	r3, #0
 8001fa6:	d101      	bne.n	8001fac <HAL_ADC_Init+0x20>
  {
    return HAL_ERROR;
 8001fa8:	2301      	movs	r3, #1
 8001faa:	e172      	b.n	8002292 <HAL_ADC_Init+0x306>
  assert_param(IS_FUNCTIONAL_STATE(hadc->Init.DMAContinuousRequests));
  assert_param(IS_ADC_EOC_SELECTION(hadc->Init.EOCSelection));
  assert_param(IS_ADC_OVERRUN(hadc->Init.Overrun));
  assert_param(IS_FUNCTIONAL_STATE(hadc->Init.LowPowerAutoWait));
  
  if(hadc->Init.ScanConvMode != ADC_SCAN_DISABLE)
 8001fac:	687b      	ldr	r3, [r7, #4]
 8001fae:	691b      	ldr	r3, [r3, #16]
 8001fb0:	2b00      	cmp	r3, #0
      assert_param(IS_ADC_REGULAR_DISCONT_NUMBER(hadc->Init.NbrOfDiscConversion));
    }
  }
    
  /* Configuration of ADC core parameters and ADC MSP related parameters */
  if (HAL_IS_BIT_CLR(hadc->State, HAL_ADC_STATE_ERROR_INTERNAL))
 8001fb2:	687b      	ldr	r3, [r7, #4]
 8001fb4:	6c1b      	ldr	r3, [r3, #64]	; 0x40
 8001fb6:	f003 0310 	and.w	r3, r3, #16
 8001fba:	2b00      	cmp	r3, #0
 8001fbc:	d176      	bne.n	80020ac <HAL_ADC_Init+0x120>
    /* procedure.                                                             */
    
    /* Actions performed only if ADC is coming from state reset:              */
    /* - Initialization of ADC MSP                                            */
    /* - ADC voltage regulator enable                                         */
    if (hadc->State == HAL_ADC_STATE_RESET)
 8001fbe:	687b      	ldr	r3, [r7, #4]
 8001fc0:	6c1b      	ldr	r3, [r3, #64]	; 0x40
 8001fc2:	2b00      	cmp	r3, #0
 8001fc4:	d152      	bne.n	800206c <HAL_ADC_Init+0xe0>
    {
      /* Initialize ADC error code */
      ADC_CLEAR_ERRORCODE(hadc);
 8001fc6:	687b      	ldr	r3, [r7, #4]
 8001fc8:	2200      	movs	r2, #0
 8001fca:	645a      	str	r2, [r3, #68]	; 0x44
      
      /* Initialize HAL ADC API internal variables */
      hadc->InjectionConfig.ChannelCount = 0U;
 8001fcc:	687b      	ldr	r3, [r7, #4]
 8001fce:	2200      	movs	r2, #0
 8001fd0:	64da      	str	r2, [r3, #76]	; 0x4c
      hadc->InjectionConfig.ContextQueue = 0U;
 8001fd2:	687b      	ldr	r3, [r7, #4]
 8001fd4:	2200      	movs	r2, #0
 8001fd6:	649a      	str	r2, [r3, #72]	; 0x48
      
      /* Allocate lock resource and initialize it */
      hadc->Lock = HAL_UNLOCKED;
 8001fd8:	687b      	ldr	r3, [r7, #4]
 8001fda:	2200      	movs	r2, #0
 8001fdc:	f883 203c 	strb.w	r2, [r3, #60]	; 0x3c
    
    /* Init the low level hardware */
    hadc->MspInitCallback(hadc);
#else
    /* Init the low level hardware */
    HAL_ADC_MspInit(hadc);
 8001fe0:	6878      	ldr	r0, [r7, #4]
 8001fe2:	f7ff fd6d 	bl	8001ac0 <HAL_ADC_MspInit>
#endif /* USE_HAL_ADC_REGISTER_CALLBACKS */
      
      /* Enable voltage regulator (if disabled at this step) */
      if (HAL_IS_BIT_CLR(hadc->Instance->CR, ADC_CR_ADVREGEN_0))
 8001fe6:	687b      	ldr	r3, [r7, #4]
 8001fe8:	681b      	ldr	r3, [r3, #0]
 8001fea:	689b      	ldr	r3, [r3, #8]
 8001fec:	f003 5380 	and.w	r3, r3, #268435456	; 0x10000000
 8001ff0:	2b00      	cmp	r3, #0
 8001ff2:	d13b      	bne.n	800206c <HAL_ADC_Init+0xe0>
        /*       enabling the ADC. This temporization must be implemented by  */ 
        /*       software and is equal to 10 us in the worst case             */
        /*       process/temperature/power supply.                            */
        
        /* Disable the ADC (if not already disabled) */
        tmp_hal_status = ADC_Disable(hadc);
 8001ff4:	6878      	ldr	r0, [r7, #4]
 8001ff6:	f001 f91f 	bl	8003238 <ADC_Disable>
 8001ffa:	4603      	mov	r3, r0
 8001ffc:	f887 3067 	strb.w	r3, [r7, #103]	; 0x67
        
        /* Check if ADC is effectively disabled */
        /* Configuration of ADC parameters if previous preliminary actions    */ 
        /* are correctly completed.                                           */
        if (HAL_IS_BIT_CLR(hadc->State, HAL_ADC_STATE_ERROR_INTERNAL) &&
 8002000:	687b      	ldr	r3, [r7, #4]
 8002002:	6c1b      	ldr	r3, [r3, #64]	; 0x40
 8002004:	f003 0310 	and.w	r3, r3, #16
 8002008:	2b00      	cmp	r3, #0
 800200a:	d12f      	bne.n	800206c <HAL_ADC_Init+0xe0>
 800200c:	f897 3067 	ldrb.w	r3, [r7, #103]	; 0x67
 8002010:	2b00      	cmp	r3, #0
 8002012:	d12b      	bne.n	800206c <HAL_ADC_Init+0xe0>
            (tmp_hal_status == HAL_OK)                                  )
        {
          /* Set ADC state */
          ADC_STATE_CLR_SET(hadc->State,
 8002014:	687b      	ldr	r3, [r7, #4]
 8002016:	6c1b      	ldr	r3, [r3, #64]	; 0x40
 8002018:	f423 5388 	bic.w	r3, r3, #4352	; 0x1100
 800201c:	f023 0302 	bic.w	r3, r3, #2
 8002020:	f043 0202 	orr.w	r2, r3, #2
 8002024:	687b      	ldr	r3, [r7, #4]
 8002026:	641a      	str	r2, [r3, #64]	; 0x40
                            HAL_ADC_STATE_REG_BUSY | HAL_ADC_STATE_INJ_BUSY,
                            HAL_ADC_STATE_BUSY_INTERNAL);
          
          /* Set the intermediate state before moving the ADC voltage         */
          /* regulator to state enable.                                       */
          CLEAR_BIT(hadc->Instance->CR, (ADC_CR_ADVREGEN_1 | ADC_CR_ADVREGEN_0));
 8002028:	687b      	ldr	r3, [r7, #4]
 800202a:	681b      	ldr	r3, [r3, #0]
 800202c:	689a      	ldr	r2, [r3, #8]
 800202e:	687b      	ldr	r3, [r7, #4]
 8002030:	681b      	ldr	r3, [r3, #0]
 8002032:	f022 5240 	bic.w	r2, r2, #805306368	; 0x30000000
 8002036:	609a      	str	r2, [r3, #8]
          /* Set ADVREGEN bits to 0x01U */
          SET_BIT(hadc->Instance->CR, ADC_CR_ADVREGEN_0);
 8002038:	687b      	ldr	r3, [r7, #4]
 800203a:	681b      	ldr	r3, [r3, #0]
 800203c:	689a      	ldr	r2, [r3, #8]
 800203e:	687b      	ldr	r3, [r7, #4]
 8002040:	681b      	ldr	r3, [r3, #0]
 8002042:	f042 5280 	orr.w	r2, r2, #268435456	; 0x10000000
 8002046:	609a      	str	r2, [r3, #8]
          
          /* Delay for ADC stabilization time.                                */
          /* Compute number of CPU cycles to wait for */
          wait_loop_index = (ADC_STAB_DELAY_US * (SystemCoreClock / 1000000U));
 8002048:	4b94      	ldr	r3, [pc, #592]	; (800229c <HAL_ADC_Init+0x310>)
 800204a:	681b      	ldr	r3, [r3, #0]
 800204c:	4a94      	ldr	r2, [pc, #592]	; (80022a0 <HAL_ADC_Init+0x314>)
 800204e:	fba2 2303 	umull	r2, r3, r2, r3
 8002052:	0c9a      	lsrs	r2, r3, #18
 8002054:	4613      	mov	r3, r2
 8002056:	009b      	lsls	r3, r3, #2
 8002058:	4413      	add	r3, r2
 800205a:	005b      	lsls	r3, r3, #1
 800205c:	60bb      	str	r3, [r7, #8]
          while(wait_loop_index != 0U)
 800205e:	e002      	b.n	8002066 <HAL_ADC_Init+0xda>
          {
            wait_loop_index--;
 8002060:	68bb      	ldr	r3, [r7, #8]
 8002062:	3b01      	subs	r3, #1
 8002064:	60bb      	str	r3, [r7, #8]
          while(wait_loop_index != 0U)
 8002066:	68bb      	ldr	r3, [r7, #8]
 8002068:	2b00      	cmp	r3, #0
 800206a:	d1f9      	bne.n	8002060 <HAL_ADC_Init+0xd4>
    }
    
    /* Verification that ADC voltage regulator is correctly enabled, whether  */
    /* or not ADC is coming from state reset (if any potential problem of     */
    /* clocking, voltage regulator would not be enabled).                     */
    if (HAL_IS_BIT_CLR(hadc->Instance->CR, ADC_CR_ADVREGEN_0) ||
 800206c:	687b      	ldr	r3, [r7, #4]
 800206e:	681b      	ldr	r3, [r3, #0]
 8002070:	689b      	ldr	r3, [r3, #8]
 8002072:	f003 5380 	and.w	r3, r3, #268435456	; 0x10000000
 8002076:	2b00      	cmp	r3, #0
 8002078:	d007      	beq.n	800208a <HAL_ADC_Init+0xfe>
        HAL_IS_BIT_SET(hadc->Instance->CR, ADC_CR_ADVREGEN_1)   )
 800207a:	687b      	ldr	r3, [r7, #4]
 800207c:	681b      	ldr	r3, [r3, #0]
 800207e:	689b      	ldr	r3, [r3, #8]
 8002080:	f003 5300 	and.w	r3, r3, #536870912	; 0x20000000
    if (HAL_IS_BIT_CLR(hadc->Instance->CR, ADC_CR_ADVREGEN_0) ||
 8002084:	f1b3 5f00 	cmp.w	r3, #536870912	; 0x20000000
 8002088:	d110      	bne.n	80020ac <HAL_ADC_Init+0x120>
    {
      /* Update ADC state machine to error */
      ADC_STATE_CLR_SET(hadc->State,
 800208a:	687b      	ldr	r3, [r7, #4]
 800208c:	6c1b      	ldr	r3, [r3, #64]	; 0x40
 800208e:	f023 0312 	bic.w	r3, r3, #18
 8002092:	f043 0210 	orr.w	r2, r3, #16
 8002096:	687b      	ldr	r3, [r7, #4]
 8002098:	641a      	str	r2, [r3, #64]	; 0x40
                        HAL_ADC_STATE_BUSY_INTERNAL,
                        HAL_ADC_STATE_ERROR_INTERNAL);
      
      /* Set ADC error code to ADC IP internal error */
      SET_BIT(hadc->ErrorCode, HAL_ADC_ERROR_INTERNAL);
 800209a:	687b      	ldr	r3, [r7, #4]
 800209c:	6c5b      	ldr	r3, [r3, #68]	; 0x44
 800209e:	f043 0201 	orr.w	r2, r3, #1
 80020a2:	687b      	ldr	r3, [r7, #4]
 80020a4:	645a      	str	r2, [r3, #68]	; 0x44
      
      tmp_hal_status = HAL_ERROR;
 80020a6:	2301      	movs	r3, #1
 80020a8:	f887 3067 	strb.w	r3, [r7, #103]	; 0x67
  
  /* Configuration of ADC parameters if previous preliminary actions are      */ 
  /* correctly completed and if there is no conversion on going on regular    */
  /* group (ADC may already be enabled at this point if HAL_ADC_Init() is     */
  /* called to update a parameter on the fly).                                */
  if (HAL_IS_BIT_CLR(hadc->State, HAL_ADC_STATE_ERROR_INTERNAL) &&
 80020ac:	687b      	ldr	r3, [r7, #4]
 80020ae:	6c1b      	ldr	r3, [r3, #64]	; 0x40
 80020b0:	f003 0310 	and.w	r3, r3, #16
 80020b4:	2b00      	cmp	r3, #0
 80020b6:	f040 80df 	bne.w	8002278 <HAL_ADC_Init+0x2ec>
 80020ba:	f897 3067 	ldrb.w	r3, [r7, #103]	; 0x67
 80020be:	2b00      	cmp	r3, #0
 80020c0:	f040 80da 	bne.w	8002278 <HAL_ADC_Init+0x2ec>
      (tmp_hal_status == HAL_OK)                                &&
      (ADC_IS_CONVERSION_ONGOING_REGULAR(hadc) == RESET)          )
 80020c4:	687b      	ldr	r3, [r7, #4]
 80020c6:	681b      	ldr	r3, [r3, #0]
 80020c8:	689b      	ldr	r3, [r3, #8]
 80020ca:	f003 0304 	and.w	r3, r3, #4
      (tmp_hal_status == HAL_OK)                                &&
 80020ce:	2b00      	cmp	r3, #0
 80020d0:	f040 80d2 	bne.w	8002278 <HAL_ADC_Init+0x2ec>
  {
    /* Set ADC state */
    ADC_STATE_CLR_SET(hadc->State,
 80020d4:	687b      	ldr	r3, [r7, #4]
 80020d6:	6c1b      	ldr	r3, [r3, #64]	; 0x40
 80020d8:	f423 7381 	bic.w	r3, r3, #258	; 0x102
 80020dc:	f043 0202 	orr.w	r2, r3, #2
 80020e0:	687b      	ldr	r3, [r7, #4]
 80020e2:	641a      	str	r2, [r3, #64]	; 0x40
    /* Configuration of common ADC parameters                                 */
    
    /* Pointer to the common control register to which is belonging hadc      */
    /* (Depending on STM32F3 product, there may be up to 4 ADC and 2 common   */
    /* control registers)                                                     */
    tmpADC_Common = ADC_COMMON_REGISTER(hadc);
 80020e4:	4b6f      	ldr	r3, [pc, #444]	; (80022a4 <HAL_ADC_Init+0x318>)
 80020e6:	65fb      	str	r3, [r7, #92]	; 0x5c
    
    /* Set handle of the other ADC sharing the same common register           */
    ADC_COMMON_ADC_OTHER(hadc, &tmphadcSharingSameCommonRegister);
 80020e8:	687b      	ldr	r3, [r7, #4]
 80020ea:	681b      	ldr	r3, [r3, #0]
 80020ec:	f1b3 4fa0 	cmp.w	r3, #1342177280	; 0x50000000
 80020f0:	d102      	bne.n	80020f8 <HAL_ADC_Init+0x16c>
 80020f2:	4b6d      	ldr	r3, [pc, #436]	; (80022a8 <HAL_ADC_Init+0x31c>)
 80020f4:	60fb      	str	r3, [r7, #12]
 80020f6:	e002      	b.n	80020fe <HAL_ADC_Init+0x172>
 80020f8:	f04f 43a0 	mov.w	r3, #1342177280	; 0x50000000
 80020fc:	60fb      	str	r3, [r7, #12]
    
    
    /* Parameters update conditioned to ADC state:                            */
    /* Parameters that can be updated only when ADC is disabled:              */
    /*  - Multimode clock configuration                                       */
    if ((ADC_IS_ENABLE(hadc) == RESET)                                   &&
 80020fe:	687b      	ldr	r3, [r7, #4]
 8002100:	681b      	ldr	r3, [r3, #0]
 8002102:	689b      	ldr	r3, [r3, #8]
 8002104:	f003 0303 	and.w	r3, r3, #3
 8002108:	2b01      	cmp	r3, #1
 800210a:	d108      	bne.n	800211e <HAL_ADC_Init+0x192>
 800210c:	687b      	ldr	r3, [r7, #4]
 800210e:	681b      	ldr	r3, [r3, #0]
 8002110:	681b      	ldr	r3, [r3, #0]
 8002112:	f003 0301 	and.w	r3, r3, #1
 8002116:	2b01      	cmp	r3, #1
 8002118:	d101      	bne.n	800211e <HAL_ADC_Init+0x192>
 800211a:	2301      	movs	r3, #1
 800211c:	e000      	b.n	8002120 <HAL_ADC_Init+0x194>
 800211e:	2300      	movs	r3, #0
 8002120:	2b00      	cmp	r3, #0
 8002122:	d11c      	bne.n	800215e <HAL_ADC_Init+0x1d2>
        ((tmphadcSharingSameCommonRegister.Instance == NULL)         ||
 8002124:	68fb      	ldr	r3, [r7, #12]
    if ((ADC_IS_ENABLE(hadc) == RESET)                                   &&
 8002126:	2b00      	cmp	r3, #0
 8002128:	d010      	beq.n	800214c <HAL_ADC_Init+0x1c0>
         (ADC_IS_ENABLE(&tmphadcSharingSameCommonRegister) == RESET)   )   )
 800212a:	68fb      	ldr	r3, [r7, #12]
 800212c:	689b      	ldr	r3, [r3, #8]
 800212e:	f003 0303 	and.w	r3, r3, #3
 8002132:	2b01      	cmp	r3, #1
 8002134:	d107      	bne.n	8002146 <HAL_ADC_Init+0x1ba>
 8002136:	68fb      	ldr	r3, [r7, #12]
 8002138:	681b      	ldr	r3, [r3, #0]
 800213a:	f003 0301 	and.w	r3, r3, #1
 800213e:	2b01      	cmp	r3, #1
 8002140:	d101      	bne.n	8002146 <HAL_ADC_Init+0x1ba>
 8002142:	2301      	movs	r3, #1
 8002144:	e000      	b.n	8002148 <HAL_ADC_Init+0x1bc>
 8002146:	2300      	movs	r3, #0
        ((tmphadcSharingSameCommonRegister.Instance == NULL)         ||
 8002148:	2b00      	cmp	r3, #0
 800214a:	d108      	bne.n	800215e <HAL_ADC_Init+0x1d2>
      /*     into HAL_ADCEx_MultiModeConfigChannel() )                        */
      /*   - internal measurement paths: Vbat, temperature sensor, Vref       */
      /*     (set into HAL_ADC_ConfigChannel() or                             */
      /*     HAL_ADCEx_InjectedConfigChannel() )                              */
     
      MODIFY_REG(tmpADC_Common->CCR       ,
 800214c:	6dfb      	ldr	r3, [r7, #92]	; 0x5c
 800214e:	689b      	ldr	r3, [r3, #8]
 8002150:	f423 3240 	bic.w	r2, r3, #196608	; 0x30000
 8002154:	687b      	ldr	r3, [r7, #4]
 8002156:	685b      	ldr	r3, [r3, #4]
 8002158:	431a      	orrs	r2, r3
 800215a:	6dfb      	ldr	r3, [r7, #92]	; 0x5c
 800215c:	609a      	str	r2, [r3, #8]
    /*  - external trigger to start conversion                                */
    /*  - external trigger polarity                                           */
    /*  - continuous conversion mode                                          */
    /*  - overrun                                                             */
    /*  - discontinuous mode                                                  */
    SET_BIT(tmpCFGR, ADC_CFGR_CONTINUOUS((uint32_t)hadc->Init.ContinuousConvMode) |
 800215e:	687b      	ldr	r3, [r7, #4]
 8002160:	7e5b      	ldrb	r3, [r3, #25]
 8002162:	035b      	lsls	r3, r3, #13
 8002164:	687a      	ldr	r2, [r7, #4]
 8002166:	6b52      	ldr	r2, [r2, #52]	; 0x34
 8002168:	2a01      	cmp	r2, #1
 800216a:	d002      	beq.n	8002172 <HAL_ADC_Init+0x1e6>
 800216c:	f44f 5280 	mov.w	r2, #4096	; 0x1000
 8002170:	e000      	b.n	8002174 <HAL_ADC_Init+0x1e8>
 8002172:	2200      	movs	r2, #0
 8002174:	431a      	orrs	r2, r3
 8002176:	687b      	ldr	r3, [r7, #4]
 8002178:	68db      	ldr	r3, [r3, #12]
 800217a:	431a      	orrs	r2, r3
 800217c:	687b      	ldr	r3, [r7, #4]
 800217e:	689b      	ldr	r3, [r3, #8]
 8002180:	4313      	orrs	r3, r2
 8002182:	6e3a      	ldr	r2, [r7, #96]	; 0x60
 8002184:	4313      	orrs	r3, r2
 8002186:	663b      	str	r3, [r7, #96]	; 0x60
                     ADC_CFGR_OVERRUN(hadc->Init.Overrun)               |
                     hadc->Init.DataAlign                               |
                     hadc->Init.Resolution                               );
    
    /* Enable discontinuous mode only if continuous mode is disabled */
    if (hadc->Init.DiscontinuousConvMode == ENABLE)
 8002188:	687b      	ldr	r3, [r7, #4]
 800218a:	f893 3020 	ldrb.w	r3, [r3, #32]
 800218e:	2b01      	cmp	r3, #1
 8002190:	d11b      	bne.n	80021ca <HAL_ADC_Init+0x23e>
    {
      if (hadc->Init.ContinuousConvMode == DISABLE)
 8002192:	687b      	ldr	r3, [r7, #4]
 8002194:	7e5b      	ldrb	r3, [r3, #25]
 8002196:	2b00      	cmp	r3, #0
 8002198:	d109      	bne.n	80021ae <HAL_ADC_Init+0x222>
      {
        /* Enable the selected ADC regular discontinuous mode */
        /* Set the number of channels to be converted in discontinuous mode */
        SET_BIT(tmpCFGR, ADC_CFGR_DISCEN                                            |
 800219a:	687b      	ldr	r3, [r7, #4]
 800219c:	6a5b      	ldr	r3, [r3, #36]	; 0x24
 800219e:	3b01      	subs	r3, #1
 80021a0:	045a      	lsls	r2, r3, #17
 80021a2:	6e3b      	ldr	r3, [r7, #96]	; 0x60
 80021a4:	4313      	orrs	r3, r2
 80021a6:	f443 3380 	orr.w	r3, r3, #65536	; 0x10000
 80021aa:	663b      	str	r3, [r7, #96]	; 0x60
 80021ac:	e00d      	b.n	80021ca <HAL_ADC_Init+0x23e>
        /* ADC regular group discontinuous was intended to be enabled,        */
        /* but ADC regular group modes continuous and sequencer discontinuous */
        /* cannot be enabled simultaneously.                                  */
        
        /* Update ADC state machine to error */
        ADC_STATE_CLR_SET(hadc->State,
 80021ae:	687b      	ldr	r3, [r7, #4]
 80021b0:	6c1b      	ldr	r3, [r3, #64]	; 0x40
 80021b2:	f023 0322 	bic.w	r3, r3, #34	; 0x22
 80021b6:	f043 0220 	orr.w	r2, r3, #32
 80021ba:	687b      	ldr	r3, [r7, #4]
 80021bc:	641a      	str	r2, [r3, #64]	; 0x40
                          HAL_ADC_STATE_BUSY_INTERNAL,
                          HAL_ADC_STATE_ERROR_CONFIG);
        
        /* Set ADC error code to ADC IP internal error */
        SET_BIT(hadc->ErrorCode, HAL_ADC_ERROR_INTERNAL);
 80021be:	687b      	ldr	r3, [r7, #4]
 80021c0:	6c5b      	ldr	r3, [r3, #68]	; 0x44
 80021c2:	f043 0201 	orr.w	r2, r3, #1
 80021c6:	687b      	ldr	r3, [r7, #4]
 80021c8:	645a      	str	r2, [r3, #68]	; 0x44
    /* Enable external trigger if trigger selection is different of software  */
    /* start.                                                                 */
    /* Note: This configuration keeps the hardware feature of parameter       */
    /*       ExternalTrigConvEdge "trigger edge none" equivalent to           */
    /*       software start.                                                  */
    if (hadc->Init.ExternalTrigConv != ADC_SOFTWARE_START)
 80021ca:	687b      	ldr	r3, [r7, #4]
 80021cc:	6a9b      	ldr	r3, [r3, #40]	; 0x28
 80021ce:	2b01      	cmp	r3, #1
 80021d0:	d007      	beq.n	80021e2 <HAL_ADC_Init+0x256>
    {
      SET_BIT(tmpCFGR, ADC_CFGR_EXTSEL_SET(hadc, hadc->Init.ExternalTrigConv) |
 80021d2:	687b      	ldr	r3, [r7, #4]
 80021d4:	6a9a      	ldr	r2, [r3, #40]	; 0x28
 80021d6:	687b      	ldr	r3, [r7, #4]
 80021d8:	6adb      	ldr	r3, [r3, #44]	; 0x2c
 80021da:	4313      	orrs	r3, r2
 80021dc:	6e3a      	ldr	r2, [r7, #96]	; 0x60
 80021de:	4313      	orrs	r3, r2
 80021e0:	663b      	str	r3, [r7, #96]	; 0x60
    /* Parameters update conditioned to ADC state:                            */
    /* Parameters that can be updated when ADC is disabled or enabled without */
    /* conversion on going on regular and injected groups:                    */
    /*  - DMA continuous request                                              */
    /*  - LowPowerAutoWait feature                                            */
    if (ADC_IS_CONVERSION_ONGOING_REGULAR_INJECTED(hadc) == RESET)
 80021e2:	687b      	ldr	r3, [r7, #4]
 80021e4:	681b      	ldr	r3, [r3, #0]
 80021e6:	689b      	ldr	r3, [r3, #8]
 80021e8:	f003 030c 	and.w	r3, r3, #12
 80021ec:	2b00      	cmp	r3, #0
 80021ee:	d114      	bne.n	800221a <HAL_ADC_Init+0x28e>
    {
      CLEAR_BIT(hadc->Instance->CFGR, ADC_CFGR_AUTDLY |
 80021f0:	687b      	ldr	r3, [r7, #4]
 80021f2:	681b      	ldr	r3, [r3, #0]
 80021f4:	68db      	ldr	r3, [r3, #12]
 80021f6:	687a      	ldr	r2, [r7, #4]
 80021f8:	6812      	ldr	r2, [r2, #0]
 80021fa:	f423 4380 	bic.w	r3, r3, #16384	; 0x4000
 80021fe:	f023 0302 	bic.w	r3, r3, #2
 8002202:	60d3      	str	r3, [r2, #12]
                                      ADC_CFGR_DMACFG  );
      
      SET_BIT(tmpCFGR, ADC_CFGR_AUTOWAIT((uint32_t)hadc->Init.LowPowerAutoWait) |
 8002204:	687b      	ldr	r3, [r7, #4]
 8002206:	7e1b      	ldrb	r3, [r3, #24]
 8002208:	039a      	lsls	r2, r3, #14
 800220a:	687b      	ldr	r3, [r7, #4]
 800220c:	f893 3030 	ldrb.w	r3, [r3, #48]	; 0x30
 8002210:	005b      	lsls	r3, r3, #1
 8002212:	4313      	orrs	r3, r2
 8002214:	6e3a      	ldr	r2, [r7, #96]	; 0x60
 8002216:	4313      	orrs	r3, r2
 8002218:	663b      	str	r3, [r7, #96]	; 0x60
                       ADC_CFGR_DMACONTREQ((uint32_t)hadc->Init.DMAContinuousRequests) );
    }
    
    /* Update ADC configuration register with previous settings */
    MODIFY_REG(hadc->Instance->CFGR,
 800221a:	687b      	ldr	r3, [r7, #4]
 800221c:	681b      	ldr	r3, [r3, #0]
 800221e:	68da      	ldr	r2, [r3, #12]
 8002220:	4b22      	ldr	r3, [pc, #136]	; (80022ac <HAL_ADC_Init+0x320>)
 8002222:	4013      	ands	r3, r2
 8002224:	687a      	ldr	r2, [r7, #4]
 8002226:	6812      	ldr	r2, [r2, #0]
 8002228:	6e39      	ldr	r1, [r7, #96]	; 0x60
 800222a:	430b      	orrs	r3, r1
 800222c:	60d3      	str	r3, [r2, #12]
    /*   Parameter "NbrOfConversion" is discarded.                            */
    /*   Note: Scan mode is not present by hardware on this device, but       */
    /*   emulated by software for alignment over all STM32 devices.           */
    /* - if scan mode is enabled, regular channels sequence length is set to  */
    /*   parameter "NbrOfConversion"                                          */   
    if (hadc->Init.ScanConvMode == ADC_SCAN_ENABLE)
 800222e:	687b      	ldr	r3, [r7, #4]
 8002230:	691b      	ldr	r3, [r3, #16]
 8002232:	2b01      	cmp	r3, #1
 8002234:	d10c      	bne.n	8002250 <HAL_ADC_Init+0x2c4>
    {
      /* Set number of ranks in regular group sequencer */     
      MODIFY_REG(hadc->Instance->SQR1                     ,
 8002236:	687b      	ldr	r3, [r7, #4]
 8002238:	681b      	ldr	r3, [r3, #0]
 800223a:	6b1b      	ldr	r3, [r3, #48]	; 0x30
 800223c:	f023 010f 	bic.w	r1, r3, #15
 8002240:	687b      	ldr	r3, [r7, #4]
 8002242:	69db      	ldr	r3, [r3, #28]
 8002244:	1e5a      	subs	r2, r3, #1
 8002246:	687b      	ldr	r3, [r7, #4]
 8002248:	681b      	ldr	r3, [r3, #0]
 800224a:	430a      	orrs	r2, r1
 800224c:	631a      	str	r2, [r3, #48]	; 0x30
 800224e:	e007      	b.n	8002260 <HAL_ADC_Init+0x2d4>
                 ADC_SQR1_L                               ,
                 (hadc->Init.NbrOfConversion - (uint8_t)1U) );  
    }
    else
    {
      CLEAR_BIT(hadc->Instance->SQR1, ADC_SQR1_L);
 8002250:	687b      	ldr	r3, [r7, #4]
 8002252:	681b      	ldr	r3, [r3, #0]
 8002254:	6b1a      	ldr	r2, [r3, #48]	; 0x30
 8002256:	687b      	ldr	r3, [r7, #4]
 8002258:	681b      	ldr	r3, [r3, #0]
 800225a:	f022 020f 	bic.w	r2, r2, #15
 800225e:	631a      	str	r2, [r3, #48]	; 0x30
    }
    
    /* Set ADC error code to none */
    ADC_CLEAR_ERRORCODE(hadc);
 8002260:	687b      	ldr	r3, [r7, #4]
 8002262:	2200      	movs	r2, #0
 8002264:	645a      	str	r2, [r3, #68]	; 0x44
    
    /* Set the ADC state */
    ADC_STATE_CLR_SET(hadc->State,
 8002266:	687b      	ldr	r3, [r7, #4]
 8002268:	6c1b      	ldr	r3, [r3, #64]	; 0x40
 800226a:	f023 0303 	bic.w	r3, r3, #3
 800226e:	f043 0201 	orr.w	r2, r3, #1
 8002272:	687b      	ldr	r3, [r7, #4]
 8002274:	641a      	str	r2, [r3, #64]	; 0x40
 8002276:	e00a      	b.n	800228e <HAL_ADC_Init+0x302>
                      HAL_ADC_STATE_READY);
  }
  else
  {
    /* Update ADC state machine to error */
    ADC_STATE_CLR_SET(hadc->State,
 8002278:	687b      	ldr	r3, [r7, #4]
 800227a:	6c1b      	ldr	r3, [r3, #64]	; 0x40
 800227c:	f023 0312 	bic.w	r3, r3, #18
 8002280:	f043 0210 	orr.w	r2, r3, #16
 8002284:	687b      	ldr	r3, [r7, #4]
 8002286:	641a      	str	r2, [r3, #64]	; 0x40
                      HAL_ADC_STATE_BUSY_INTERNAL,
                      HAL_ADC_STATE_ERROR_INTERNAL);
    
    tmp_hal_status = HAL_ERROR; 
 8002288:	2301      	movs	r3, #1
 800228a:	f887 3067 	strb.w	r3, [r7, #103]	; 0x67
  }
  
  
  /* Return function status */
  return tmp_hal_status;
 800228e:	f897 3067 	ldrb.w	r3, [r7, #103]	; 0x67
}
 8002292:	4618      	mov	r0, r3
 8002294:	3768      	adds	r7, #104	; 0x68
 8002296:	46bd      	mov	sp, r7
 8002298:	bd80      	pop	{r7, pc}
 800229a:	bf00      	nop
 800229c:	20000004 	.word	0x20000004
 80022a0:	431bde83 	.word	0x431bde83
 80022a4:	50000300 	.word	0x50000300
 80022a8:	50000100 	.word	0x50000100
 80022ac:	fff0c007 	.word	0xfff0c007

080022b0 <HAL_ADC_Start>:
  *         if ADC is master, ADC is enabled and multimode conversion is started.
  * @param  hadc ADC handle
  * @retval HAL status
  */
HAL_StatusTypeDef HAL_ADC_Start(ADC_HandleTypeDef* hadc)
{
 80022b0:	b580      	push	{r7, lr}
 80022b2:	b084      	sub	sp, #16
 80022b4:	af00      	add	r7, sp, #0
 80022b6:	6078      	str	r0, [r7, #4]
  HAL_StatusTypeDef tmp_hal_status = HAL_OK;
 80022b8:	2300      	movs	r3, #0
 80022ba:	73fb      	strb	r3, [r7, #15]
  
  /* Check the parameters */
  assert_param(IS_ADC_ALL_INSTANCE(hadc->Instance));
  
  /* Perform ADC enable and conversion start if no conversion is on going */
  if (ADC_IS_CONVERSION_ONGOING_REGULAR(hadc) == RESET)
 80022bc:	687b      	ldr	r3, [r7, #4]
 80022be:	681b      	ldr	r3, [r3, #0]
 80022c0:	689b      	ldr	r3, [r3, #8]
 80022c2:	f003 0304 	and.w	r3, r3, #4
 80022c6:	2b00      	cmp	r3, #0
 80022c8:	f040 809c 	bne.w	8002404 <HAL_ADC_Start+0x154>
  {
    /* Process locked */
    __HAL_LOCK(hadc);
 80022cc:	687b      	ldr	r3, [r7, #4]
 80022ce:	f893 303c 	ldrb.w	r3, [r3, #60]	; 0x3c
 80022d2:	2b01      	cmp	r3, #1
 80022d4:	d101      	bne.n	80022da <HAL_ADC_Start+0x2a>
 80022d6:	2302      	movs	r3, #2
 80022d8:	e097      	b.n	800240a <HAL_ADC_Start+0x15a>
 80022da:	687b      	ldr	r3, [r7, #4]
 80022dc:	2201      	movs	r2, #1
 80022de:	f883 203c 	strb.w	r2, [r3, #60]	; 0x3c
    
    /* Enable the ADC peripheral */
    tmp_hal_status = ADC_Enable(hadc);
 80022e2:	6878      	ldr	r0, [r7, #4]
 80022e4:	f000 ff44 	bl	8003170 <ADC_Enable>
 80022e8:	4603      	mov	r3, r0
 80022ea:	73fb      	strb	r3, [r7, #15]
    
    /* Start conversion if ADC is effectively enabled */
    if (tmp_hal_status == HAL_OK)
 80022ec:	7bfb      	ldrb	r3, [r7, #15]
 80022ee:	2b00      	cmp	r3, #0
 80022f0:	f040 8083 	bne.w	80023fa <HAL_ADC_Start+0x14a>
    {
      /* Set ADC state                                                        */
      /* - Clear state bitfield related to regular group conversion results   */
      /* - Set state bitfield related to regular operation                    */
      ADC_STATE_CLR_SET(hadc->State,
 80022f4:	687b      	ldr	r3, [r7, #4]
 80022f6:	6c1b      	ldr	r3, [r3, #64]	; 0x40
 80022f8:	f423 6370 	bic.w	r3, r3, #3840	; 0xf00
 80022fc:	f023 0301 	bic.w	r3, r3, #1
 8002300:	f443 7280 	orr.w	r2, r3, #256	; 0x100
 8002304:	687b      	ldr	r3, [r7, #4]
 8002306:	641a      	str	r2, [r3, #64]	; 0x40
                        HAL_ADC_STATE_REG_BUSY);
      
      /* Set group injected state (from auto-injection) and multimode state   */
      /* for all cases of multimode: independent mode, multimode ADC master   */
      /* or multimode ADC slave (for devices with several ADCs):              */
      if (ADC_NONMULTIMODE_OR_MULTIMODEMASTER(hadc))
 8002308:	4b42      	ldr	r3, [pc, #264]	; (8002414 <HAL_ADC_Start+0x164>)
 800230a:	689b      	ldr	r3, [r3, #8]
 800230c:	f003 031f 	and.w	r3, r3, #31
 8002310:	2b00      	cmp	r3, #0
 8002312:	d004      	beq.n	800231e <HAL_ADC_Start+0x6e>
 8002314:	687b      	ldr	r3, [r7, #4]
 8002316:	681b      	ldr	r3, [r3, #0]
 8002318:	f1b3 4fa0 	cmp.w	r3, #1342177280	; 0x50000000
 800231c:	d115      	bne.n	800234a <HAL_ADC_Start+0x9a>
      {
        /* Set ADC state (ADC independent or master) */
        CLEAR_BIT(hadc->State, HAL_ADC_STATE_MULTIMODE_SLAVE);
 800231e:	687b      	ldr	r3, [r7, #4]
 8002320:	6c1b      	ldr	r3, [r3, #64]	; 0x40
 8002322:	f423 1280 	bic.w	r2, r3, #1048576	; 0x100000
 8002326:	687b      	ldr	r3, [r7, #4]
 8002328:	641a      	str	r2, [r3, #64]	; 0x40
        
        /* If conversions on group regular are also triggering group injected,*/
        /* update ADC state.                                                  */
        if (READ_BIT(hadc->Instance->CFGR, ADC_CFGR_JAUTO) != RESET)
 800232a:	687b      	ldr	r3, [r7, #4]
 800232c:	681b      	ldr	r3, [r3, #0]
 800232e:	68db      	ldr	r3, [r3, #12]
 8002330:	f003 7300 	and.w	r3, r3, #33554432	; 0x2000000
 8002334:	2b00      	cmp	r3, #0
 8002336:	d027      	beq.n	8002388 <HAL_ADC_Start+0xd8>
        {
          ADC_STATE_CLR_SET(hadc->State, HAL_ADC_STATE_INJ_EOC, HAL_ADC_STATE_INJ_BUSY);  
 8002338:	687b      	ldr	r3, [r7, #4]
 800233a:	6c1b      	ldr	r3, [r3, #64]	; 0x40
 800233c:	f423 5340 	bic.w	r3, r3, #12288	; 0x3000
 8002340:	f443 5280 	orr.w	r2, r3, #4096	; 0x1000
 8002344:	687b      	ldr	r3, [r7, #4]
 8002346:	641a      	str	r2, [r3, #64]	; 0x40
        if (READ_BIT(hadc->Instance->CFGR, ADC_CFGR_JAUTO) != RESET)
 8002348:	e01e      	b.n	8002388 <HAL_ADC_Start+0xd8>
        }
      }
      else
      {
        /* Set ADC state (ADC slave) */
        SET_BIT(hadc->State, HAL_ADC_STATE_MULTIMODE_SLAVE);
 800234a:	687b      	ldr	r3, [r7, #4]
 800234c:	6c1b      	ldr	r3, [r3, #64]	; 0x40
 800234e:	f443 1280 	orr.w	r2, r3, #1048576	; 0x100000
 8002352:	687b      	ldr	r3, [r7, #4]
 8002354:	641a      	str	r2, [r3, #64]	; 0x40
        
        /* If conversions on group regular are also triggering group injected,*/
        /* update ADC state.                                                  */
        if (ADC_MULTIMODE_AUTO_INJECTED(hadc))
 8002356:	687b      	ldr	r3, [r7, #4]
 8002358:	681b      	ldr	r3, [r3, #0]
 800235a:	f1b3 4fa0 	cmp.w	r3, #1342177280	; 0x50000000
 800235e:	d004      	beq.n	800236a <HAL_ADC_Start+0xba>
 8002360:	687b      	ldr	r3, [r7, #4]
 8002362:	681b      	ldr	r3, [r3, #0]
 8002364:	4a2c      	ldr	r2, [pc, #176]	; (8002418 <HAL_ADC_Start+0x168>)
 8002366:	4293      	cmp	r3, r2
 8002368:	d10e      	bne.n	8002388 <HAL_ADC_Start+0xd8>
 800236a:	f04f 43a0 	mov.w	r3, #1342177280	; 0x50000000
 800236e:	68db      	ldr	r3, [r3, #12]
 8002370:	f003 7300 	and.w	r3, r3, #33554432	; 0x2000000
 8002374:	2b00      	cmp	r3, #0
 8002376:	d007      	beq.n	8002388 <HAL_ADC_Start+0xd8>
        {
          ADC_STATE_CLR_SET(hadc->State, HAL_ADC_STATE_INJ_EOC, HAL_ADC_STATE_INJ_BUSY);
 8002378:	687b      	ldr	r3, [r7, #4]
 800237a:	6c1b      	ldr	r3, [r3, #64]	; 0x40
 800237c:	f423 5340 	bic.w	r3, r3, #12288	; 0x3000
 8002380:	f443 5280 	orr.w	r2, r3, #4096	; 0x1000
 8002384:	687b      	ldr	r3, [r7, #4]
 8002386:	641a      	str	r2, [r3, #64]	; 0x40
        }
      }
      
      /* State machine update: Check if an injected conversion is ongoing */
      if (HAL_IS_BIT_SET(hadc->State, HAL_ADC_STATE_INJ_BUSY))
 8002388:	687b      	ldr	r3, [r7, #4]
 800238a:	6c1b      	ldr	r3, [r3, #64]	; 0x40
 800238c:	f403 5380 	and.w	r3, r3, #4096	; 0x1000
 8002390:	f5b3 5f80 	cmp.w	r3, #4096	; 0x1000
 8002394:	d106      	bne.n	80023a4 <HAL_ADC_Start+0xf4>
      {
        /* Reset ADC error code fields related to conversions on group regular*/
        CLEAR_BIT(hadc->ErrorCode, (HAL_ADC_ERROR_OVR | HAL_ADC_ERROR_DMA));         
 8002396:	687b      	ldr	r3, [r7, #4]
 8002398:	6c5b      	ldr	r3, [r3, #68]	; 0x44
 800239a:	f023 0206 	bic.w	r2, r3, #6
 800239e:	687b      	ldr	r3, [r7, #4]
 80023a0:	645a      	str	r2, [r3, #68]	; 0x44
 80023a2:	e002      	b.n	80023aa <HAL_ADC_Start+0xfa>
      }
      else
      {
        /* Reset ADC all error code fields */
        ADC_CLEAR_ERRORCODE(hadc);
 80023a4:	687b      	ldr	r3, [r7, #4]
 80023a6:	2200      	movs	r2, #0
 80023a8:	645a      	str	r2, [r3, #68]	; 0x44
      }
      
      /* Process unlocked */
      /* Unlock before starting ADC conversions: in case of potential         */
      /* interruption, to let the process to ADC IRQ Handler.                 */
      __HAL_UNLOCK(hadc);
 80023aa:	687b      	ldr	r3, [r7, #4]
 80023ac:	2200      	movs	r2, #0
 80023ae:	f883 203c 	strb.w	r2, [r3, #60]	; 0x3c
      
      /* Clear regular group conversion flag and overrun flag */
      /* (To ensure of no unknown state from potential previous ADC           */
      /* operations)                                                          */
      __HAL_ADC_CLEAR_FLAG(hadc, (ADC_FLAG_EOC | ADC_FLAG_EOS | ADC_FLAG_OVR));
 80023b2:	687b      	ldr	r3, [r7, #4]
 80023b4:	681b      	ldr	r3, [r3, #0]
 80023b6:	221c      	movs	r2, #28
 80023b8:	601a      	str	r2, [r3, #0]
      /* If external trigger has been selected, conversion will start at next */
      /* trigger event.                                                       */
      /* Case of multimode enabled (for devices with several ADCs):           */
      /*  - if ADC is slave, ADC is enabled only (conversion is not started). */
      /*  - if ADC is master, ADC is enabled and conversion is started.       */
      if (ADC_NONMULTIMODE_REG_OR_MULTIMODEMASTER(hadc))
 80023ba:	4b16      	ldr	r3, [pc, #88]	; (8002414 <HAL_ADC_Start+0x164>)
 80023bc:	689b      	ldr	r3, [r3, #8]
 80023be:	f003 031f 	and.w	r3, r3, #31
 80023c2:	2b00      	cmp	r3, #0
 80023c4:	d010      	beq.n	80023e8 <HAL_ADC_Start+0x138>
 80023c6:	4b13      	ldr	r3, [pc, #76]	; (8002414 <HAL_ADC_Start+0x164>)
 80023c8:	689b      	ldr	r3, [r3, #8]
 80023ca:	f003 031f 	and.w	r3, r3, #31
 80023ce:	2b05      	cmp	r3, #5
 80023d0:	d00a      	beq.n	80023e8 <HAL_ADC_Start+0x138>
 80023d2:	4b10      	ldr	r3, [pc, #64]	; (8002414 <HAL_ADC_Start+0x164>)
 80023d4:	689b      	ldr	r3, [r3, #8]
 80023d6:	f003 031f 	and.w	r3, r3, #31
 80023da:	2b09      	cmp	r3, #9
 80023dc:	d004      	beq.n	80023e8 <HAL_ADC_Start+0x138>
 80023de:	687b      	ldr	r3, [r7, #4]
 80023e0:	681b      	ldr	r3, [r3, #0]
 80023e2:	f1b3 4fa0 	cmp.w	r3, #1342177280	; 0x50000000
 80023e6:	d10f      	bne.n	8002408 <HAL_ADC_Start+0x158>
      {
        SET_BIT(hadc->Instance->CR, ADC_CR_ADSTART);
 80023e8:	687b      	ldr	r3, [r7, #4]
 80023ea:	681b      	ldr	r3, [r3, #0]
 80023ec:	689a      	ldr	r2, [r3, #8]
 80023ee:	687b      	ldr	r3, [r7, #4]
 80023f0:	681b      	ldr	r3, [r3, #0]
 80023f2:	f042 0204 	orr.w	r2, r2, #4
 80023f6:	609a      	str	r2, [r3, #8]
 80023f8:	e006      	b.n	8002408 <HAL_ADC_Start+0x158>
      }
    }
    else
    {
      /* Process unlocked */
      __HAL_UNLOCK(hadc);
 80023fa:	687b      	ldr	r3, [r7, #4]
 80023fc:	2200      	movs	r2, #0
 80023fe:	f883 203c 	strb.w	r2, [r3, #60]	; 0x3c
 8002402:	e001      	b.n	8002408 <HAL_ADC_Start+0x158>
    }
  }
  else
  {
    tmp_hal_status = HAL_BUSY;
 8002404:	2302      	movs	r3, #2
 8002406:	73fb      	strb	r3, [r7, #15]
  }
  
  /* Return function status */
  return tmp_hal_status;
 8002408:	7bfb      	ldrb	r3, [r7, #15]
}
 800240a:	4618      	mov	r0, r3
 800240c:	3710      	adds	r7, #16
 800240e:	46bd      	mov	sp, r7
 8002410:	bd80      	pop	{r7, pc}
 8002412:	bf00      	nop
 8002414:	50000300 	.word	0x50000300
 8002418:	50000100 	.word	0x50000100

0800241c <HAL_ADC_PollForConversion>:
  * @note   Depending on init parameter "EOCSelection", flags EOS or EOC is 
  *         checked and cleared depending on autodelay status (bit AUTDLY).     
  * @retval HAL status
  */
HAL_StatusTypeDef HAL_ADC_PollForConversion(ADC_HandleTypeDef* hadc, uint32_t Timeout)
{
 800241c:	b580      	push	{r7, lr}
 800241e:	b086      	sub	sp, #24
 8002420:	af00      	add	r7, sp, #0
 8002422:	6078      	str	r0, [r7, #4]
 8002424:	6039      	str	r1, [r7, #0]
  uint32_t tickstart;
  uint32_t tmp_Flag_EOC;
  ADC_Common_TypeDef *tmpADC_Common;
  uint32_t tmp_cfgr     = 0x0U;
 8002426:	2300      	movs	r3, #0
 8002428:	613b      	str	r3, [r7, #16]
  
  /* Check the parameters */
  assert_param(IS_ADC_ALL_INSTANCE(hadc->Instance));

/* If end of conversion selected to end of sequence */
  if (hadc->Init.EOCSelection == ADC_EOC_SEQ_CONV)
 800242a:	687b      	ldr	r3, [r7, #4]
 800242c:	695b      	ldr	r3, [r3, #20]
 800242e:	2b08      	cmp	r3, #8
 8002430:	d102      	bne.n	8002438 <HAL_ADC_PollForConversion+0x1c>
  {
    tmp_Flag_EOC = ADC_FLAG_EOS;
 8002432:	2308      	movs	r3, #8
 8002434:	617b      	str	r3, [r7, #20]
 8002436:	e02e      	b.n	8002496 <HAL_ADC_PollForConversion+0x7a>
    /* ADC configured in DMA mode and and polling for end of each conversion. */
    
    /* Pointer to the common control register to which is belonging hadc      */
    /* (Depending on STM32F3 product, there may have up to 4 ADC and 2 common */
    /* control registers)                                                     */
    tmpADC_Common = ADC_COMMON_REGISTER(hadc);
 8002438:	4b5e      	ldr	r3, [pc, #376]	; (80025b4 <HAL_ADC_PollForConversion+0x198>)
 800243a:	60fb      	str	r3, [r7, #12]
    
    /* Check DMA configuration, depending on MultiMode set or not */
    if (READ_BIT(tmpADC_Common->CCR, ADC_CCR_MULTI) == ADC_MODE_INDEPENDENT)
 800243c:	68fb      	ldr	r3, [r7, #12]
 800243e:	689b      	ldr	r3, [r3, #8]
 8002440:	f003 031f 	and.w	r3, r3, #31
 8002444:	2b00      	cmp	r3, #0
 8002446:	d112      	bne.n	800246e <HAL_ADC_PollForConversion+0x52>
    {
      if (HAL_IS_BIT_SET(hadc->Instance->CFGR, ADC_CFGR_DMAEN))
 8002448:	687b      	ldr	r3, [r7, #4]
 800244a:	681b      	ldr	r3, [r3, #0]
 800244c:	68db      	ldr	r3, [r3, #12]
 800244e:	f003 0301 	and.w	r3, r3, #1
 8002452:	2b01      	cmp	r3, #1
 8002454:	d11d      	bne.n	8002492 <HAL_ADC_PollForConversion+0x76>
      {
        /* Update ADC state machine to error */
        SET_BIT(hadc->State, HAL_ADC_STATE_ERROR_CONFIG);
 8002456:	687b      	ldr	r3, [r7, #4]
 8002458:	6c1b      	ldr	r3, [r3, #64]	; 0x40
 800245a:	f043 0220 	orr.w	r2, r3, #32
 800245e:	687b      	ldr	r3, [r7, #4]
 8002460:	641a      	str	r2, [r3, #64]	; 0x40
        
        /* Process unlocked */
        __HAL_UNLOCK(hadc);
 8002462:	687b      	ldr	r3, [r7, #4]
 8002464:	2200      	movs	r2, #0
 8002466:	f883 203c 	strb.w	r2, [r3, #60]	; 0x3c
        
        return HAL_ERROR;
 800246a:	2301      	movs	r3, #1
 800246c:	e09d      	b.n	80025aa <HAL_ADC_PollForConversion+0x18e>
      }
    }
    else
    {
      /* MultiMode is enabled, Common Control Register MDMA bits must be checked */
      if (READ_BIT(tmpADC_Common->CCR, ADC_CCR_MDMA) != RESET)
 800246e:	68fb      	ldr	r3, [r7, #12]
 8002470:	689b      	ldr	r3, [r3, #8]
 8002472:	f403 4340 	and.w	r3, r3, #49152	; 0xc000
 8002476:	2b00      	cmp	r3, #0
 8002478:	d00b      	beq.n	8002492 <HAL_ADC_PollForConversion+0x76>
      {
        /* Update ADC state machine to error */
        SET_BIT(hadc->State, HAL_ADC_STATE_ERROR_CONFIG);
 800247a:	687b      	ldr	r3, [r7, #4]
 800247c:	6c1b      	ldr	r3, [r3, #64]	; 0x40
 800247e:	f043 0220 	orr.w	r2, r3, #32
 8002482:	687b      	ldr	r3, [r7, #4]
